{
  "contractName": "DaoBase",
  "abi": [
    {
      "constant": true,
      "inputs": [],
      "name": "ALLOW_ACTION_BY_ADDRESS",
      "outputs": [
        {
          "name": "",
          "type": "bytes32"
        }
      ],
      "payable": false,
      "stateMutability": "view",
      "type": "function"
    },
    {
      "constant": true,
      "inputs": [],
      "name": "UPGRADE_DAO_CONTRACT",
      "outputs": [
        {
          "name": "",
          "type": "bytes32"
        }
      ],
      "payable": false,
      "stateMutability": "view",
      "type": "function"
    },
    {
      "constant": true,
      "inputs": [],
      "name": "ADD_NEW_PROPOSAL",
      "outputs": [
        {
          "name": "",
          "type": "bytes32"
        }
      ],
      "payable": false,
      "stateMutability": "view",
      "type": "function"
    },
    {
      "constant": true,
      "inputs": [],
      "name": "REMOVE_GROUP_MEMBER",
      "outputs": [
        {
          "name": "",
          "type": "bytes32"
        }
      ],
      "payable": false,
      "stateMutability": "view",
      "type": "function"
    },
    {
      "constant": true,
      "inputs": [],
      "name": "ALLOW_ACTION_BY_SHAREHOLDER",
      "outputs": [
        {
          "name": "",
          "type": "bytes32"
        }
      ],
      "payable": false,
      "stateMutability": "view",
      "type": "function"
    },
    {
      "constant": true,
      "inputs": [],
      "name": "MANAGE_GROUPS",
      "outputs": [
        {
          "name": "",
          "type": "bytes32"
        }
      ],
      "payable": false,
      "stateMutability": "view",
      "type": "function"
    },
    {
      "constant": true,
      "inputs": [],
      "name": "BURN_TOKENS",
      "outputs": [
        {
          "name": "",
          "type": "bytes32"
        }
      ],
      "payable": false,
      "stateMutability": "view",
      "type": "function"
    },
    {
      "constant": true,
      "inputs": [],
      "name": "ALLOW_ACTION_BY_VOTING",
      "outputs": [
        {
          "name": "",
          "type": "bytes32"
        }
      ],
      "payable": false,
      "stateMutability": "view",
      "type": "function"
    },
    {
      "constant": false,
      "inputs": [],
      "name": "renounceOwnership",
      "outputs": [],
      "payable": false,
      "stateMutability": "nonpayable",
      "type": "function"
    },
    {
      "constant": true,
      "inputs": [],
      "name": "WITHDRAW_DONATIONS",
      "outputs": [
        {
          "name": "",
          "type": "bytes32"
        }
      ],
      "payable": false,
      "stateMutability": "view",
      "type": "function"
    },
    {
      "constant": true,
      "inputs": [],
      "name": "owner",
      "outputs": [
        {
          "name": "",
          "type": "address"
        }
      ],
      "payable": false,
      "stateMutability": "view",
      "type": "function"
    },
    {
      "constant": true,
      "inputs": [],
      "name": "ISSUE_TOKENS",
      "outputs": [
        {
          "name": "",
          "type": "bytes32"
        }
      ],
      "payable": false,
      "stateMutability": "view",
      "type": "function"
    },
    {
      "constant": true,
      "inputs": [],
      "name": "ALLOW_ACTION_BY_ANY_MEMBER_OF_GROUP",
      "outputs": [
        {
          "name": "",
          "type": "bytes32"
        }
      ],
      "payable": false,
      "stateMutability": "view",
      "type": "function"
    },
    {
      "constant": false,
      "inputs": [
        {
          "name": "_newOwner",
          "type": "address"
        }
      ],
      "name": "transferOwnership",
      "outputs": [],
      "payable": false,
      "stateMutability": "nonpayable",
      "type": "function"
    },
    {
      "inputs": [
        {
          "name": "_daoStorage",
          "type": "address"
        }
      ],
      "payable": false,
      "stateMutability": "nonpayable",
      "type": "constructor"
    },
    {
      "anonymous": false,
      "inputs": [
        {
          "indexed": false,
          "name": "_new",
          "type": "address"
        }
      ],
      "name": "DaoBaseUpgradeDaoContract",
      "type": "event"
    },
    {
      "anonymous": false,
      "inputs": [
        {
          "indexed": false,
          "name": "_groupName",
          "type": "string"
        },
        {
          "indexed": false,
          "name": "_a",
          "type": "address"
        }
      ],
      "name": "DaoBaseAddGroupMember",
      "type": "event"
    },
    {
      "anonymous": false,
      "inputs": [
        {
          "indexed": false,
          "name": "_groupName",
          "type": "string"
        },
        {
          "indexed": false,
          "name": "_a",
          "type": "address"
        }
      ],
      "name": "DaoBaseRemoveGroupMember",
      "type": "event"
    },
    {
      "anonymous": false,
      "inputs": [
        {
          "indexed": false,
          "name": "_what",
          "type": "bytes32"
        },
        {
          "indexed": false,
          "name": "_tokenAddress",
          "type": "address"
        }
      ],
      "name": "DaoBaseAllowActionByShareholder",
      "type": "event"
    },
    {
      "anonymous": false,
      "inputs": [
        {
          "indexed": false,
          "name": "_what",
          "type": "bytes32"
        },
        {
          "indexed": false,
          "name": "_tokenAddress",
          "type": "address"
        }
      ],
      "name": "DaoBaseAllowActionByVoting",
      "type": "event"
    },
    {
      "anonymous": false,
      "inputs": [
        {
          "indexed": false,
          "name": "_what",
          "type": "bytes32"
        },
        {
          "indexed": false,
          "name": "_a",
          "type": "address"
        }
      ],
      "name": "DaoBaseAllowActionByAddress",
      "type": "event"
    },
    {
      "anonymous": false,
      "inputs": [
        {
          "indexed": false,
          "name": "_what",
          "type": "bytes32"
        },
        {
          "indexed": false,
          "name": "_groupName",
          "type": "string"
        }
      ],
      "name": "DaoBaseAllowActionByAnyMemberOfGroup",
      "type": "event"
    },
    {
      "anonymous": false,
      "inputs": [
        {
          "indexed": false,
          "name": "_proposal",
          "type": "address"
        }
      ],
      "name": "DaoBaseAddNewProposal",
      "type": "event"
    },
    {
      "anonymous": false,
      "inputs": [
        {
          "indexed": false,
          "name": "_tokenAddress",
          "type": "address"
        },
        {
          "indexed": false,
          "name": "_to",
          "type": "address"
        },
        {
          "indexed": false,
          "name": "_amount",
          "type": "uint256"
        }
      ],
      "name": "DaoBaseIssueTokens",
      "type": "event"
    },
    {
      "anonymous": false,
      "inputs": [
        {
          "indexed": false,
          "name": "_tokenAddress",
          "type": "address"
        },
        {
          "indexed": false,
          "name": "_who",
          "type": "address"
        },
        {
          "indexed": false,
          "name": "_amount",
          "type": "uint256"
        }
      ],
      "name": "DaoBaseBurnTokens",
      "type": "event"
    },
    {
      "anonymous": false,
      "inputs": [
        {
          "indexed": true,
          "name": "previousOwner",
          "type": "address"
        }
      ],
      "name": "OwnershipRenounced",
      "type": "event"
    },
    {
      "anonymous": false,
      "inputs": [
        {
          "indexed": true,
          "name": "previousOwner",
          "type": "address"
        },
        {
          "indexed": true,
          "name": "newOwner",
          "type": "address"
        }
      ],
      "name": "OwnershipTransferred",
      "type": "event"
    },
    {
      "constant": true,
      "inputs": [
        {
          "name": "_s",
          "type": "string"
        }
      ],
      "name": "stringHash",
      "outputs": [
        {
          "name": "",
          "type": "bytes32"
        }
      ],
      "payable": false,
      "stateMutability": "pure",
      "type": "function"
    },
    {
      "constant": true,
      "inputs": [],
      "name": "getObserversCount",
      "outputs": [
        {
          "name": "",
          "type": "uint256"
        }
      ],
      "payable": false,
      "stateMutability": "view",
      "type": "function"
    },
    {
      "constant": true,
      "inputs": [
        {
          "name": "_index",
          "type": "uint256"
        }
      ],
      "name": "getObserverAtIndex",
      "outputs": [
        {
          "name": "",
          "type": "address"
        }
      ],
      "payable": false,
      "stateMutability": "view",
      "type": "function"
    },
    {
      "constant": true,
      "inputs": [
        {
          "name": "_permissionName",
          "type": "bytes32"
        },
        {
          "name": "_a",
          "type": "address"
        }
      ],
      "name": "isCanDoByGroupMember",
      "outputs": [
        {
          "name": "",
          "type": "bool"
        }
      ],
      "payable": false,
      "stateMutability": "view",
      "type": "function"
    },
    {
      "constant": false,
      "inputs": [
        {
          "name": "_observer",
          "type": "address"
        }
      ],
      "name": "addObserver",
      "outputs": [],
      "payable": false,
      "stateMutability": "nonpayable",
      "type": "function"
    },
    {
      "constant": false,
      "inputs": [
        {
          "name": "_new",
          "type": "address"
        }
      ],
      "name": "upgradeDaoContract",
      "outputs": [],
      "payable": false,
      "stateMutability": "nonpayable",
      "type": "function"
    },
    {
      "constant": true,
      "inputs": [
        {
          "name": "_groupName",
          "type": "string"
        }
      ],
      "name": "getMembersCount",
      "outputs": [
        {
          "name": "",
          "type": "uint256"
        }
      ],
      "payable": false,
      "stateMutability": "view",
      "type": "function"
    },
    {
      "constant": false,
      "inputs": [
        {
          "name": "_groupName",
          "type": "string"
        },
        {
          "name": "_a",
          "type": "address"
        }
      ],
      "name": "addGroupMember",
      "outputs": [],
      "payable": false,
      "stateMutability": "nonpayable",
      "type": "function"
    },
    {
      "constant": true,
      "inputs": [
        {
          "name": "_groupName",
          "type": "string"
        }
      ],
      "name": "getGroupMembers",
      "outputs": [
        {
          "name": "",
          "type": "address[]"
        }
      ],
      "payable": false,
      "stateMutability": "view",
      "type": "function"
    },
    {
      "constant": false,
      "inputs": [
        {
          "name": "_groupName",
          "type": "string"
        },
        {
          "name": "_a",
          "type": "address"
        }
      ],
      "name": "removeGroupMember",
      "outputs": [],
      "payable": false,
      "stateMutability": "nonpayable",
      "type": "function"
    },
    {
      "constant": true,
      "inputs": [
        {
          "name": "_groupName",
          "type": "string"
        },
        {
          "name": "_a",
          "type": "address"
        }
      ],
      "name": "isGroupMember",
      "outputs": [
        {
          "name": "",
          "type": "bool"
        }
      ],
      "payable": false,
      "stateMutability": "view",
      "type": "function"
    },
    {
      "constant": true,
      "inputs": [
        {
          "name": "_groupName",
          "type": "string"
        },
        {
          "name": "_index",
          "type": "uint256"
        }
      ],
      "name": "getMemberByIndex",
      "outputs": [
        {
          "name": "",
          "type": "address"
        }
      ],
      "payable": false,
      "stateMutability": "view",
      "type": "function"
    },
    {
      "constant": false,
      "inputs": [
        {
          "name": "_permissionName",
          "type": "bytes32"
        },
        {
          "name": "_tokenAddress",
          "type": "address"
        }
      ],
      "name": "allowActionByShareholder",
      "outputs": [],
      "payable": false,
      "stateMutability": "nonpayable",
      "type": "function"
    },
    {
      "constant": false,
      "inputs": [
        {
          "name": "_permissionName",
          "type": "bytes32"
        },
        {
          "name": "_tokenAddress",
          "type": "address"
        }
      ],
      "name": "allowActionByVoting",
      "outputs": [],
      "payable": false,
      "stateMutability": "nonpayable",
      "type": "function"
    },
    {
      "constant": false,
      "inputs": [
        {
          "name": "_permissionName",
          "type": "bytes32"
        },
        {
          "name": "_a",
          "type": "address"
        }
      ],
      "name": "allowActionByAddress",
      "outputs": [],
      "payable": false,
      "stateMutability": "nonpayable",
      "type": "function"
    },
    {
      "constant": false,
      "inputs": [
        {
          "name": "_permissionName",
          "type": "bytes32"
        },
        {
          "name": "_groupName",
          "type": "string"
        }
      ],
      "name": "allowActionByAnyMemberOfGroup",
      "outputs": [],
      "payable": false,
      "stateMutability": "nonpayable",
      "type": "function"
    },
    {
      "constant": true,
      "inputs": [
        {
          "name": "_a",
          "type": "address"
        },
        {
          "name": "_permissionNameHash",
          "type": "bytes32"
        }
      ],
      "name": "isCanDoAction",
      "outputs": [
        {
          "name": "",
          "type": "bool"
        }
      ],
      "payable": false,
      "stateMutability": "view",
      "type": "function"
    },
    {
      "constant": false,
      "inputs": [
        {
          "name": "_proposal",
          "type": "address"
        }
      ],
      "name": "addNewProposal",
      "outputs": [],
      "payable": false,
      "stateMutability": "nonpayable",
      "type": "function"
    },
    {
      "constant": true,
      "inputs": [
        {
          "name": "_i",
          "type": "uint256"
        }
      ],
      "name": "getProposalAtIndex",
      "outputs": [
        {
          "name": "",
          "type": "address"
        }
      ],
      "payable": false,
      "stateMutability": "view",
      "type": "function"
    },
    {
      "constant": true,
      "inputs": [],
      "name": "getProposalsCount",
      "outputs": [
        {
          "name": "",
          "type": "uint256"
        }
      ],
      "payable": false,
      "stateMutability": "view",
      "type": "function"
    },
    {
      "constant": false,
      "inputs": [
        {
          "name": "_tokenAddress",
          "type": "address"
        },
        {
          "name": "_to",
          "type": "address"
        },
        {
          "name": "_amount",
          "type": "uint256"
        }
      ],
      "name": "issueTokens",
      "outputs": [],
      "payable": false,
      "stateMutability": "nonpayable",
      "type": "function"
    },
    {
      "constant": false,
      "inputs": [
        {
          "name": "_tokenAddress",
          "type": "address"
        },
        {
          "name": "_who",
          "type": "address"
        },
        {
          "name": "_amount",
          "type": "uint256"
        }
      ],
      "name": "burnTokens",
      "outputs": [],
      "payable": false,
      "stateMutability": "nonpayable",
      "type": "function"
    }
  ],
  "bytecode": "0x608060405234801561001057600080fd5b5060405160208061422583398101806040528101908080519060200190929190505050336000806101000a81548173ffffffffffffffffffffffffffffffffffffffff021916908373ffffffffffffffffffffffffffffffffffffffff16021790555080600160006101000a81548173ffffffffffffffffffffffffffffffffffffffff021916908373ffffffffffffffffffffffffffffffffffffffff16021790555050614161806100c46000396000f3006080604052600436106101c2576000357c0100000000000000000000000000000000000000000000000000000000900463ffffffff16806301ef0468146101c7578063027502011461020a5780630b0e7f15146102c85780630c955c281461034d5780631081f0d1146103b65780631176415f146103e957806315b3671d1461043a57806318fa12aa146104db5780631955c0a41461050e57806322e320f7146105415780632459bac8146105aa578063415e86ce14610617578063423c3a481461064a57806358974298146106b75780635facc3dc146106ea578063601fc8321461071d57806362ea77961461078a578063644834be146107b5578063679f0681146107e85780636f3249191461081b578063715018a61461086c57806374bb3d5414610883578063755ae05b146108fa5780638b979f511461092d5780638da5cb5b1461099a5780638faa37f1146109f157806396e608ba14610a2457806398e527d314610a67578063a08ce40914610a92578063a450197c14610ae3578063a9759dfc14610b6c578063ed28c03514610b9f578063ef9c822614610c52578063f2fde38b14610ccf578063fb02cfa814610d12578063fb8ec97214610d9b575b600080fd5b3480156101d357600080fd5b50610208600480360381019080803573ffffffffffffffffffffffffffffffffffffffff169060200190929190505050610dde565b005b34801561021657600080fd5b50610271600480360381019080803590602001908201803590602001908080601f0160208091040260200160405190810160405280939291908181526020018383808284378201915050505050509192919290505050611081565b6040518080602001828103825283818151815260200191508051906020019060200280838360005b838110156102b4578082015181840152602081019050610299565b505050509050019250505060405180910390f35b3480156102d457600080fd5b5061032f600480360381019080803590602001908201803590602001908080601f01602080910402602001604051908101604052809392919081815260200183838082843782019150505050505091929192905050506111bc565b60405180826000191660001916815260200191505060405180910390f35b34801561035957600080fd5b5061039c6004803603810190808035600019169060200190929190803573ffffffffffffffffffffffffffffffffffffffff169060200190929190505050611228565b604051808215151515815260200191505060405180910390f35b3480156103c257600080fd5b506103cb61133a565b60405180826000191660001916815260200191505060405180910390f35b3480156103f557600080fd5b506104386004803603810190808035600019169060200190929190803573ffffffffffffffffffffffffffffffffffffffff169060200190929190505050611361565b005b34801561044657600080fd5b506104c1600480360381019080803590602001908201803590602001908080601f0160208091040260200160405190810160405280939291908181526020018383808284378201915050505050509192919290803573ffffffffffffffffffffffffffffffffffffffff16906020019092919050505061167c565b604051808215151515815260200191505060405180910390f35b3480156104e757600080fd5b506104f0611796565b60405180826000191660001916815260200191505060405180910390f35b34801561051a57600080fd5b506105236117bd565b60405180826000191660001916815260200191505060405180910390f35b34801561054d57600080fd5b50610590600480360381019080803573ffffffffffffffffffffffffffffffffffffffff16906020019092919080356000191690602001909291905050506117e4565b604051808215151515815260200191505060405180910390f35b3480156105b657600080fd5b50610615600480360381019080803573ffffffffffffffffffffffffffffffffffffffff169060200190929190803573ffffffffffffffffffffffffffffffffffffffff16906020019092919080359060200190929190505050611926565b005b34801561062357600080fd5b5061062c611c73565b60405180826000191660001916815260200191505060405180910390f35b34801561065657600080fd5b506106b5600480360381019080803573ffffffffffffffffffffffffffffffffffffffff169060200190929190803573ffffffffffffffffffffffffffffffffffffffff16906020019092919080359060200190929190505050611c9a565b005b3480156106c357600080fd5b506106cc611fe7565b60405180826000191660001916815260200191505060405180910390f35b3480156106f657600080fd5b506106ff61200e565b60405180826000191660001916815260200191505060405180910390f35b34801561072957600080fd5b5061074860048036038101908080359060200190929190505050612035565b604051808273ffffffffffffffffffffffffffffffffffffffff1673ffffffffffffffffffffffffffffffffffffffff16815260200191505060405180910390f35b34801561079657600080fd5b5061079f61210a565b6040518082815260200191505060405180910390f35b3480156107c157600080fd5b506107ca6121d2565b60405180826000191660001916815260200191505060405180910390f35b3480156107f457600080fd5b506107fd6121f9565b60405180826000191660001916815260200191505060405180910390f35b34801561082757600080fd5b5061086a6004803603810190808035600019169060200190929190803573ffffffffffffffffffffffffffffffffffffffff169060200190929190505050612220565b005b34801561087857600080fd5b5061088161253b565b005b34801561088f57600080fd5b506108f86004803603810190808035600019169060200190929190803590602001908201803590602001908080601f016020809104026020016040519081016040528093929190818152602001838380828437820191505050505050919291929050505061263d565b005b34801561090657600080fd5b5061090f612975565b60405180826000191660001916815260200191505060405180910390f35b34801561093957600080fd5b506109586004803603810190808035906020019092919050505061299c565b604051808273ffffffffffffffffffffffffffffffffffffffff1673ffffffffffffffffffffffffffffffffffffffff16815260200191505060405180910390f35b3480156109a657600080fd5b506109af612a71565b604051808273ffffffffffffffffffffffffffffffffffffffff1673ffffffffffffffffffffffffffffffffffffffff16815260200191505060405180910390f35b3480156109fd57600080fd5b50610a06612a96565b60405180826000191660001916815260200191505060405180910390f35b348015610a3057600080fd5b50610a65600480360381019080803573ffffffffffffffffffffffffffffffffffffffff169060200190929190505050612abd565b005b348015610a7357600080fd5b50610a7c61320f565b6040518082815260200191505060405180910390f35b348015610a9e57600080fd5b50610ae16004803603810190808035600019169060200190929190803573ffffffffffffffffffffffffffffffffffffffff1690602001909291905050506132d7565b005b348015610aef57600080fd5b50610b6a600480360381019080803590602001908201803590602001908080601f0160208091040260200160405190810160405280939291908181526020018383808284378201915050505050509192919290803573ffffffffffffffffffffffffffffffffffffffff1690602001909291905050506135f2565b005b348015610b7857600080fd5b50610b81613972565b60405180826000191660001916815260200191505060405180910390f35b348015610bab57600080fd5b50610c10600480360381019080803590602001908201803590602001908080601f016020809104026020016040519081016040528093929190818152602001838380828437820191505050505050919291929080359060200190929190505050613999565b604051808273ffffffffffffffffffffffffffffffffffffffff1673ffffffffffffffffffffffffffffffffffffffff16815260200191505060405180910390f35b348015610c5e57600080fd5b50610cb9600480360381019080803590602001908201803590602001908080601f0160208091040260200160405190810160405280939291908181526020018383808284378201915050505050509192919290505050613a87565b6040518082815260200191505060405180910390f35b348015610cdb57600080fd5b50610d10600480360381019080803573ffffffffffffffffffffffffffffffffffffffff169060200190929190505050613b6c565b005b348015610d1e57600080fd5b50610d99600480360381019080803590602001908201803590602001908080601f0160208091040260200160405190810160405280939291908181526020018383808284378201915050505050509192919290803573ffffffffffffffffffffffffffffffffffffffff169060200190929190505050613bd3565b005b348015610da757600080fd5b50610ddc600480360381019080803573ffffffffffffffffffffffffffffffffffffffff169060200190929190505050613f63565b005b7f55c7fa9eebcea37770fd33ec28acf7eacb6ea53052a9e9bc0a98169768578c5f60010273__DaoBaseLib____________________________63b456f94b600160009054906101000a900473ffffffffffffffffffffffffffffffffffffffff1633846040518463ffffffff167c0100000000000000000000000000000000000000000000000000000000028152600401808473ffffffffffffffffffffffffffffffffffffffff1673ffffffffffffffffffffffffffffffffffffffff1681526020018373ffffffffffffffffffffffffffffffffffffffff1673ffffffffffffffffffffffffffffffffffffffff1681526020018260001916600019168152602001935050505060206040518083038186803b158015610eff57600080fd5b505af4158015610f13573d6000803e3d6000fd5b505050506040513d6020811015610f2957600080fd5b81019080805190602001909291905050501515610f4557600080fd5b7f94d7098d83d05e86914e00c8560894ad195f66f921f7967600f63fc059f24fa282604051808273ffffffffffffffffffffffffffffffffffffffff1673ffffffffffffffffffffffffffffffffffffffff16815260200191505060405180910390a1600160009054906101000a900473ffffffffffffffffffffffffffffffffffffffff1673ffffffffffffffffffffffffffffffffffffffff166383920871836040518263ffffffff167c0100000000000000000000000000000000000000000000000000000000028152600401808273ffffffffffffffffffffffffffffffffffffffff1673ffffffffffffffffffffffffffffffffffffffff168152602001915050600060405180830381600087803b15801561106557600080fd5b505af1158015611079573d6000803e3d6000fd5b505050505050565b6060600160009054906101000a900473ffffffffffffffffffffffffffffffffffffffff1673ffffffffffffffffffffffffffffffffffffffff16636c052cd86110ca846111bc565b6040518263ffffffff167c0100000000000000000000000000000000000000000000000000000000028152600401808260001916600019168152602001915050600060405180830381600087803b15801561112457600080fd5b505af1158015611138573d6000803e3d6000fd5b505050506040513d6000823e3d601f19601f82011682018060405250602081101561116257600080fd5b81019080805164010000000081111561117a57600080fd5b8281019050602081018481111561119057600080fd5b81518560208202830111640100000000821117156111ad57600080fd5b50509291905050509050919050565b6000816040518082805190602001908083835b6020831015156111f457805182526020820191506020810190506020830392506111cf565b6001836020036101000a03801982511681845116808217855250505050505090500191505060405180910390209050919050565b6000600160009054906101000a900473ffffffffffffffffffffffffffffffffffffffff1673ffffffffffffffffffffffffffffffffffffffff1663da9c548884846040518363ffffffff167c01000000000000000000000000000000000000000000000000000000000281526004018083600019166000191681526020018273ffffffffffffffffffffffffffffffffffffffff1673ffffffffffffffffffffffffffffffffffffffff16815260200192505050602060405180830381600087803b1580156112f757600080fd5b505af115801561130b573d6000803e3d6000fd5b505050506040513d602081101561132157600080fd5b8101908080519060200190929190505050905092915050565b7f087dfe531c937a5cbe06c1240d8f791b240719b90fd2a4e453a201ce0f00c17660010281565b7f060990aad7751fab616bf14cf6b68ac4c5cdc555f8f06bc9f15ba1b156e81b0b6001026000809054906101000a900473ffffffffffffffffffffffffffffffffffffffff1673ffffffffffffffffffffffffffffffffffffffff163373ffffffffffffffffffffffffffffffffffffffff161480611514575073__DaoBaseLib____________________________63b456f94b600160009054906101000a900473ffffffffffffffffffffffffffffffffffffffff1633846040518463ffffffff167c0100000000000000000000000000000000000000000000000000000000028152600401808473ffffffffffffffffffffffffffffffffffffffff1673ffffffffffffffffffffffffffffffffffffffff1681526020018373ffffffffffffffffffffffffffffffffffffffff1673ffffffffffffffffffffffffffffffffffffffff1681526020018260001916600019168152602001935050505060206040518083038186803b1580156114d857600080fd5b505af41580156114ec573d6000803e3d6000fd5b505050506040513d602081101561150257600080fd5b81019080805190602001909291905050505b151561151f57600080fd5b7fc178ac30ffd2511ba56b6c977bede07734548083934ffb38a1314afad1e3164b83836040518083600019166000191681526020018273ffffffffffffffffffffffffffffffffffffffff1673ffffffffffffffffffffffffffffffffffffffff1681526020019250505060405180910390a1600160009054906101000a900473ffffffffffffffffffffffffffffffffffffffff1673ffffffffffffffffffffffffffffffffffffffff16631176415f84846040518363ffffffff167c01000000000000000000000000000000000000000000000000000000000281526004018083600019166000191681526020018273ffffffffffffffffffffffffffffffffffffffff1673ffffffffffffffffffffffffffffffffffffffff16815260200192505050600060405180830381600087803b15801561165f57600080fd5b505af1158015611673573d6000803e3d6000fd5b50505050505050565b6000600160009054906101000a900473ffffffffffffffffffffffffffffffffffffffff1673ffffffffffffffffffffffffffffffffffffffff1663cb3022ff6116c5856111bc565b846040518363ffffffff167c01000000000000000000000000000000000000000000000000000000000281526004018083600019166000191681526020018273ffffffffffffffffffffffffffffffffffffffff1673ffffffffffffffffffffffffffffffffffffffff16815260200192505050602060405180830381600087803b15801561175357600080fd5b505af1158015611767573d6000803e3d6000fd5b505050506040513d602081101561177d57600080fd5b8101908080519060200190929190505050905092915050565b7f3794eb44dffe1fc69d141df1b355cf30d543d8006634dd7a125d0e5f500b7fb160010281565b7f55c7fa9eebcea37770fd33ec28acf7eacb6ea53052a9e9bc0a98169768578c5f60010281565b600073__DaoBaseLib____________________________63b456f94b600160009054906101000a900473ffffffffffffffffffffffffffffffffffffffff1685856040518463ffffffff167c0100000000000000000000000000000000000000000000000000000000028152600401808473ffffffffffffffffffffffffffffffffffffffff1673ffffffffffffffffffffffffffffffffffffffff1681526020018373ffffffffffffffffffffffffffffffffffffffff1673ffffffffffffffffffffffffffffffffffffffff1681526020018260001916600019168152602001935050505060206040518083038186803b1580156118e357600080fd5b505af41580156118f7573d6000803e3d6000fd5b505050506040513d602081101561190d57600080fd5b8101908080519060200190929190505050905092915050565b7fe003bf3bc29ae37598e0a6b52d6c5d94b0a53e4e52ae40c01a29cdd0e7816b7160010273__DaoBaseLib____________________________63b456f94b600160009054906101000a900473ffffffffffffffffffffffffffffffffffffffff1633846040518463ffffffff167c0100000000000000000000000000000000000000000000000000000000028152600401808473ffffffffffffffffffffffffffffffffffffffff1673ffffffffffffffffffffffffffffffffffffffff1681526020018373ffffffffffffffffffffffffffffffffffffffff1673ffffffffffffffffffffffffffffffffffffffff1681526020018260001916600019168152602001935050505060206040518083038186803b158015611a4757600080fd5b505af4158015611a5b573d6000803e3d6000fd5b505050506040513d6020811015611a7157600080fd5b81019080805190602001909291905050501515611a8d57600080fd5b7f136e1723f30fa9aa37c030a0ae5e8e072c16dffc5b969e5da2a19fc6fd30c325848484604051808473ffffffffffffffffffffffffffffffffffffffff1673ffffffffffffffffffffffffffffffffffffffff1681526020018373ffffffffffffffffffffffffffffffffffffffff1673ffffffffffffffffffffffffffffffffffffffff168152602001828152602001935050505060405180910390a173__DaoBaseLib____________________________63432600eb600160009054906101000a900473ffffffffffffffffffffffffffffffffffffffff168686866040518563ffffffff167c0100000000000000000000000000000000000000000000000000000000028152600401808573ffffffffffffffffffffffffffffffffffffffff1673ffffffffffffffffffffffffffffffffffffffff1681526020018473ffffffffffffffffffffffffffffffffffffffff1673ffffffffffffffffffffffffffffffffffffffff1681526020018373ffffffffffffffffffffffffffffffffffffffff1673ffffffffffffffffffffffffffffffffffffffff16815260200182815260200194505050505060006040518083038186803b158015611c5557600080fd5b505af4158015611c69573d6000803e3d6000fd5b5050505050505050565b7f3a5165e670fb3632ad283cd3622bfca48f4c8202b504a023dafe70df3056707560010281565b7f324cd2c359ecbc6ad92db8d027aab5d643f27c3055619a49702576797bb41fe560010273__DaoBaseLib____________________________63b456f94b600160009054906101000a900473ffffffffffffffffffffffffffffffffffffffff1633846040518463ffffffff167c0100000000000000000000000000000000000000000000000000000000028152600401808473ffffffffffffffffffffffffffffffffffffffff1673ffffffffffffffffffffffffffffffffffffffff1681526020018373ffffffffffffffffffffffffffffffffffffffff1673ffffffffffffffffffffffffffffffffffffffff1681526020018260001916600019168152602001935050505060206040518083038186803b158015611dbb57600080fd5b505af4158015611dcf573d6000803e3d6000fd5b505050506040513d6020811015611de557600080fd5b81019080805190602001909291905050501515611e0157600080fd5b7f4f1b2ec57ac850d2d88d7bfd2216444bc8afc4644dd873311a4b01ef10389a84848484604051808473ffffffffffffffffffffffffffffffffffffffff1673ffffffffffffffffffffffffffffffffffffffff1681526020018373ffffffffffffffffffffffffffffffffffffffff1673ffffffffffffffffffffffffffffffffffffffff168152602001828152602001935050505060405180910390a173__DaoBaseLib____________________________639419fd34600160009054906101000a900473ffffffffffffffffffffffffffffffffffffffff168686866040518563ffffffff167c0100000000000000000000000000000000000000000000000000000000028152600401808573ffffffffffffffffffffffffffffffffffffffff1673ffffffffffffffffffffffffffffffffffffffff1681526020018473ffffffffffffffffffffffffffffffffffffffff1673ffffffffffffffffffffffffffffffffffffffff1681526020018373ffffffffffffffffffffffffffffffffffffffff1673ffffffffffffffffffffffffffffffffffffffff16815260200182815260200194505050505060006040518083038186803b158015611fc957600080fd5b505af4158015611fdd573d6000803e3d6000fd5b5050505050505050565b7fbeaac974e61895532ee7d8efc953d378116d446667765b57f62c791c37b03c8d60010281565b7f060990aad7751fab616bf14cf6b68ac4c5cdc555f8f06bc9f15ba1b156e81b0b60010281565b6000600160009054906101000a900473ffffffffffffffffffffffffffffffffffffffff1673ffffffffffffffffffffffffffffffffffffffff1663601fc832836040518263ffffffff167c010000000000000000000000000000000000000000000000000000000002815260040180828152602001915050602060405180830381600087803b1580156120c857600080fd5b505af11580156120dc573d6000803e3d6000fd5b505050506040513d60208110156120f257600080fd5b81019080805190602001909291905050509050919050565b6000600160009054906101000a900473ffffffffffffffffffffffffffffffffffffffff1673ffffffffffffffffffffffffffffffffffffffff166362ea77966040518163ffffffff167c0100000000000000000000000000000000000000000000000000000000028152600401602060405180830381600087803b15801561219257600080fd5b505af11580156121a6573d6000803e3d6000fd5b505050506040513d60208110156121bc57600080fd5b8101908080519060200190929190505050905090565b7f324cd2c359ecbc6ad92db8d027aab5d643f27c3055619a49702576797bb41fe560010281565b7f2e0b85549a7529dfca5fb20621fe76f393d05d7fc99be4dd3d996c8e1925ba0b60010281565b7f060990aad7751fab616bf14cf6b68ac4c5cdc555f8f06bc9f15ba1b156e81b0b6001026000809054906101000a900473ffffffffffffffffffffffffffffffffffffffff1673ffffffffffffffffffffffffffffffffffffffff163373ffffffffffffffffffffffffffffffffffffffff1614806123d3575073__DaoBaseLib____________________________63b456f94b600160009054906101000a900473ffffffffffffffffffffffffffffffffffffffff1633846040518463ffffffff167c0100000000000000000000000000000000000000000000000000000000028152600401808473ffffffffffffffffffffffffffffffffffffffff1673ffffffffffffffffffffffffffffffffffffffff1681526020018373ffffffffffffffffffffffffffffffffffffffff1673ffffffffffffffffffffffffffffffffffffffff1681526020018260001916600019168152602001935050505060206040518083038186803b15801561239757600080fd5b505af41580156123ab573d6000803e3d6000fd5b505050506040513d60208110156123c157600080fd5b81019080805190602001909291905050505b15156123de57600080fd5b7fb0984b31dce3098c0d0cc88c2c78728eb76b59050bad3ec637c353f9b0e59ff883836040518083600019166000191681526020018273ffffffffffffffffffffffffffffffffffffffff1673ffffffffffffffffffffffffffffffffffffffff1681526020019250505060405180910390a1600160009054906101000a900473ffffffffffffffffffffffffffffffffffffffff1673ffffffffffffffffffffffffffffffffffffffff16636f32491984846040518363ffffffff167c01000000000000000000000000000000000000000000000000000000000281526004018083600019166000191681526020018273ffffffffffffffffffffffffffffffffffffffff1673ffffffffffffffffffffffffffffffffffffffff16815260200192505050600060405180830381600087803b15801561251e57600080fd5b505af1158015612532573d6000803e3d6000fd5b50505050505050565b6000809054906101000a900473ffffffffffffffffffffffffffffffffffffffff1673ffffffffffffffffffffffffffffffffffffffff163373ffffffffffffffffffffffffffffffffffffffff1614151561259657600080fd5b6000809054906101000a900473ffffffffffffffffffffffffffffffffffffffff1673ffffffffffffffffffffffffffffffffffffffff167ff8df31144d9c2f0f6b59d69b8b98abd5459d07f2742c4df920b25aae33c6482060405160405180910390a260008060006101000a81548173ffffffffffffffffffffffffffffffffffffffff021916908373ffffffffffffffffffffffffffffffffffffffff160217905550565b7f060990aad7751fab616bf14cf6b68ac4c5cdc555f8f06bc9f15ba1b156e81b0b6001026000809054906101000a900473ffffffffffffffffffffffffffffffffffffffff1673ffffffffffffffffffffffffffffffffffffffff163373ffffffffffffffffffffffffffffffffffffffff1614806127f0575073__DaoBaseLib____________________________63b456f94b600160009054906101000a900473ffffffffffffffffffffffffffffffffffffffff1633846040518463ffffffff167c0100000000000000000000000000000000000000000000000000000000028152600401808473ffffffffffffffffffffffffffffffffffffffff1673ffffffffffffffffffffffffffffffffffffffff1681526020018373ffffffffffffffffffffffffffffffffffffffff1673ffffffffffffffffffffffffffffffffffffffff1681526020018260001916600019168152602001935050505060206040518083038186803b1580156127b457600080fd5b505af41580156127c8573d6000803e3d6000fd5b505050506040513d60208110156127de57600080fd5b81019080805190602001909291905050505b15156127fb57600080fd5b7f8be0d4c24897b1b44e6e6dde219e6ec06f6276c66db02bededc064f3fc9919c1838360405180836000191660001916815260200180602001828103825283818151815260200191508051906020019080838360005b8381101561286c578082015181840152602081019050612851565b50505050905090810190601f1680156128995780820380516001836020036101000a031916815260200191505b50935050505060405180910390a1600160009054906101000a900473ffffffffffffffffffffffffffffffffffffffff1673ffffffffffffffffffffffffffffffffffffffff16632cdd9cd6846128ef856111bc565b6040518363ffffffff167c0100000000000000000000000000000000000000000000000000000000028152600401808360001916600019168152602001826000191660001916815260200192505050600060405180830381600087803b15801561295857600080fd5b505af115801561296c573d6000803e3d6000fd5b50505050505050565b7ffc685f51f68cb86aa29db19c2a8f4e85183375ba55b5e56fb2e89adc5f5e428560010281565b6000600160009054906101000a900473ffffffffffffffffffffffffffffffffffffffff1673ffffffffffffffffffffffffffffffffffffffff16638b979f51836040518263ffffffff167c010000000000000000000000000000000000000000000000000000000002815260040180828152602001915050602060405180830381600087803b158015612a2f57600080fd5b505af1158015612a43573d6000803e3d6000fd5b505050506040513d6020811015612a5957600080fd5b81019080805190602001909291905050509050919050565b6000809054906101000a900473ffffffffffffffffffffffffffffffffffffffff1681565b7fe003bf3bc29ae37598e0a6b52d6c5d94b0a53e4e52ae40c01a29cdd0e7816b7160010281565b60007f3794eb44dffe1fc69d141df1b355cf30d543d8006634dd7a125d0e5f500b7fb160010273__DaoBaseLib____________________________63b456f94b600160009054906101000a900473ffffffffffffffffffffffffffffffffffffffff1633846040518463ffffffff167c0100000000000000000000000000000000000000000000000000000000028152600401808473ffffffffffffffffffffffffffffffffffffffff1673ffffffffffffffffffffffffffffffffffffffff1681526020018373ffffffffffffffffffffffffffffffffffffffff1673ffffffffffffffffffffffffffffffffffffffff1681526020018260001916600019168152602001935050505060206040518083038186803b158015612be057600080fd5b505af4158015612bf4573d6000803e3d6000fd5b505050506040513d6020811015612c0a57600080fd5b81019080805190602001909291905050501515612c2657600080fd5b7f2d1d7afeaa9cc7364d5437dec30ad5e42d63f942e79facfc7e9b5540407e7df283604051808273ffffffffffffffffffffffffffffffffffffffff1673ffffffffffffffffffffffffffffffffffffffff16815260200191505060405180910390a1600091505b600160009054906101000a900473ffffffffffffffffffffffffffffffffffffffff1673ffffffffffffffffffffffffffffffffffffffff166362ea77966040518163ffffffff167c0100000000000000000000000000000000000000000000000000000000028152600401602060405180830381600087803b158015612d1457600080fd5b505af1158015612d28573d6000803e3d6000fd5b505050506040513d6020811015612d3e57600080fd5b8101908080519060200190929190505050821015612edf57600160009054906101000a900473ffffffffffffffffffffffffffffffffffffffff1673ffffffffffffffffffffffffffffffffffffffff1663601fc832836040518263ffffffff167c010000000000000000000000000000000000000000000000000000000002815260040180828152602001915050602060405180830381600087803b158015612de757600080fd5b505af1158015612dfb573d6000803e3d6000fd5b505050506040513d6020811015612e1157600080fd5b810190808051906020019092919050505073ffffffffffffffffffffffffffffffffffffffff1663fa34c84e846040518263ffffffff167c0100000000000000000000000000000000000000000000000000000000028152600401808273ffffffffffffffffffffffffffffffffffffffff1673ffffffffffffffffffffffffffffffffffffffff168152602001915050600060405180830381600087803b158015612ebc57600080fd5b505af1158015612ed0573d6000803e3d6000fd5b50505050816001019150612c8e565b600160009054906101000a900473ffffffffffffffffffffffffffffffffffffffff1673ffffffffffffffffffffffffffffffffffffffff1663f2fde38b846040518263ffffffff167c0100000000000000000000000000000000000000000000000000000000028152600401808273ffffffffffffffffffffffffffffffffffffffff1673ffffffffffffffffffffffffffffffffffffffff168152602001915050600060405180830381600087803b158015612f9c57600080fd5b505af1158015612fb0573d6000803e3d6000fd5b50505050600091505b600160009054906101000a900473ffffffffffffffffffffffffffffffffffffffff1673ffffffffffffffffffffffffffffffffffffffff16633962f82d6040518163ffffffff167c0100000000000000000000000000000000000000000000000000000000028152600401602060405180830381600087803b15801561303f57600080fd5b505af1158015613053573d6000803e3d6000fd5b505050506040513d602081101561306957600080fd5b810190808051906020019092919050505082101561320a57600160009054906101000a900473ffffffffffffffffffffffffffffffffffffffff1673ffffffffffffffffffffffffffffffffffffffff166397988dce836040518263ffffffff167c010000000000000000000000000000000000000000000000000000000002815260040180828152602001915050602060405180830381600087803b15801561311257600080fd5b505af1158015613126573d6000803e3d6000fd5b505050506040513d602081101561313c57600080fd5b810190808051906020019092919050505073ffffffffffffffffffffffffffffffffffffffff1663f2fde38b846040518263ffffffff167c0100000000000000000000000000000000000000000000000000000000028152600401808273ffffffffffffffffffffffffffffffffffffffff1673ffffffffffffffffffffffffffffffffffffffff168152602001915050600060405180830381600087803b1580156131e757600080fd5b505af11580156131fb573d6000803e3d6000fd5b50505050816001019150612fb9565b505050565b6000600160009054906101000a900473ffffffffffffffffffffffffffffffffffffffff1673ffffffffffffffffffffffffffffffffffffffff166398e527d36040518163ffffffff167c0100000000000000000000000000000000000000000000000000000000028152600401602060405180830381600087803b15801561329757600080fd5b505af11580156132ab573d6000803e3d6000fd5b505050506040513d60208110156132c157600080fd5b8101908080519060200190929190505050905090565b7f060990aad7751fab616bf14cf6b68ac4c5cdc555f8f06bc9f15ba1b156e81b0b6001026000809054906101000a900473ffffffffffffffffffffffffffffffffffffffff1673ffffffffffffffffffffffffffffffffffffffff163373ffffffffffffffffffffffffffffffffffffffff16148061348a575073__DaoBaseLib____________________________63b456f94b600160009054906101000a900473ffffffffffffffffffffffffffffffffffffffff1633846040518463ffffffff167c0100000000000000000000000000000000000000000000000000000000028152600401808473ffffffffffffffffffffffffffffffffffffffff1673ffffffffffffffffffffffffffffffffffffffff1681526020018373ffffffffffffffffffffffffffffffffffffffff1673ffffffffffffffffffffffffffffffffffffffff1681526020018260001916600019168152602001935050505060206040518083038186803b15801561344e57600080fd5b505af4158015613462573d6000803e3d6000fd5b505050506040513d602081101561347857600080fd5b81019080805190602001909291905050505b151561349557600080fd5b7fbb0fd323caa33e6a1b61581c008bed9af26a4e63894653ec9ab44557dc46485783836040518083600019166000191681526020018273ffffffffffffffffffffffffffffffffffffffff1673ffffffffffffffffffffffffffffffffffffffff1681526020019250505060405180910390a1600160009054906101000a900473ffffffffffffffffffffffffffffffffffffffff1673ffffffffffffffffffffffffffffffffffffffff1663a08ce40984846040518363ffffffff167c01000000000000000000000000000000000000000000000000000000000281526004018083600019166000191681526020018273ffffffffffffffffffffffffffffffffffffffff1673ffffffffffffffffffffffffffffffffffffffff16815260200192505050600060405180830381600087803b1580156135d557600080fd5b505af11580156135e9573d6000803e3d6000fd5b50505050505050565b7f060990aad7751fab616bf14cf6b68ac4c5cdc555f8f06bc9f15ba1b156e81b0b6001026000809054906101000a900473ffffffffffffffffffffffffffffffffffffffff1673ffffffffffffffffffffffffffffffffffffffff163373ffffffffffffffffffffffffffffffffffffffff1614806137a5575073__DaoBaseLib____________________________63b456f94b600160009054906101000a900473ffffffffffffffffffffffffffffffffffffffff1633846040518463ffffffff167c0100000000000000000000000000000000000000000000000000000000028152600401808473ffffffffffffffffffffffffffffffffffffffff1673ffffffffffffffffffffffffffffffffffffffff1681526020018373ffffffffffffffffffffffffffffffffffffffff1673ffffffffffffffffffffffffffffffffffffffff1681526020018260001916600019168152602001935050505060206040518083038186803b15801561376957600080fd5b505af415801561377d573d6000803e3d6000fd5b505050506040513d602081101561379357600080fd5b81019080805190602001909291905050505b15156137b057600080fd5b7f0cd9995e4ce9e99fe086709a5ed10105b5a33379a56363b587be270f4aef053c838360405180806020018373ffffffffffffffffffffffffffffffffffffffff1673ffffffffffffffffffffffffffffffffffffffff168152602001828103825284818151815260200191508051906020019080838360005b8381101561384557808201518184015260208101905061382a565b50505050905090810190601f1680156138725780820380516001836020036101000a031916815260200191505b50935050505060405180910390a1600160009054906101000a900473ffffffffffffffffffffffffffffffffffffffff1673ffffffffffffffffffffffffffffffffffffffff1663e1b73c846138c7856111bc565b846040518363ffffffff167c01000000000000000000000000000000000000000000000000000000000281526004018083600019166000191681526020018273ffffffffffffffffffffffffffffffffffffffff1673ffffffffffffffffffffffffffffffffffffffff16815260200192505050600060405180830381600087803b15801561395557600080fd5b505af1158015613969573d6000803e3d6000fd5b50505050505050565b7fa7889b6adda0a2270859e5c6327f82b987d24f5729de85a5746ce28eed9e0d0760010281565b6000600160009054906101000a900473ffffffffffffffffffffffffffffffffffffffff1673ffffffffffffffffffffffffffffffffffffffff16639181f0fc6139e2856111bc565b846040518363ffffffff167c010000000000000000000000000000000000000000000000000000000002815260040180836000191660001916815260200182815260200192505050602060405180830381600087803b158015613a4457600080fd5b505af1158015613a58573d6000803e3d6000fd5b505050506040513d6020811015613a6e57600080fd5b8101908080519060200190929190505050905092915050565b6000600160009054906101000a900473ffffffffffffffffffffffffffffffffffffffff1673ffffffffffffffffffffffffffffffffffffffff16632f24e899613ad0846111bc565b6040518263ffffffff167c0100000000000000000000000000000000000000000000000000000000028152600401808260001916600019168152602001915050602060405180830381600087803b158015613b2a57600080fd5b505af1158015613b3e573d6000803e3d6000fd5b505050506040513d6020811015613b5457600080fd5b81019080805190602001909291905050509050919050565b6000809054906101000a900473ffffffffffffffffffffffffffffffffffffffff1673ffffffffffffffffffffffffffffffffffffffff163373ffffffffffffffffffffffffffffffffffffffff16141515613bc757600080fd5b613bd08161403b565b50565b7f060990aad7751fab616bf14cf6b68ac4c5cdc555f8f06bc9f15ba1b156e81b0b6001026000809054906101000a900473ffffffffffffffffffffffffffffffffffffffff1673ffffffffffffffffffffffffffffffffffffffff163373ffffffffffffffffffffffffffffffffffffffff161480613d86575073__DaoBaseLib____________________________63b456f94b600160009054906101000a900473ffffffffffffffffffffffffffffffffffffffff1633846040518463ffffffff167c0100000000000000000000000000000000000000000000000000000000028152600401808473ffffffffffffffffffffffffffffffffffffffff1673ffffffffffffffffffffffffffffffffffffffff1681526020018373ffffffffffffffffffffffffffffffffffffffff1673ffffffffffffffffffffffffffffffffffffffff1681526020018260001916600019168152602001935050505060206040518083038186803b158015613d4a57600080fd5b505af4158015613d5e573d6000803e3d6000fd5b505050506040513d6020811015613d7457600080fd5b81019080805190602001909291905050505b1515613d9157600080fd5b7fb72d2dea8f3997e2295673f5ad32ffd0542bb161b12a7eddb5ab3152c5813a34838360405180806020018373ffffffffffffffffffffffffffffffffffffffff1673ffffffffffffffffffffffffffffffffffffffff168152602001828103825284818151815260200191508051906020019080838360005b83811015613e26578082015181840152602081019050613e0b565b50505050905090810190601f168015613e535780820380516001836020036101000a031916815260200191505b50935050505060405180910390a160008351111515613e7157600080fd5b600160009054906101000a900473ffffffffffffffffffffffffffffffffffffffff1673ffffffffffffffffffffffffffffffffffffffff1663a99fa3e2613eb8856111bc565b846040518363ffffffff167c01000000000000000000000000000000000000000000000000000000000281526004018083600019166000191681526020018273ffffffffffffffffffffffffffffffffffffffff1673ffffffffffffffffffffffffffffffffffffffff16815260200192505050600060405180830381600087803b158015613f4657600080fd5b505af1158015613f5a573d6000803e3d6000fd5b50505050505050565b600160009054906101000a900473ffffffffffffffffffffffffffffffffffffffff1673ffffffffffffffffffffffffffffffffffffffff1663fb8ec972826040518263ffffffff167c0100000000000000000000000000000000000000000000000000000000028152600401808273ffffffffffffffffffffffffffffffffffffffff1673ffffffffffffffffffffffffffffffffffffffff168152602001915050600060405180830381600087803b15801561402057600080fd5b505af1158015614034573d6000803e3d6000fd5b5050505050565b600073ffffffffffffffffffffffffffffffffffffffff168173ffffffffffffffffffffffffffffffffffffffff161415151561407757600080fd5b8073ffffffffffffffffffffffffffffffffffffffff166000809054906101000a900473ffffffffffffffffffffffffffffffffffffffff1673ffffffffffffffffffffffffffffffffffffffff167f8be0079c531659141344cd1fd0a4f28419497f9722a3daafe3b4186f6b6457e060405160405180910390a3806000806101000a81548173ffffffffffffffffffffffffffffffffffffffff021916908373ffffffffffffffffffffffffffffffffffffffff160217905550505600a165627a7a72305820ba681c05cbc08dec0b72e67f5ca09261957acdf46bfbf25eae09d06204ec23c00029",
  "source": "pragma solidity ^0.4.22;\n\nimport \"./IDaoBase.sol\";\nimport \"./DaoStorage.sol\";\nimport \"./DaoBaseLib.sol\";\n\n\n/**\n * @title DaoBase \n * @dev Main Thetta DAO Framework contract. \n * Usage scenarios:\n * 1) Preferred: become its client (derive your contract from DaoClient contract!)\n * 2) Optional: derive a contract directly from DaoBase  \n * \n */\ncontract DaoBase is IDaoBase, Ownable {\n\tevent DaoBaseUpgradeDaoContract(address _new);\n\tevent DaoBaseAddGroupMember(string _groupName, address _a);\n\tevent DaoBaseRemoveGroupMember(string _groupName, address _a);\n\tevent DaoBaseAllowActionByShareholder(bytes32 _what, address _tokenAddress);\n\tevent DaoBaseAllowActionByVoting(bytes32 _what, address _tokenAddress);\n\tevent DaoBaseAllowActionByAddress(bytes32 _what, address _a);\n\tevent DaoBaseAllowActionByAnyMemberOfGroup(bytes32 _what, string _groupName);\n\tevent DaoBaseAddNewProposal(address _proposal);\n\tevent DaoBaseIssueTokens(address _tokenAddress, address _to, uint _amount);\n\tevent DaoBaseBurnTokens(address _tokenAddress, address _who, uint _amount);\n\n\tDaoStorage daoStorage;\n\n\tmodifier isCanDo(bytes32 _permissionName){\n\t\trequire(DaoBaseLib.isCanDoAction(daoStorage, msg.sender, _permissionName)); \n\t\t_; \n\t}\n\n\tmodifier isCanDoOrByOwner(bytes32 _what) {\n\t\trequire(msg.sender==owner || DaoBaseLib.isCanDoAction(daoStorage, msg.sender, _what));\n\t\t_;\n\t}\n\n\tbytes32 public constant ISSUE_TOKENS = 0xe003bf3bc29ae37598e0a6b52d6c5d94b0a53e4e52ae40c01a29cdd0e7816b71;\n\tbytes32 public constant MANAGE_GROUPS = 0x060990aad7751fab616bf14cf6b68ac4c5cdc555f8f06bc9f15ba1b156e81b0b;\n\tbytes32 public constant ADD_NEW_PROPOSAL = 0x55c7fa9eebcea37770fd33ec28acf7eacb6ea53052a9e9bc0a98169768578c5f;\n\tbytes32 public constant BURN_TOKENS = 0x324cd2c359ecbc6ad92db8d027aab5d643f27c3055619a49702576797bb41fe5;\n\tbytes32 public constant UPGRADE_DAO_CONTRACT = 0x3794eb44dffe1fc69d141df1b355cf30d543d8006634dd7a125d0e5f500b7fb1;\n\tbytes32 public constant REMOVE_GROUP_MEMBER = 0x3a5165e670fb3632ad283cd3622bfca48f4c8202b504a023dafe70df30567075;\n\tbytes32 public constant WITHDRAW_DONATIONS = 0xfc685f51f68cb86aa29db19c2a8f4e85183375ba55b5e56fb2e89adc5f5e4285;\n\tbytes32 public constant ALLOW_ACTION_BY_SHAREHOLDER = 0xbeaac974e61895532ee7d8efc953d378116d446667765b57f62c791c37b03c8d;\n\tbytes32 public constant ALLOW_ACTION_BY_VOTING = 0x2e0b85549a7529dfca5fb20621fe76f393d05d7fc99be4dd3d996c8e1925ba0b;\n\tbytes32 public constant ALLOW_ACTION_BY_ADDRESS = 0x087dfe531c937a5cbe06c1240d8f791b240719b90fd2a4e453a201ce0f00c176;\n\tbytes32 public constant ALLOW_ACTION_BY_ANY_MEMBER_OF_GROUP = 0xa7889b6adda0a2270859e5c6327f82b987d24f5729de85a5746ce28eed9e0d07;\n\n\tconstructor(DaoStorage _daoStorage) public {\n\t\tdaoStorage = _daoStorage;\n\t}\n\n\t/**\n\t* @param _s String which will be converted to hash\n\t* @return hash of provided string \n\t* @dev Hash string\n\t*/\n\tfunction stringHash(string _s) public pure returns(bytes32) {\n\t\treturn keccak256(_s);\n\t}\n\n\t/**\n\t* @return observers amount in storage\n\t*/\n\tfunction getObserversCount() public view returns(uint) {\n\t\treturn daoStorage.getObserversCount();\n\t}\n\n\t/**\n\t* @param _index observer index in storage\n\t* @return address of the observer with provided index\n\t*/\n\tfunction getObserverAtIndex(uint _index) public view returns(address) {\n\t\treturn daoStorage.getObserverAtIndex(_index);\n\t}\t\n\n\t/**\n\t* @param _permissionName permission name in hash\n\t* @param _a address which will be checked for permissions\n\t* @return true if _a address have _permissionName permissions\n\t*/\n\tfunction isCanDoByGroupMember(bytes32 _permissionName, address _a) public view returns(bool) {\n\t\treturn daoStorage.isAllowedActionByMembership(_permissionName, _a);\n\t}\n\n\t/**\n\t* @param _observer observer address\n\t* @dev add observer to storage\n\t*/\n\tfunction addObserver(IDaoObserver _observer) public {\n\t\tdaoStorage.addObserver(_observer);\n\t}\n\n\t/**\n\t* @notice This function should be called only by account with UPGRADE_DAO_CONTRACT permissions\n\t* @param _new new DaoBase instance (address)\n\t* @dev this function upgrades DAO instance\n\t*/\n\tfunction upgradeDaoContract(IDaoBase _new) public isCanDo(UPGRADE_DAO_CONTRACT) {\n\t\temit DaoBaseUpgradeDaoContract(_new); // call observers.onUpgrade() for all observers\t\t\n\t\tfor(uint i=0; i<daoStorage.getObserversCount(); ++i) {\n\t\t\tIDaoObserver(daoStorage.getObserverAtIndex(i)).onUpgrade(_new);\n\t\t}\t\n\t\t\n\t\tdaoStorage.transferOwnership(_new);\n\n\t\tfor(i=0; i<daoStorage.getTokensCount(); ++i) { // transfer ownership of all tokens (this -> _new)\n\t\t\tdaoStorage.getTokenAtIndex(i).transferOwnership(_new);\n\t\t} \n\t}\n\n\t/**\n\t* @param _groupName name of the group in storage\n    * @return amount of the members of the group with name _groupName\n\t*/\n\tfunction getMembersCount(string _groupName) public view returns(uint) {\n\t\treturn daoStorage.getMembersCount(stringHash(_groupName));\n\t}\n\n\t/**\n\t* @notice This function should be called only by account with MANAGE_GROUPS permissions\n\t* @param _groupName name of the group in storage\n\t* @param _a address which will be added to the group with name _groupName\n\t* @dev this function add address _a to group na me with name _groupName into storage\n\t*/\n\tfunction addGroupMember(string _groupName, address _a) public isCanDoOrByOwner(MANAGE_GROUPS) {\n\t\temit DaoBaseAddGroupMember(_groupName, _a);\t\n\t\trequire(bytes(_groupName).length>0);\t\n\t\tdaoStorage.addGroupMember(stringHash(_groupName), _a);\n\t}\n\n\t/**\n\t* @param _groupName name of the group in storage\n    * @return array of addresses which in group name with name _groupName\n\t*/\n\tfunction getGroupMembers(string _groupName) public view returns(address[]) {\n\t\treturn daoStorage.getGroupMembers(stringHash(_groupName));\n\t}\n\n\t/**\n\t* @notice This function should be called only by account with MANAGE_GROUPS permissions\n\t* @param _groupName name of the group in storage\n\t* @param _a address which will be removed from the group with name _groupName\n\t* @dev this function remove address _a from group name with name _groupName in storage\n\t*/\n\tfunction removeGroupMember(string _groupName, address _a) public isCanDoOrByOwner(MANAGE_GROUPS) {\n\t\temit DaoBaseRemoveGroupMember(_groupName, _a);\n\t\tdaoStorage.removeGroupMember(stringHash(_groupName), _a);\n\t}\n\n\t/**\n\t* @param _groupName name of the group in storage\n\t* @param _a address which will be checked on presence in group with name _groupName\n\t* @return true if address _a is in group with name _groupName\n\t*/\n\tfunction isGroupMember(string _groupName, address _a) public view returns(bool) {\n\t\treturn daoStorage.isGroupMember(stringHash(_groupName), _a);\n\t}\n\n\t/**\n\t* @param _groupName name of the group in storage\n\t* @param _index address which will be added to the group with name _groupName\n\t* @return true if address corresponded to _index is group member of group with name _groupName\n\t*/\n\tfunction getMemberByIndex(string _groupName, uint _index) public view returns (address) {\n\t\treturn daoStorage.getGroupsMemberAtIndex(stringHash(_groupName), _index);\n\t}\n\n\t/**\n\t* @notice This function should be called only by account with MANAGE_GROUPS permissions\n\t* @param _permissionName permission name in hash\n\t* @param _tokenAddress address of the token\n\t* @dev this function allows action with name _permissionName for _tokenAddress\n\t*/\n\tfunction allowActionByShareholder(bytes32 _permissionName, address _tokenAddress) public isCanDoOrByOwner(MANAGE_GROUPS) {\n\t\temit DaoBaseAllowActionByShareholder(_permissionName, _tokenAddress);\n\t\tdaoStorage.allowActionByShareholder(_permissionName, _tokenAddress);\n\t}\n\n\t/**\n\t* @notice This function should be called only by account with MANAGE_GROUPS permissions\n\t* @param _permissionName permission name in hash\n\t* @param _tokenAddress address of the token\n\t* @dev this function allows action with name _permissionName for _tokenAddress\n\t*/\n\tfunction allowActionByVoting(bytes32 _permissionName, address _tokenAddress) public isCanDoOrByOwner(MANAGE_GROUPS) {\n\t\temit DaoBaseAllowActionByVoting(_permissionName, _tokenAddress);\n\t\tdaoStorage.allowActionByVoting(_permissionName,_tokenAddress);\n\t}\n\n\t/**\n\t* @notice This function should be called only by account with MANAGE_GROUPS permissions\n\t* @param _permissionName permission name in hash\n\t* @param _a address\n\t* @dev this function allows action with name _permissionName for _tokenAddress\n\t*/\n\tfunction allowActionByAddress(bytes32 _permissionName, address _a) public isCanDoOrByOwner(MANAGE_GROUPS) {\n\t\temit DaoBaseAllowActionByAddress(_permissionName, _a);\n\t\tdaoStorage.allowActionByAddress(_permissionName,_a);\n\t}\n\n\t/**\n\t* @notice This function should be called only by account with MANAGE_GROUPS permissions\n\t* @param _permissionName permission name in hash\n\t* @param _groupName name of the group in storage\n\t* @dev this function allows action with name _permissionName for _tokenAddress\n\t*/\n\tfunction allowActionByAnyMemberOfGroup(bytes32 _permissionName, string _groupName) public isCanDoOrByOwner(MANAGE_GROUPS) {\n\t\temit DaoBaseAllowActionByAnyMemberOfGroup(_permissionName, _groupName);\n\t\tdaoStorage.allowActionByAnyMemberOfGroup(_permissionName, stringHash(_groupName));\n\t}\n\n\t/**\n\t * @dev Function that will check if action is DIRECTLY callable by msg.sender (account or another contract)\n\t * How permissions works now:\n\t * 1. if caller is in the whitelist -> allow\n\t * 2. if caller is in the group and this action can be done by group members -> allow\n\t * 3. if caller is shareholder and this action can be done by a shareholder -> allow\n\t * 4. if this action requires voting \n\t *    a. caller is in the majority -> allow\n\t *    b. caller is voting and it is succeeded -> allow\n\t * 4. deny\n\t*/\n\tfunction isCanDoAction(address _a, bytes32 _permissionNameHash) public view returns(bool) {\n\t\treturn DaoBaseLib.isCanDoAction(daoStorage, _a, _permissionNameHash);\n\t}\n\n\t// Proposals:\n\t/**\n\t* @notice This function should be called only by account with ADD_NEW_PROPOSAL permissions\n\t* @param _proposal address of proposal\n\t* @dev this function adds proposal to storage\n\t*/\n\tfunction addNewProposal(IProposal _proposal) public isCanDo(ADD_NEW_PROPOSAL) { \n\t\temit DaoBaseAddNewProposal(_proposal); \n\t\tdaoStorage.addProposal(_proposal);\n\t}\n\n\t/**\n\t* @param _i index of the proposal in storage\n\t* @return proposal address\n\t*/\n\tfunction getProposalAtIndex(uint _i) public view returns(IProposal) {\n\t\treturn daoStorage.getProposalAtIndex(_i);\n\t}\n\n\t/**\n\t* @return proposals amount in storage\n\t*/\n\tfunction getProposalsCount() public view returns(uint) {\n\t\treturn daoStorage.getProposalsCount();\n\t}\n\n\t// Tokens:\n\t/**\n\t* @notice This function should be called only by account with ISSUE_TOKENS permissions\n\t* @param _tokenAddress address of token\n\t* @param _to address who gets issued tokens\n\t* @param _amount amount of tokens which will be issued\n\t* @dev this function issue tokens for address _to\n\t*/\n\tfunction issueTokens(address _tokenAddress, address _to, uint _amount) public isCanDo(ISSUE_TOKENS) {\n\t\temit DaoBaseIssueTokens(_tokenAddress, _to, _amount);\n\t\tDaoBaseLib.issueTokens(\n\t\t\tdaoStorage,\n\t\t\t_tokenAddress,\n\t\t\t_to,\n\t\t\t_amount\n\t\t);\n\t}\n\n\t/**\n\t* @notice This function should be called only by account with BURN_TOKENS permissions\n\t* @param _tokenAddress address of token\n\t* @param _who address whose tokens will be burned\n\t* @param _amount amount of tokens which will be burned\n\t* @dev this function burn tokens for address _who\n\t*/\n\tfunction burnTokens(address _tokenAddress, address _who, uint _amount) public isCanDo(BURN_TOKENS) {\n\t\temit DaoBaseBurnTokens(_tokenAddress, _who, _amount);\n\t\tDaoBaseLib.burnTokens(\n\t\t\tdaoStorage,\n\t\t\t_tokenAddress, \n\t\t\t_who, \n\t\t\t_amount\n\t\t);\t\n\t}\n}\n",
  "sourcePath": "@thetta/core/contracts/DaoBase.sol",
  "compiler": {
    "name": "solc",
    "version": "0.4.24+commit.e67f0147.Emscripten.clang"
  },
  "schemaVersion": "2.0.1",
  "updatedAt": "2018-10-17T13:14:33.259Z"
}