{
  "contractName": "DevZenDaoAuto",
  "abi": [
    {
      "constant": false,
      "inputs": [
        {
          "name": "_permissionIdHash",
          "type": "bytes32"
        },
        {
          "name": "_votingType",
          "type": "uint256"
        },
        {
          "name": "_param1",
          "type": "bytes32"
        },
        {
          "name": "_param2",
          "type": "bytes32"
        },
        {
          "name": "_param3",
          "type": "bytes32"
        },
        {
          "name": "_param4",
          "type": "bytes32"
        },
        {
          "name": "_param5",
          "type": "bytes32"
        }
      ],
      "name": "setVotingParams",
      "outputs": [],
      "payable": false,
      "stateMutability": "nonpayable",
      "type": "function"
    },
    {
      "constant": false,
      "inputs": [
        {
          "name": "_permissionIdHash",
          "type": "bytes32"
        },
        {
          "name": "_proposal",
          "type": "address"
        },
        {
          "name": "_origin",
          "type": "address"
        }
      ],
      "name": "createVoting",
      "outputs": [
        {
          "name": "",
          "type": "address"
        }
      ],
      "payable": false,
      "stateMutability": "nonpayable",
      "type": "function"
    },
    {
      "constant": false,
      "inputs": [],
      "name": "renounceOwnership",
      "outputs": [],
      "payable": false,
      "stateMutability": "nonpayable",
      "type": "function"
    },
    {
      "constant": true,
      "inputs": [],
      "name": "owner",
      "outputs": [
        {
          "name": "",
          "type": "address"
        }
      ],
      "payable": false,
      "stateMutability": "view",
      "type": "function"
    },
    {
      "constant": false,
      "inputs": [
        {
          "name": "_newOwner",
          "type": "address"
        }
      ],
      "name": "transferOwnership",
      "outputs": [],
      "payable": false,
      "stateMutability": "nonpayable",
      "type": "function"
    },
    {
      "constant": false,
      "inputs": [
        {
          "name": "_newAddress",
          "type": "address"
        }
      ],
      "name": "onUpgrade",
      "outputs": [],
      "payable": false,
      "stateMutability": "nonpayable",
      "type": "function"
    },
    {
      "inputs": [
        {
          "name": "_daoBase",
          "type": "address"
        },
        {
          "name": "_devZenDao",
          "type": "address"
        }
      ],
      "payable": false,
      "stateMutability": "nonpayable",
      "type": "constructor"
    },
    {
      "anonymous": false,
      "inputs": [],
      "name": "UpdateDaoParamsAuto",
      "type": "event"
    },
    {
      "anonymous": false,
      "inputs": [],
      "name": "WithdrawEtherAuto",
      "type": "event"
    },
    {
      "anonymous": false,
      "inputs": [],
      "name": "SelectNextHostAuto",
      "type": "event"
    },
    {
      "anonymous": false,
      "inputs": [],
      "name": "ChangeTheGuestAuto",
      "type": "event"
    },
    {
      "anonymous": false,
      "inputs": [],
      "name": "Emergency_ChangeTheGuestAuto",
      "type": "event"
    },
    {
      "anonymous": false,
      "inputs": [],
      "name": "MoveToNextEpisodeAuto",
      "type": "event"
    },
    {
      "anonymous": false,
      "inputs": [
        {
          "indexed": true,
          "name": "previousOwner",
          "type": "address"
        }
      ],
      "name": "OwnershipRenounced",
      "type": "event"
    },
    {
      "anonymous": false,
      "inputs": [
        {
          "indexed": true,
          "name": "previousOwner",
          "type": "address"
        },
        {
          "indexed": true,
          "name": "newOwner",
          "type": "address"
        }
      ],
      "name": "OwnershipTransferred",
      "type": "event"
    },
    {
      "constant": false,
      "inputs": [
        {
          "name": "_param",
          "type": "bytes32"
        },
        {
          "name": "_value",
          "type": "uint256"
        }
      ],
      "name": "updateDaoParamsAuto",
      "outputs": [
        {
          "name": "proposalOut",
          "type": "address"
        }
      ],
      "payable": false,
      "stateMutability": "nonpayable",
      "type": "function"
    },
    {
      "constant": false,
      "inputs": [
        {
          "name": "_output",
          "type": "address"
        }
      ],
      "name": "withdrawEtherAuto",
      "outputs": [
        {
          "name": "proposalOut",
          "type": "address"
        }
      ],
      "payable": false,
      "stateMutability": "nonpayable",
      "type": "function"
    },
    {
      "constant": false,
      "inputs": [
        {
          "name": "_nextHost",
          "type": "address"
        }
      ],
      "name": "selectNextHostAuto",
      "outputs": [
        {
          "name": "proposalOut",
          "type": "address"
        }
      ],
      "payable": false,
      "stateMutability": "nonpayable",
      "type": "function"
    },
    {
      "constant": false,
      "inputs": [
        {
          "name": "_guest",
          "type": "address"
        }
      ],
      "name": "changeTheGuestAuto",
      "outputs": [
        {
          "name": "proposalOut",
          "type": "address"
        }
      ],
      "payable": false,
      "stateMutability": "nonpayable",
      "type": "function"
    },
    {
      "constant": false,
      "inputs": [
        {
          "name": "_guest",
          "type": "address"
        }
      ],
      "name": "emergency_ChangeTheGuestAuto",
      "outputs": [
        {
          "name": "proposalOut",
          "type": "address"
        }
      ],
      "payable": false,
      "stateMutability": "nonpayable",
      "type": "function"
    },
    {
      "constant": false,
      "inputs": [
        {
          "name": "_guestHasCome",
          "type": "bool"
        }
      ],
      "name": "moveToNextEpisodeAuto",
      "outputs": [
        {
          "name": "proposalOut",
          "type": "address"
        }
      ],
      "payable": false,
      "stateMutability": "nonpayable",
      "type": "function"
    }
  ],
  "bytecode": "0x60806040523480156200001157600080fd5b5060405160408062004b9a83398101806040526200003391908101906200021d565b8180806000806101000a81548173ffffffffffffffffffffffffffffffffffffffff021916908373ffffffffffffffffffffffffffffffffffffffff1602179055506000809054906101000a900473ffffffffffffffffffffffffffffffffffffffff1673ffffffffffffffffffffffffffffffffffffffff1663fb8ec972306040518263ffffffff167c0100000000000000000000000000000000000000000000000000000000028152600401620000ed91906200026f565b600060405180830381600087803b1580156200010857600080fd5b505af11580156200011d573d6000803e3d6000fd5b505050505033600160006101000a81548173ffffffffffffffffffffffffffffffffffffffff021916908373ffffffffffffffffffffffffffffffffffffffff16021790555080600260000160006101000a81548173ffffffffffffffffffffffffffffffffffffffff021916908373ffffffffffffffffffffffffffffffffffffffff1602179055505080600460006101000a81548173ffffffffffffffffffffffffffffffffffffffff021916908373ffffffffffffffffffffffffffffffffffffffff1602179055505050620002e8565b6000620001ff8251620002ac565b905092915050565b6000620002158251620002c0565b905092915050565b600080604083850312156200023157600080fd5b6000620002418582860162000207565b92505060206200025485828601620001f1565b9150509250929050565b6200026981620002d4565b82525050565b60006020820190506200028660008301846200025e565b92915050565b600073ffffffffffffffffffffffffffffffffffffffff82169050919050565b6000620002b9826200028c565b9050919050565b6000620002cd826200028c565b9050919050565b6000620002e1826200028c565b9050919050565b6148a280620002f86000396000f300608060405260043610620000c7576000357c0100000000000000000000000000000000000000000000000000000000900463ffffffff16806322407dfe14620000cc5780633e59915c14620000fa57806341895202146200013e578063460275ca146200018257806352309fc414620001c657806362ed3300146200020a578063715018a6146200024e5780638da5cb5b1462000268578063954255ba1462000298578063bd5ac4bb14620002dc578063f2fde38b1462000320578063fa34c84e146200034e575b600080fd5b348015620000d957600080fd5b50620000f86004803603620000f2919081019062001ecd565b6200037c565b005b3480156200010757600080fd5b5062000126600480360362000120919081019062001d86565b6200047a565b6040516200013591906200211a565b60405180910390f35b3480156200014b57600080fd5b506200016a600480360362000164919081019062001d86565b6200064f565b6040516200017991906200211a565b60405180910390f35b3480156200018f57600080fd5b50620001ae6004803603620001a8919081019062001e8c565b62000824565b604051620001bd91906200211a565b60405180910390f35b348015620001d357600080fd5b50620001f26004803603620001ec919081019062001d86565b62000a34565b6040516200020191906200211a565b60405180910390f35b3480156200021757600080fd5b5062000236600480360362000230919081019062001e36565b62000c30565b604051620002459190620022d6565b60405180910390f35b3480156200025b57600080fd5b506200026662000ced565b005b3480156200027557600080fd5b506200028062000df3565b6040516200028f91906200211a565b60405180910390f35b348015620002a557600080fd5b50620002c46004803603620002be919081019062001d86565b62000e19565b604051620002d391906200211a565b60405180910390f35b348015620002e957600080fd5b5062000308600480360362000302919081019062001db2565b62000fee565b6040516200031791906200211a565b60405180910390f35b3480156200032d57600080fd5b506200034c600480360362000346919081019062001d86565b6200120f565b005b3480156200035b57600080fd5b506200037a600480360362000374919081019062001d86565b6200127a565b005b600160009054906101000a900473ffffffffffffffffffffffffffffffffffffffff1673ffffffffffffffffffffffffffffffffffffffff163373ffffffffffffffffffffffffffffffffffffffff16141515620003d957600080fd5b600273__GenericCallerLib______________________636a36e5ae9091898989898989896040518963ffffffff167c01000000000000000000000000000000000000000000000000000000000281526004016200043f98979695949392919062002340565b60006040518083038186803b1580156200045857600080fd5b505af41580156200046d573d6000803e3d6000fd5b5050505050505050505050565b600060607f08428bbf50c67811bce62b201213da580f3d907e67fac2850f2a291e0abd561a60405160405180910390a16001604051908082528060200260200182016040528015620004db5781602001602082028038833980820191505090505b5090508273ffffffffffffffffffffffffffffffffffffffff166001028160008151811015156200050857fe5b90602001906020020190600019169081600019168152505062000647600460009054906101000a900473ffffffffffffffffffffffffffffffffffffffff1673ffffffffffffffffffffffffffffffffffffffff1663c57521ec6040518163ffffffff167c0100000000000000000000000000000000000000000000000000000000028152600401602060405180830381600087803b158015620005ab57600080fd5b505af1158015620005c0573d6000803e3d6000fd5b505050506040513d601f19601f82011682018060405250620005e6919081019062001e0a565b600460009054906101000a900473ffffffffffffffffffffffffffffffffffffffff16336040805190810160405280602081526020017f6368616e6765546865477565737447656e6572696328627974657333325b5d298152508562001319565b915050919050565b600060607f950f981b7a8795a126adb2c304e97c1e9e8772707ed5613a6f4589ed24bb7da760405160405180910390a16001604051908082528060200260200182016040528015620006b05781602001602082028038833980820191505090505b5090508273ffffffffffffffffffffffffffffffffffffffff16600102816000815181101515620006dd57fe5b9060200190602002019060001916908160001916815250506200081c600460009054906101000a900473ffffffffffffffffffffffffffffffffffffffff1673ffffffffffffffffffffffffffffffffffffffff1663877d45226040518163ffffffff167c0100000000000000000000000000000000000000000000000000000000028152600401602060405180830381600087803b1580156200078057600080fd5b505af115801562000795573d6000803e3d6000fd5b505050506040513d601f19601f82011682018060405250620007bb919081019062001e0a565b600460009054906101000a900473ffffffffffffffffffffffffffffffffffffffff16336040805190810160405280602081526020017f73656c6563744e657874486f737447656e6572696328627974657333325b5d298152508562001319565b915050919050565b600060607f3a98ba3e408f52e41b5cc80c2cfa11c88fdf02b481a6fcb114671a613d594e9e60405160405180910390a16002604051908082528060200260200182016040528015620008855781602001602082028038833980820191505090505b509050838160008151811015156200089957fe5b90602001906020020190600019169081600019168152505082600102816001815181101515620008c557fe5b90602001906020020190600019169081600019168152505062000a2b600460009054906101000a900473ffffffffffffffffffffffffffffffffffffffff1673ffffffffffffffffffffffffffffffffffffffff166361d71edf6040518163ffffffff167c0100000000000000000000000000000000000000000000000000000000028152600401602060405180830381600087803b1580156200096857600080fd5b505af11580156200097d573d6000803e3d6000fd5b505050506040513d601f19601f82011682018060405250620009a3919081019062001e0a565b600460009054906101000a900473ffffffffffffffffffffffffffffffffffffffff1633606060405190810160405280602181526020017f75706461746544616f506172616d7347656e6572696328627974657333325b5d81526020017f29000000000000000000000000000000000000000000000000000000000000008152508562001319565b91505092915050565b600060607f919e18ed1a55df216eabde85117c11077bf53dd9351fa87080cc1325b1330fd160405160405180910390a1600160405190808252806020026020018201604052801562000a955781602001602082028038833980820191505090505b5090508273ffffffffffffffffffffffffffffffffffffffff1660010281600081518110151562000ac257fe5b90602001906020020190600019169081600019168152505062000c28600460009054906101000a900473ffffffffffffffffffffffffffffffffffffffff1673ffffffffffffffffffffffffffffffffffffffff16632fafa7506040518163ffffffff167c0100000000000000000000000000000000000000000000000000000000028152600401602060405180830381600087803b15801562000b6557600080fd5b505af115801562000b7a573d6000803e3d6000fd5b505050506040513d601f19601f8201168201806040525062000ba0919081019062001e0a565b600460009054906101000a900473ffffffffffffffffffffffffffffffffffffffff1633606060405190810160405280602a81526020017f656d657267656e63795f4368616e6765546865477565737447656e657269632881526020017f627974657333325b5d29000000000000000000000000000000000000000000008152508562001319565b915050919050565b6000600273__GenericCallerLib______________________637a94634d90918686866040518563ffffffff167c010000000000000000000000000000000000000000000000000000000002815260040162000c909493929190620022f3565b60206040518083038186803b15801562000ca957600080fd5b505af415801562000cbe573d6000803e3d6000fd5b505050506040513d601f19601f8201168201806040525062000ce4919081019062001f7a565b90509392505050565b600160009054906101000a900473ffffffffffffffffffffffffffffffffffffffff1673ffffffffffffffffffffffffffffffffffffffff163373ffffffffffffffffffffffffffffffffffffffff1614151562000d4a57600080fd5b600160009054906101000a900473ffffffffffffffffffffffffffffffffffffffff1673ffffffffffffffffffffffffffffffffffffffff167ff8df31144d9c2f0f6b59d69b8b98abd5459d07f2742c4df920b25aae33c6482060405160405180910390a26000600160006101000a81548173ffffffffffffffffffffffffffffffffffffffff021916908373ffffffffffffffffffffffffffffffffffffffff160217905550565b600160009054906101000a900473ffffffffffffffffffffffffffffffffffffffff1681565b600060607fa85150c655252132de4bb6a1a1c0e22aa56620b4aadd9529f5ce028d05d19ccb60405160405180910390a1600160405190808252806020026020018201604052801562000e7a5781602001602082028038833980820191505090505b5090508273ffffffffffffffffffffffffffffffffffffffff1660010281600081518110151562000ea757fe5b90602001906020020190600019169081600019168152505062000fe6600460009054906101000a900473ffffffffffffffffffffffffffffffffffffffff1673ffffffffffffffffffffffffffffffffffffffff16639b66e0d66040518163ffffffff167c0100000000000000000000000000000000000000000000000000000000028152600401602060405180830381600087803b15801562000f4a57600080fd5b505af115801562000f5f573d6000803e3d6000fd5b505050506040513d601f19601f8201168201806040525062000f85919081019062001e0a565b600460009054906101000a900473ffffffffffffffffffffffffffffffffffffffff16336040805190810160405280601f81526020017f7769746864726177457468657247656e6572696328627974657333325b5d29008152508562001319565b915050919050565b600060607fae4b954a212279b77b68672cba19a111a01a373ed437274d72c78d29aef28f6c60405160405180910390a160016040519080825280602002602001820160405280156200104f5781602001602082028038833980820191505090505b50905082156200108b57600180028160008151811015156200106d57fe5b906020019060200201906000191690816000191681525050620010b9565b6000600102816000815181101515620010a057fe5b9060200190602002019060001916908160001916815250505b62001207600460009054906101000a900473ffffffffffffffffffffffffffffffffffffffff1673ffffffffffffffffffffffffffffffffffffffff1663aed605636040518163ffffffff167c0100000000000000000000000000000000000000000000000000000000028152600401602060405180830381600087803b1580156200114457600080fd5b505af115801562001159573d6000803e3d6000fd5b505050506040513d601f19601f820116820180604052506200117f919081019062001e0a565b600460009054906101000a900473ffffffffffffffffffffffffffffffffffffffff1633606060405190810160405280602381526020017f6d6f7665546f4e657874457069736f646547656e65726963286279746573333281526020017f5b5d2900000000000000000000000000000000000000000000000000000000008152508562001319565b915050919050565b600160009054906101000a900473ffffffffffffffffffffffffffffffffffffffff1673ffffffffffffffffffffffffffffffffffffffff163373ffffffffffffffffffffffffffffffffffffffff161415156200126c57600080fd5b620012778162001344565b50565b6000809054906101000a900473ffffffffffffffffffffffffffffffffffffffff1673ffffffffffffffffffffffffffffffffffffffff163373ffffffffffffffffffffffffffffffffffffffff16141515620012d657600080fd5b806000806101000a81548173ffffffffffffffffffffffffffffffffffffffff021916908373ffffffffffffffffffffffffffffffffffffffff16021790555050565b60006200133986868686866002620014419095949392919063ffffffff16565b905095945050505050565b600073ffffffffffffffffffffffffffffffffffffffff168173ffffffffffffffffffffffffffffffffffffffff16141515156200138157600080fd5b8073ffffffffffffffffffffffffffffffffffffffff16600160009054906101000a900473ffffffffffffffffffffffffffffffffffffffff1673ffffffffffffffffffffffffffffffffffffffff167f8be0079c531659141344cd1fd0a4f28419497f9722a3daafe3b4186f6b6457e060405160405180910390a380600160006101000a81548173ffffffffffffffffffffffffffffffffffffffff021916908373ffffffffffffffffffffffffffffffffffffffff16021790555050565b60008060008860000160009054906101000a900473ffffffffffffffffffffffffffffffffffffffff1673ffffffffffffffffffffffffffffffffffffffff166322e320f7338a6040518363ffffffff167c0100000000000000000000000000000000000000000000000000000000028152600401620014c392919062002192565b602060405180830381600087803b158015620014de57600080fd5b505af1158015620014f3573d6000803e3d6000fd5b505050506040513d601f19601f8201168201806040525062001519919081019062001dde565b156200169c577faf7ac60c1ed470adc8cedd5d2c4fbb88e51554782c6185525916f902d96d464588888888604051620015569493929190620021bf565b60405180910390a18673ffffffffffffffffffffffffffffffffffffffff16856040518082805190602001908083835b602083101515620015ad578051825260208201915060208101905060208303925062001586565b6001836020036101000a03801982511681845116808217855250505050505090500191505060405180910390207c0100000000000000000000000000000000000000000000000000000000900460208651876040518463ffffffff167c010000000000000000000000000000000000000000000000000000000002815260040180848152602001838152602001828051906020019060200280838360005b83811015620016685780820151818401526020810190506200164b565b5050505090500193505050506000604051808303816000875af19250505015156200169257600080fd5b60009250620018e4565b7f1e42a9597f3605b28ccb0531b435461c613983f16e2aec2a6bfb560e6194707a88888888604051620016d39493929190620021bf565b60405180910390a186868686620016e962001c62565b620016f8949392919062002137565b604051809103906000f08015801562001715573d6000803e3d6000fd5b5091506200172689898489620018f0565b90508173ffffffffffffffffffffffffffffffffffffffff1663c4d07951826040518263ffffffff167c01000000000000000000000000000000000000000000000000000000000281526004016200177f9190620022d6565b600060405180830381600087803b1580156200179a57600080fd5b505af1158015620017af573d6000803e3d6000fd5b505050508860000160009054906101000a900473ffffffffffffffffffffffffffffffffffffffff1673ffffffffffffffffffffffffffffffffffffffff166301ef0468836040518263ffffffff167c01000000000000000000000000000000000000000000000000000000000281526004016200182e919062002213565b600060405180830381600087803b1580156200184957600080fd5b505af11580156200185e573d6000803e3d6000fd5b505050508073ffffffffffffffffffffffffffffffffffffffff1663a589effc6040518163ffffffff167c0100000000000000000000000000000000000000000000000000000000028152600401600060405180830381600087803b158015620018c757600080fd5b505af1158015620018dc573d6000803e3d6000fd5b505050508192505b50509695505050505050565b6000620018fc62001c73565b6000866001016000876000191660001916815260200190815260200160002060c060405190810160405290816000820160009054906101000a900460ff1660048111156200194657fe5b60048111156200195257fe5b8152602001600182015460001916600019168152602001600282015460001916600019168152602001600382015460001916600019168152602001600482015460001916600019168152602001600582015460001916600019168152505091508660000160009054906101000a900473ffffffffffffffffffffffffffffffffffffffff1685858460000151856020015160019004620019f6876040015162001a5c565b8760600151600190048860800151600190048960a001516001900462001a1b62001cc5565b62001a2f9998979695949392919062002230565b604051809103906000f08015801562001a4c573d6000803e3d6000fd5b5090508092505050949350505050565b6060806000806000606060206040519080825280601f01601f19166020018201604052801562001a9b5781602001602082028038833980820191505090505b50945060009350600092505b602083101562001b69578260080260020a876001900402600102915060007f010000000000000000000000000000000000000000000000000000000000000002827effffffffffffffffffffffffffffffffffffffffffffffffffffffffffffff191614151562001b5b5781858581518110151562001b2257fe5b9060200101907effffffffffffffffffffffffffffffffffffffffffffffffffffffffffffff1916908160001a90535083806001019450505b828060010193505062001aa7565b836040519080825280601f01601f19166020018201604052801562001b9d5781602001602082028038833980820191505090505b509050600092505b8383101562001c5557848381518110151562001bbd57fe5b9060200101517f010000000000000000000000000000000000000000000000000000000000000090047f010000000000000000000000000000000000000000000000000000000000000002818481518110151562001c1757fe5b9060200101907effffffffffffffffffffffffffffffffffffffffffffffffffffffffffffff1916908160001a905350828060010193505062001ba5565b8095505050505050919050565b604051610d91806200255d83390190565b60c0604051908101604052806000600481111562001c8d57fe5b815260200160008019168152602001600080191681526020016000801916815260200160008019168152602001600080191681525090565b60405161157b80620032ee83390190565b600062001ce4823562002449565b905092915050565b600062001cfa823562002469565b905092915050565b600062001d10825162002469565b905092915050565b600062001d26823562002475565b905092915050565b600062001d3c825162002475565b905092915050565b600062001d5282356200247f565b905092915050565b600062001d68825162002493565b905092915050565b600062001d7e8235620024a7565b905092915050565b60006020828403121562001d9957600080fd5b600062001da98482850162001cd6565b91505092915050565b60006020828403121562001dc557600080fd5b600062001dd58482850162001cec565b91505092915050565b60006020828403121562001df157600080fd5b600062001e018482850162001d02565b91505092915050565b60006020828403121562001e1d57600080fd5b600062001e2d8482850162001d2e565b91505092915050565b60008060006060848603121562001e4c57600080fd5b600062001e5c8682870162001d18565b935050602062001e6f8682870162001d44565b925050604062001e828682870162001cd6565b9150509250925092565b6000806040838503121562001ea057600080fd5b600062001eb08582860162001d18565b925050602062001ec38582860162001d70565b9150509250929050565b600080600080600080600060e0888a03121562001ee957600080fd5b600062001ef98a828b0162001d18565b975050602062001f0c8a828b0162001d70565b965050604062001f1f8a828b0162001d18565b955050606062001f328a828b0162001d18565b945050608062001f458a828b0162001d18565b93505060a062001f588a828b0162001d18565b92505060c062001f6b8a828b0162001d18565b91505092959891949750929550565b60006020828403121562001f8d57600080fd5b600062001f9d8482850162001d5a565b91505092915050565b62001fb181620023fe565b82525050565b62001fc281620023fe565b82525050565b600062001fd582620023db565b80845260208401935062001fe983620023ce565b60005b828110156200202157620020028683516200202d565b6200200d82620023f1565b915060208601955060018101905062001fec565b50849250505092915050565b62002038816200241e565b82525050565b62002049816200241e565b82525050565b6200205a81620024b1565b82525050565b6200206b81620024c5565b82525050565b6200207c81620024d9565b82525050565b6200208d81620024d9565b82525050565b6200209e81620024ed565b82525050565b620020af8162002501565b82525050565b6000620020c282620023e6565b808452620020d881602086016020860162002515565b620020e3816200254b565b602085010191505092915050565b8082525050565b62002103816200243f565b82525050565b62002114816200243f565b82525050565b600060208201905062002131600083018462001fa6565b92915050565b60006080820190506200214e600083018762001fa6565b6200215d602083018662001fa6565b8181036040830152620021718185620020b5565b9050818103606083015262002187818462001fc8565b905095945050505050565b6000604082019050620021a9600083018562001fa6565b620021b860208301846200202d565b9392505050565b6000608082019050620021d660008301876200202d565b620021e5602083018662001fa6565b620021f4604083018562001fa6565b8181036060830152620022088184620020b5565b905095945050505050565b60006020820190506200222a60008301846200204f565b92915050565b60006101208201905062002248600083018c62002060565b62002257602083018b62002071565b62002266604083018a62001fa6565b620022756060830189620020a4565b620022846080830188620020f8565b81810360a0830152620022988187620020b5565b9050620022a960c0830186620020f8565b620022b860e0830185620020f8565b620022c861010083018462001fa6565b9a9950505050505050505050565b6000602082019050620022ed600083018462002093565b92915050565b60006080820190506200230a6000830187620020f1565b6200231960208301866200203e565b62002328604083018562002082565b62002337606083018462001fb7565b95945050505050565b60006101008201905062002358600083018b620020f1565b62002367602083018a6200203e565b62002376604083018962002109565b6200238560608301886200203e565b6200239460808301876200203e565b620023a360a08301866200203e565b620023b260c08301856200203e565b620023c160e08301846200203e565b9998505050505050505050565b6000602082019050919050565b600081519050919050565b600081519050919050565b6000602082019050919050565b600073ffffffffffffffffffffffffffffffffffffffff82169050919050565b6000819050919050565b60006005821015156200243757fe5b819050919050565b6000819050919050565b600073ffffffffffffffffffffffffffffffffffffffff82169050919050565b60008115159050919050565b6000819050919050565b60006200248c82620023fe565b9050919050565b6000620024a082620023fe565b9050919050565b6000819050919050565b6000620024be82620023fe565b9050919050565b6000620024d282620023fe565b9050919050565b6000620024e682620023fe565b9050919050565b6000620024fa82620023fe565b9050919050565b60006200250e8262002428565b9050919050565b60005b838110156200253557808201518184015260208101905062002518565b8381111562002545576000848401525b50505050565b6000601f19601f8301169050919050560060806040523480156200001157600080fd5b5060405162000d9138038062000d9183398101806040528101908080519060200190929190805190602001909291908051820192919060200180518201929190505050336000806101000a81548173ffffffffffffffffffffffffffffffffffffffff021916908373ffffffffffffffffffffffffffffffffffffffff16021790555083600260006101000a81548173ffffffffffffffffffffffffffffffffffffffff021916908373ffffffffffffffffffffffffffffffffffffffff1602179055508060049080519060200190620000ed92919062000136565b508160039080519060200190620001069291906200018e565b5060008373ffffffffffffffffffffffffffffffffffffffff1614156200012c57600080fd5b5050505062000265565b8280548282559060005260206000209081019282156200017b579160200282015b828111156200017a57825182906000191690559160200191906001019062000157565b5b5090506200018a919062000215565b5090565b828054600181600116156101000203166002900490600052602060002090601f016020900481019282601f10620001d157805160ff191683800117855562000202565b8280016001018555821562000202579182015b8281111562000201578251825591602001919060010190620001e4565b5b5090506200021191906200023d565b5090565b6200023a91905b80821115620002365760008160009055506001016200021c565b5090565b90565b6200026291905b808211156200025e57600081600090555060010162000244565b5090565b90565b610b1c80620002756000396000f30060806040526004361061008e576000357c0100000000000000000000000000000000000000000000000000000000900463ffffffff1680630a7a1c4d146100935780631986d376146100aa5780635e615a6b14610101578063715018a61461016d5780638da5cb5b14610184578063c4d07951146101db578063d9b81c7f1461021e578063f2fde38b146102ae575b600080fd5b34801561009f57600080fd5b506100a86102f1565b005b3480156100b657600080fd5b506100bf6106a1565b604051808273ffffffffffffffffffffffffffffffffffffffff1673ffffffffffffffffffffffffffffffffffffffff16815260200191505060405180910390f35b34801561010d57600080fd5b506101166106cb565b6040518080602001828103825283818151815260200191508051906020019060200280838360005b8381101561015957808201518184015260208101905061013e565b505050509050019250505060405180910390f35b34801561017957600080fd5b50610182610727565b005b34801561019057600080fd5b50610199610829565b604051808273ffffffffffffffffffffffffffffffffffffffff1673ffffffffffffffffffffffffffffffffffffffff16815260200191505060405180910390f35b3480156101e757600080fd5b5061021c600480360381019080803573ffffffffffffffffffffffffffffffffffffffff16906020019092919050505061084e565b005b34801561022a57600080fd5b506102336108ed565b6040518080602001828103825283818151815260200191508051906020019080838360005b83811015610273578082015181840152602081019050610258565b50505050905090810190601f1680156102a05780820380516001836020036101000a031916815260200191505b509250505060405180910390f35b3480156102ba57600080fd5b506102ef600480360381019080803573ffffffffffffffffffffffffffffffffffffffff16906020019092919050505061098f565b005b7fe721b4b727f357fa658ee83e2b2134044ea66a9d14ee353ae197c6e080e99631600160009054906101000a900473ffffffffffffffffffffffffffffffffffffffff16600260009054906101000a900473ffffffffffffffffffffffffffffffffffffffff1660036004604051808573ffffffffffffffffffffffffffffffffffffffff1673ffffffffffffffffffffffffffffffffffffffff1681526020018473ffffffffffffffffffffffffffffffffffffffff1673ffffffffffffffffffffffffffffffffffffffff168152602001806020018060200183810383528581815460018160011615610100020316600290048152602001915080546001816001161561010002031660029004801561044d5780601f106104225761010080835404028352916020019161044d565b820191906000526020600020905b81548152906001019060200180831161043057829003601f168201915b5050838103825284818154815260200191508054801561049057602002820191906000526020600020905b81546000191681526020019060010190808311610478575b5050965050505050505060405180910390a1600160009054906101000a900473ffffffffffffffffffffffffffffffffffffffff1673ffffffffffffffffffffffffffffffffffffffff16600014151561054157600160009054906101000a900473ffffffffffffffffffffffffffffffffffffffff1673ffffffffffffffffffffffffffffffffffffffff163373ffffffffffffffffffffffffffffffffffffffff1614151561054057600080fd5b5b600260009054906101000a900473ffffffffffffffffffffffffffffffffffffffff1673ffffffffffffffffffffffffffffffffffffffff16600360405180828054600181600116156101000203166002900480156105d75780601f106105b55761010080835404028352918201916105d7565b820191906000526020600020905b8154815290600101906020018083116105c3575b505091505060405180910390207c01000000000000000000000000000000000000000000000000000000009004602060048054905060046040518463ffffffff167c010000000000000000000000000000000000000000000000000000000002815260040180848152602001838152602001828054801561067b57602002820191906000526020600020905b81546000191681526020019060010190808311610663575b505093505050506000604051808303816000875af192505050151561069f57600080fd5b565b6000600160009054906101000a900473ffffffffffffffffffffffffffffffffffffffff16905090565b6060600480548060200260200160405190810160405280929190818152602001828054801561071d57602002820191906000526020600020905b81546000191681526020019060010190808311610705575b5050505050905090565b6000809054906101000a900473ffffffffffffffffffffffffffffffffffffffff1673ffffffffffffffffffffffffffffffffffffffff163373ffffffffffffffffffffffffffffffffffffffff1614151561078257600080fd5b6000809054906101000a900473ffffffffffffffffffffffffffffffffffffffff1673ffffffffffffffffffffffffffffffffffffffff167ff8df31144d9c2f0f6b59d69b8b98abd5459d07f2742c4df920b25aae33c6482060405160405180910390a260008060006101000a81548173ffffffffffffffffffffffffffffffffffffffff021916908373ffffffffffffffffffffffffffffffffffffffff160217905550565b6000809054906101000a900473ffffffffffffffffffffffffffffffffffffffff1681565b6000809054906101000a900473ffffffffffffffffffffffffffffffffffffffff1673ffffffffffffffffffffffffffffffffffffffff163373ffffffffffffffffffffffffffffffffffffffff161415156108a957600080fd5b80600160006101000a81548173ffffffffffffffffffffffffffffffffffffffff021916908373ffffffffffffffffffffffffffffffffffffffff16021790555050565b606060038054600181600116156101000203166002900480601f0160208091040260200160405190810160405280929190818152602001828054600181600116156101000203166002900480156109855780601f1061095a57610100808354040283529160200191610985565b820191906000526020600020905b81548152906001019060200180831161096857829003601f168201915b5050505050905090565b6000809054906101000a900473ffffffffffffffffffffffffffffffffffffffff1673ffffffffffffffffffffffffffffffffffffffff163373ffffffffffffffffffffffffffffffffffffffff161415156109ea57600080fd5b6109f3816109f6565b50565b600073ffffffffffffffffffffffffffffffffffffffff168173ffffffffffffffffffffffffffffffffffffffff1614151515610a3257600080fd5b8073ffffffffffffffffffffffffffffffffffffffff166000809054906101000a900473ffffffffffffffffffffffffffffffffffffffff1673ffffffffffffffffffffffffffffffffffffffff167f8be0079c531659141344cd1fd0a4f28419497f9722a3daafe3b4186f6b6457e060405160405180910390a3806000806101000a81548173ffffffffffffffffffffffffffffffffffffffff021916908373ffffffffffffffffffffffffffffffffffffffff160217905550505600a165627a7a7230582080cc990dc1802c289b0bceeaa6698122e10c2d98dade8c350f50e76d5be45f190029608060405234801561001057600080fd5b5060405161157b38038061157b833981018060405281019080805190602001909291908051906020019092919080519060200190929190805190602001909291908051906020019092919080518201929190602001805190602001909291908051906020019092919080519060200190929190505050336000806101000a81548173ffffffffffffffffffffffffffffffffffffffff021916908373ffffffffffffffffffffffffffffffffffffffff160217905550600173__VotingLib_____________________________63f3f98c1c90918b8b8b8b8b8b8b8b8b6040518b63ffffffff167c0100000000000000000000000000000000000000000000000000000000028152600401808b81526020018a73ffffffffffffffffffffffffffffffffffffffff1673ffffffffffffffffffffffffffffffffffffffff1681526020018973ffffffffffffffffffffffffffffffffffffffff1673ffffffffffffffffffffffffffffffffffffffff1681526020018873ffffffffffffffffffffffffffffffffffffffff1673ffffffffffffffffffffffffffffffffffffffff1681526020018760048111156101c457fe5b60ff168152602001868152602001806020018581526020018481526020018373ffffffffffffffffffffffffffffffffffffffff1673ffffffffffffffffffffffffffffffffffffffff168152602001828103825286818151815260200191508051906020019080838360005b8381101561024c578082015181840152602081019050610231565b50505050905090810190601f1680156102795780820380516001836020036101000a031916815260200191505b509b50505050505050505050505060006040518083038186803b15801561029f57600080fd5b505af41580156102b3573d6000803e3d6000fd5b505050505050505050505050506112ac806102cf6000396000f300608060405260043610610107576000357c0100000000000000000000000000000000000000000000000000000000900463ffffffff16806336191cc81461010c5780633edf755314610163578063411891141461018e5780634b9f5c98146101b957806364288d02146101e8578063715018a61461023557806376804a031461024c578063783cec80146102855780637b3529621461031557806381f4b232146103445780638da5cb5b1461035b578063983babb4146103b2578063a589effc146103e1578063c756280e146103f8578063eead6f501461040f578063f0466c7314610466578063f2fde38b146104a9578063f81cbd26146104ec578063fa77967114610517575b600080fd5b34801561011857600080fd5b5061014d600480360381019080803573ffffffffffffffffffffffffffffffffffffffff16906020019092919050505061056e565b6040518082815260200191505060405180910390f35b34801561016f57600080fd5b50610178610654565b6040518082815260200191505060405180910390f35b34801561019a57600080fd5b506101a3610661565b6040518082815260200191505060405180910390f35b3480156101c557600080fd5b506101e6600480360381019080803515159060200190929190505050610711565b005b3480156101f457600080fd5b50610233600480360381019080803573ffffffffffffffffffffffffffffffffffffffff169060200190929190803590602001909291905050506107da565b005b34801561024157600080fd5b5061024a6108a0565b005b34801561025857600080fd5b506102616109a2565b60405180848152602001838152602001828152602001935050505060405180910390f35b34801561029157600080fd5b5061029a610a6f565b6040518080602001828103825283818151815260200191508051906020019080838360005b838110156102da5780820151818401526020810190506102bf565b50505050905090810190601f1680156103075780820380516001836020036101000a031916815260200191505b509250505060405180910390f35b34801561032157600080fd5b5061032a610b14565b604051808215151515815260200191505060405180910390f35b34801561035057600080fd5b50610359610bc4565b005b34801561036757600080fd5b50610370610c3e565b604051808273ffffffffffffffffffffffffffffffffffffffff1673ffffffffffffffffffffffffffffffffffffffff16815260200191505060405180910390f35b3480156103be57600080fd5b506103c7610c63565b604051808215151515815260200191505060405180910390f35b3480156103ed57600080fd5b506103f6610d13565b005b34801561040457600080fd5b5061040d610e01565b005b34801561041b57600080fd5b50610450600480360381019080803573ffffffffffffffffffffffffffffffffffffffff169060200190929190505050610e89565b6040518082815260200191505060405180910390f35b34801561047257600080fd5b506104a7600480360381019080803573ffffffffffffffffffffffffffffffffffffffff169060200190929190505050610f6f565b005b3480156104b557600080fd5b506104ea600480360381019080803573ffffffffffffffffffffffffffffffffffffffff16906020019092919050505061102c565b005b3480156104f857600080fd5b50610501611093565b6040518082815260200191505060405180910390f35b34801561052357600080fd5b50610558600480360381019080803573ffffffffffffffffffffffffffffffffffffffff1690602001909291905050506110a0565b6040518082815260200191505060405180910390f35b6000600173__VotingLib_____________________________63d1069e6d9091846040518363ffffffff167c0100000000000000000000000000000000000000000000000000000000028152600401808381526020018273ffffffffffffffffffffffffffffffffffffffff1673ffffffffffffffffffffffffffffffffffffffff1681526020019250505060206040518083038186803b15801561061257600080fd5b505af4158015610626573d6000803e3d6000fd5b505050506040513d602081101561063c57600080fd5b81019080805190602001909291905050509050919050565b6000600160070154905090565b6000600173__VotingLib_____________________________63526fbbf090916040518263ffffffff167c01000000000000000000000000000000000000000000000000000000000281526004018082815260200191505060206040518083038186803b1580156106d157600080fd5b505af41580156106e5573d6000803e3d6000fd5b505050506040513d60208110156106fb57600080fd5b8101908080519060200190929190505050905090565b600173__VotingLib_____________________________63c80e0eea909133846040518463ffffffff167c0100000000000000000000000000000000000000000000000000000000028152600401808481526020018373ffffffffffffffffffffffffffffffffffffffff1673ffffffffffffffffffffffffffffffffffffffff16815260200182151515158152602001935050505060006040518083038186803b1580156107bf57600080fd5b505af41580156107d3573d6000803e3d6000fd5b5050505050565b600173__VotingLib_____________________________63d5048ea6909184846040518463ffffffff167c0100000000000000000000000000000000000000000000000000000000028152600401808481526020018373ffffffffffffffffffffffffffffffffffffffff1673ffffffffffffffffffffffffffffffffffffffff168152602001828152602001935050505060006040518083038186803b15801561088457600080fd5b505af4158015610898573d6000803e3d6000fd5b505050505050565b6000809054906101000a900473ffffffffffffffffffffffffffffffffffffffff1673ffffffffffffffffffffffffffffffffffffffff163373ffffffffffffffffffffffffffffffffffffffff161415156108fb57600080fd5b6000809054906101000a900473ffffffffffffffffffffffffffffffffffffffff1673ffffffffffffffffffffffffffffffffffffffff167ff8df31144d9c2f0f6b59d69b8b98abd5459d07f2742c4df920b25aae33c6482060405160405180910390a260008060006101000a81548173ffffffffffffffffffffffffffffffffffffffff021916908373ffffffffffffffffffffffffffffffffffffffff160217905550565b6000806000600173__VotingLib_____________________________6380a42c5f90916040518263ffffffff167c01000000000000000000000000000000000000000000000000000000000281526004018082815260200191505060606040518083038186803b158015610a1557600080fd5b505af4158015610a29573d6000803e3d6000fd5b505050506040513d6060811015610a3f57600080fd5b81019080805190602001909291908051906020019092919080519060200190929190505050925092509250909192565b60606001600a018054600181600116156101000203166002900480601f016020809104026020016040519081016040528092919081815260200182805460018160011615610100020316600290048015610b0a5780601f10610adf57610100808354040283529160200191610b0a565b820191906000526020600020905b815481529060010190602001808311610aed57829003601f168201915b5050505050905090565b6000600173__VotingLib_____________________________63af36b26690916040518263ffffffff167c01000000000000000000000000000000000000000000000000000000000281526004018082815260200191505060206040518083038186803b158015610b8457600080fd5b505af4158015610b98573d6000803e3d6000fd5b505050506040513d6020811015610bae57600080fd5b8101908080519060200190929190505050905090565b6000809054906101000a900473ffffffffffffffffffffffffffffffffffffffff1673ffffffffffffffffffffffffffffffffffffffff163373ffffffffffffffffffffffffffffffffffffffff16141515610c1f57600080fd5b60018060040160016101000a81548160ff021916908315150217905550565b6000809054906101000a900473ffffffffffffffffffffffffffffffffffffffff1681565b6000600173__VotingLib_____________________________63cd511bce90916040518263ffffffff167c01000000000000000000000000000000000000000000000000000000000281526004018082815260200191505060206040518083038186803b158015610cd357600080fd5b505af4158015610ce7573d6000803e3d6000fd5b505050506040513d6020811015610cfd57600080fd5b8101908080519060200190929190505050905090565b600173__VotingLib_____________________________63c80e0eea9091600160020160009054906101000a900473ffffffffffffffffffffffffffffffffffffffff1660016040518463ffffffff167c0100000000000000000000000000000000000000000000000000000000028152600401808481526020018373ffffffffffffffffffffffffffffffffffffffff1673ffffffffffffffffffffffffffffffffffffffff16815260200182151515158152602001935050505060006040518083038186803b158015610de757600080fd5b505af4158015610dfb573d6000803e3d6000fd5b50505050565b600173__VotingLib_____________________________633914bef090916040518263ffffffff167c01000000000000000000000000000000000000000000000000000000000281526004018082815260200191505060006040518083038186803b158015610e6f57600080fd5b505af4158015610e83573d6000803e3d6000fd5b50505050565b6000600173__VotingLib_____________________________63d06fb6b29091846040518363ffffffff167c0100000000000000000000000000000000000000000000000000000000028152600401808381526020018273ffffffffffffffffffffffffffffffffffffffff1673ffffffffffffffffffffffffffffffffffffffff1681526020019250505060206040518083038186803b158015610f2d57600080fd5b505af4158015610f41573d6000803e3d6000fd5b505050506040513d6020811015610f5757600080fd5b81019080805190602001909291905050509050919050565b600173__VotingLib_____________________________634464a3559091836040518363ffffffff167c0100000000000000000000000000000000000000000000000000000000028152600401808381526020018273ffffffffffffffffffffffffffffffffffffffff1673ffffffffffffffffffffffffffffffffffffffff1681526020019250505060006040518083038186803b15801561101157600080fd5b505af4158015611025573d6000803e3d6000fd5b5050505050565b6000809054906101000a900473ffffffffffffffffffffffffffffffffffffffff1673ffffffffffffffffffffffffffffffffffffffff163373ffffffffffffffffffffffffffffffffffffffff1614151561108757600080fd5b61109081611186565b50565b6000600160060154905090565b6000600173__VotingLib_____________________________636648bedf9091846040518363ffffffff167c0100000000000000000000000000000000000000000000000000000000028152600401808381526020018273ffffffffffffffffffffffffffffffffffffffff1673ffffffffffffffffffffffffffffffffffffffff1681526020019250505060206040518083038186803b15801561114457600080fd5b505af4158015611158573d6000803e3d6000fd5b505050506040513d602081101561116e57600080fd5b81019080805190602001909291905050509050919050565b600073ffffffffffffffffffffffffffffffffffffffff168173ffffffffffffffffffffffffffffffffffffffff16141515156111c257600080fd5b8073ffffffffffffffffffffffffffffffffffffffff166000809054906101000a900473ffffffffffffffffffffffffffffffffffffffff1673ffffffffffffffffffffffffffffffffffffffff167f8be0079c531659141344cd1fd0a4f28419497f9722a3daafe3b4186f6b6457e060405160405180910390a3806000806101000a81548173ffffffffffffffffffffffffffffffffffffffff021916908373ffffffffffffffffffffffffffffffffffffffff160217905550505600a165627a7a72305820a9e22b32cde845fbeef04ee8fe2ffca6a682f3a0ca2ea7a3046b513951314a020029a265627a7a72305820ecf268c02a8f7e4491c50b46db02bc5d57ede472a4ecae8d8dbca8c9479a9fcf6c6578706572696d656e74616cf50037",
  "source": "pragma solidity ^0.4.24;\r\n// to enable Params passing to constructor and method\r\npragma experimental ABIEncoderV2;\r\n\r\nimport \"@thetta/core/contracts/utils/GenericCaller.sol\";\r\n\r\nimport \"./DevZenDao.sol\";\r\nimport \"./DevZenDaoCore.sol\";\r\nimport \"./DevZenDaoWithUnpackers.sol\";\r\n\r\ncontract DevZenDaoAuto is GenericCaller{\r\n\tevent UpdateDaoParamsAuto();\r\n\tevent WithdrawEtherAuto();\r\n\tevent SelectNextHostAuto();\r\n\tevent ChangeTheGuestAuto();\r\n\tevent Emergency_ChangeTheGuestAuto();\r\n\tevent MoveToNextEpisodeAuto();\r\n\r\n\tDevZenDaoWithUnpackers devZenDao;\r\n\tconstructor(IDaoBase _daoBase, DevZenDaoWithUnpackers _devZenDao) public GenericCaller(_daoBase){\r\n\t\tdevZenDao = _devZenDao;\r\n\t}\r\n\r\n\tfunction updateDaoParamsAuto(bytes32 _param, uint _value) public returns(address proposalOut) {\r\n\t\temit UpdateDaoParamsAuto();\r\n\t\tbytes32[] memory params = new bytes32[](2);\r\n\t\tparams[0] = _param;\r\n\t\tparams[1] = bytes32(_value);\r\n\t\treturn doAction(devZenDao.DEV_ZEN_UPDATE_DAO_PARAMS(), devZenDao, msg.sender, \"updateDaoParamsGeneric(bytes32[])\", params);\r\n\t}\r\n\r\n\tfunction withdrawEtherAuto(address _output) public returns(address proposalOut) {\r\n\t\temit WithdrawEtherAuto();\r\n\t\tbytes32[] memory params = new bytes32[](1);\r\n\t\tparams[0] = bytes32(_output);\r\n\t\treturn doAction(devZenDao.DEV_ZEN_WITHDRAW_ETHER(), devZenDao, msg.sender, \"withdrawEtherGeneric(bytes32[])\", params);\r\n\t}\r\n\r\n\tfunction selectNextHostAuto(address _nextHost) public returns(address proposalOut) {\r\n\t\temit SelectNextHostAuto();\r\n\t\tbytes32[] memory params = new bytes32[](1);\r\n\t\tparams[0] = bytes32(_nextHost);\r\n\t\treturn doAction(devZenDao.DEV_ZEN_SELECT_NEXT_HOST(), devZenDao, msg.sender, \"selectNextHostGeneric(bytes32[])\", params);\r\n\t}\r\n\r\n\tfunction changeTheGuestAuto(address _guest) public returns(address proposalOut) {\r\n\t\temit ChangeTheGuestAuto();\r\n\t\tbytes32[] memory params = new bytes32[](1);\r\n\t\tparams[0] = bytes32(_guest);\r\n\t\treturn doAction(devZenDao.DEV_ZEN_CHANGE_GUEST(), devZenDao, msg.sender, \"changeTheGuestGeneric(bytes32[])\", params);\r\n\t}\r\n\r\n\tfunction emergency_ChangeTheGuestAuto(address _guest) public returns(address proposalOut) {\r\n\t\temit Emergency_ChangeTheGuestAuto();\r\n\t\tbytes32[] memory params = new bytes32[](1);\r\n\t\tparams[0] = bytes32(_guest);\r\n\t\treturn doAction(devZenDao.DEV_ZEN_EMERGENCY_CHANGE_GUEST(), devZenDao, msg.sender, \"emergency_ChangeTheGuestGeneric(bytes32[])\", params);\r\n\t}\r\n\r\n\tfunction moveToNextEpisodeAuto(bool _guestHasCome) public returns(address proposalOut) {\r\n\t\temit MoveToNextEpisodeAuto();\r\n\t\tbytes32[] memory params = new bytes32[](1);\r\n\t\tif(_guestHasCome){\r\n\t\t\tparams[0] = bytes32(1);\r\n\t\t}else{\r\n\t\t\tparams[0] = bytes32(0);\r\n\t\t}\r\n\t\treturn doAction(devZenDao.DEV_ZEN_MOVE_TO_NEXT_EPISODE(), devZenDao, msg.sender, \"moveToNextEpisodeGeneric(bytes32[])\", params);\r\n\t}\r\n\r\n}\r\n",
  "sourcePath": "C:\\Projects\\DAO-Templates\\contracts\\3-DevZenDao\\DevZenDaoAuto.sol",
  "compiler": {
    "name": "solc",
    "version": "0.4.24+commit.e67f0147.Emscripten.clang"
  },
  "schemaVersion": "2.0.1",
  "updatedAt": "2018-10-15T10:54:28.157Z"
}