{
  "contractName": "DevZenDaoAuto",
  "abi": [
    {
      "constant": false,
      "inputs": [
        {
          "name": "_what",
          "type": "bytes32"
        },
        {
          "name": "_tokenAddress",
          "type": "address"
        }
      ],
      "name": "allowActionByShareholderAuto",
      "outputs": [
        {
          "name": "proposalOut",
          "type": "address"
        }
      ],
      "payable": false,
      "stateMutability": "nonpayable",
      "type": "function"
    },
    {
      "constant": false,
      "inputs": [
        {
          "name": "_permissionIdHash",
          "type": "bytes32"
        },
        {
          "name": "_votingType",
          "type": "uint256"
        },
        {
          "name": "_param1",
          "type": "bytes32"
        },
        {
          "name": "_param2",
          "type": "bytes32"
        },
        {
          "name": "_param3",
          "type": "bytes32"
        },
        {
          "name": "_param4",
          "type": "bytes32"
        },
        {
          "name": "_param5",
          "type": "bytes32"
        }
      ],
      "name": "setVotingParams",
      "outputs": [],
      "payable": false,
      "stateMutability": "nonpayable",
      "type": "function"
    },
    {
      "constant": false,
      "inputs": [
        {
          "name": "_what",
          "type": "bytes32"
        },
        {
          "name": "_groupName",
          "type": "string"
        }
      ],
      "name": "allowActionByAnyMemberOfGroupAuto",
      "outputs": [
        {
          "name": "proposalOut",
          "type": "address"
        }
      ],
      "payable": false,
      "stateMutability": "nonpayable",
      "type": "function"
    },
    {
      "constant": false,
      "inputs": [
        {
          "name": "_what",
          "type": "bytes32"
        },
        {
          "name": "_tokenAddress",
          "type": "address"
        }
      ],
      "name": "allowActionByVotingAuto",
      "outputs": [
        {
          "name": "proposalOut",
          "type": "address"
        }
      ],
      "payable": false,
      "stateMutability": "nonpayable",
      "type": "function"
    },
    {
      "constant": false,
      "inputs": [
        {
          "name": "_what",
          "type": "bytes32"
        },
        {
          "name": "_a",
          "type": "address"
        }
      ],
      "name": "allowActionByAddressAuto",
      "outputs": [
        {
          "name": "proposalOut",
          "type": "address"
        }
      ],
      "payable": false,
      "stateMutability": "nonpayable",
      "type": "function"
    },
    {
      "constant": false,
      "inputs": [
        {
          "name": "_permissionIdHash",
          "type": "bytes32"
        },
        {
          "name": "_proposal",
          "type": "address"
        },
        {
          "name": "_origin",
          "type": "address"
        }
      ],
      "name": "createVoting",
      "outputs": [
        {
          "name": "",
          "type": "address"
        }
      ],
      "payable": false,
      "stateMutability": "nonpayable",
      "type": "function"
    },
    {
      "constant": false,
      "inputs": [],
      "name": "renounceOwnership",
      "outputs": [],
      "payable": false,
      "stateMutability": "nonpayable",
      "type": "function"
    },
    {
      "constant": false,
      "inputs": [
        {
          "name": "_newMc",
          "type": "address"
        }
      ],
      "name": "upgradeDaoContractAuto",
      "outputs": [
        {
          "name": "proposalOut",
          "type": "address"
        }
      ],
      "payable": false,
      "stateMutability": "nonpayable",
      "type": "function"
    },
    {
      "constant": true,
      "inputs": [],
      "name": "owner",
      "outputs": [
        {
          "name": "",
          "type": "address"
        }
      ],
      "payable": false,
      "stateMutability": "view",
      "type": "function"
    },
    {
      "constant": false,
      "inputs": [
        {
          "name": "_group",
          "type": "string"
        },
        {
          "name": "_a",
          "type": "address"
        }
      ],
      "name": "addGroupMemberAuto",
      "outputs": [
        {
          "name": "proposalOut",
          "type": "address"
        }
      ],
      "payable": false,
      "stateMutability": "nonpayable",
      "type": "function"
    },
    {
      "constant": false,
      "inputs": [
        {
          "name": "_token",
          "type": "address"
        },
        {
          "name": "_to",
          "type": "address"
        },
        {
          "name": "_amount",
          "type": "uint256"
        }
      ],
      "name": "issueTokensAuto",
      "outputs": [
        {
          "name": "proposalOut",
          "type": "address"
        }
      ],
      "payable": false,
      "stateMutability": "nonpayable",
      "type": "function"
    },
    {
      "constant": false,
      "inputs": [
        {
          "name": "_groupName",
          "type": "string"
        },
        {
          "name": "_a",
          "type": "address"
        }
      ],
      "name": "removeGroupMemberAuto",
      "outputs": [
        {
          "name": "proposalOut",
          "type": "address"
        }
      ],
      "payable": false,
      "stateMutability": "nonpayable",
      "type": "function"
    },
    {
      "constant": false,
      "inputs": [
        {
          "name": "_newOwner",
          "type": "address"
        }
      ],
      "name": "transferOwnership",
      "outputs": [],
      "payable": false,
      "stateMutability": "nonpayable",
      "type": "function"
    },
    {
      "constant": false,
      "inputs": [
        {
          "name": "_newAddress",
          "type": "address"
        }
      ],
      "name": "onUpgrade",
      "outputs": [],
      "payable": false,
      "stateMutability": "nonpayable",
      "type": "function"
    },
    {
      "inputs": [
        {
          "name": "_daoBase",
          "type": "address"
        },
        {
          "name": "_devZenDao",
          "type": "address"
        }
      ],
      "payable": false,
      "stateMutability": "nonpayable",
      "type": "constructor"
    },
    {
      "anonymous": false,
      "inputs": [],
      "name": "UpdateDaoParamsAuto",
      "type": "event"
    },
    {
      "anonymous": false,
      "inputs": [],
      "name": "WithdrawEtherAuto",
      "type": "event"
    },
    {
      "anonymous": false,
      "inputs": [],
      "name": "SelectNextHostAuto",
      "type": "event"
    },
    {
      "anonymous": false,
      "inputs": [],
      "name": "ChangeTheGuestAuto",
      "type": "event"
    },
    {
      "anonymous": false,
      "inputs": [],
      "name": "Emergency_ChangeTheGuestAuto",
      "type": "event"
    },
    {
      "anonymous": false,
      "inputs": [],
      "name": "MoveToNextEpisodeAuto",
      "type": "event"
    },
    {
      "anonymous": false,
      "inputs": [
        {
          "indexed": true,
          "name": "previousOwner",
          "type": "address"
        }
      ],
      "name": "OwnershipRenounced",
      "type": "event"
    },
    {
      "anonymous": false,
      "inputs": [
        {
          "indexed": true,
          "name": "previousOwner",
          "type": "address"
        },
        {
          "indexed": true,
          "name": "newOwner",
          "type": "address"
        }
      ],
      "name": "OwnershipTransferred",
      "type": "event"
    },
    {
      "constant": false,
      "inputs": [
        {
          "name": "_param",
          "type": "bytes32"
        },
        {
          "name": "_value",
          "type": "uint256"
        }
      ],
      "name": "updateDaoParamsAuto",
      "outputs": [
        {
          "name": "proposalOut",
          "type": "address"
        }
      ],
      "payable": false,
      "stateMutability": "nonpayable",
      "type": "function"
    },
    {
      "constant": false,
      "inputs": [
        {
          "name": "_output",
          "type": "address"
        }
      ],
      "name": "withdrawEtherAuto",
      "outputs": [
        {
          "name": "proposalOut",
          "type": "address"
        }
      ],
      "payable": false,
      "stateMutability": "nonpayable",
      "type": "function"
    },
    {
      "constant": false,
      "inputs": [
        {
          "name": "_nextHost",
          "type": "address"
        }
      ],
      "name": "selectNextHostAuto",
      "outputs": [
        {
          "name": "proposalOut",
          "type": "address"
        }
      ],
      "payable": false,
      "stateMutability": "nonpayable",
      "type": "function"
    },
    {
      "constant": false,
      "inputs": [
        {
          "name": "_guest",
          "type": "address"
        }
      ],
      "name": "changeTheGuestAuto",
      "outputs": [
        {
          "name": "proposalOut",
          "type": "address"
        }
      ],
      "payable": false,
      "stateMutability": "nonpayable",
      "type": "function"
    },
    {
      "constant": false,
      "inputs": [
        {
          "name": "_guest",
          "type": "address"
        }
      ],
      "name": "emergency_ChangeTheGuestAuto",
      "outputs": [
        {
          "name": "proposalOut",
          "type": "address"
        }
      ],
      "payable": false,
      "stateMutability": "nonpayable",
      "type": "function"
    },
    {
      "constant": false,
      "inputs": [
        {
          "name": "_guestHasCome",
          "type": "bool"
        }
      ],
      "name": "moveToNextEpisodeAuto",
      "outputs": [
        {
          "name": "proposalOut",
          "type": "address"
        }
      ],
      "payable": false,
      "stateMutability": "nonpayable",
      "type": "function"
    }
  ],
  "bytecode": "0x60806040523480156200001157600080fd5b50604051604080620061fc83398101806040526200003391908101906200021f565b818080806000806101000a81548173ffffffffffffffffffffffffffffffffffffffff021916908373ffffffffffffffffffffffffffffffffffffffff1602179055506000809054906101000a900473ffffffffffffffffffffffffffffffffffffffff1673ffffffffffffffffffffffffffffffffffffffff1663fb8ec972306040518263ffffffff167c0100000000000000000000000000000000000000000000000000000000028152600401620000ee919062000271565b600060405180830381600087803b1580156200010957600080fd5b505af11580156200011e573d6000803e3d6000fd5b505050505033600160006101000a81548173ffffffffffffffffffffffffffffffffffffffff021916908373ffffffffffffffffffffffffffffffffffffffff16021790555080600260000160006101000a81548173ffffffffffffffffffffffffffffffffffffffff021916908373ffffffffffffffffffffffffffffffffffffffff160217905550505080600460006101000a81548173ffffffffffffffffffffffffffffffffffffffff021916908373ffffffffffffffffffffffffffffffffffffffff1602179055505050620002ea565b6000620002018251620002ae565b905092915050565b6000620002178251620002c2565b905092915050565b600080604083850312156200023357600080fd5b6000620002438582860162000209565b92505060206200025685828601620001f3565b9150509250929050565b6200026b81620002d6565b82525050565b600060208201905062000288600083018462000260565b92915050565b600073ffffffffffffffffffffffffffffffffffffffff82169050919050565b6000620002bb826200028e565b9050919050565b6000620002cf826200028e565b9050919050565b6000620002e3826200028e565b9050919050565b615f0280620002fa6000396000f30060806040526004361062000127576000357c0100000000000000000000000000000000000000000000000000000000900463ffffffff1680630684cc87146200012c57806322407dfe146200017057806333be7454146200019e5780633e59915c14620001e257806341895202146200022657806343c13edd146200026a578063460275ca14620002ae57806352309fc414620002f2578063607fdd65146200033657806362ed3300146200037a578063715018a614620003be5780637ad5bded14620003d85780638da5cb5b146200041c578063954255ba146200044c5780639674c7e41462000490578063bd5ac4bb14620004d4578063c3463f461462000518578063ce8d1073146200055c578063f2fde38b14620005a0578063fa34c84e14620005ce575b600080fd5b3480156200013957600080fd5b50620001586004803603620001529190810190620032d7565b620005fc565b604051620001679190620036ec565b60405180910390f35b3480156200017d57600080fd5b506200019c600480360362000196919081019062003409565b620007f4565b005b348015620001ab57600080fd5b50620001ca6004803603620001c491908101906200336e565b620008f2565b604051620001d99190620036ec565b60405180910390f35b348015620001ef57600080fd5b506200020e6004803603620002089190810190620031d1565b62000b79565b6040516200021d9190620036ec565b60405180910390f35b3480156200023357600080fd5b506200025260048036036200024c9190810190620031d1565b62000d4e565b604051620002619190620036ec565b60405180910390f35b3480156200027757600080fd5b50620002966004803603620002909190810190620032d7565b62000f23565b604051620002a59190620036ec565b60405180910390f35b348015620002bb57600080fd5b50620002da6004803603620002d49190810190620033c8565b6200111b565b604051620002e99190620036ec565b60405180910390f35b348015620002ff57600080fd5b506200031e6004803603620003189190810190620031d1565b6200132b565b6040516200032d9190620036ec565b60405180910390f35b3480156200034357600080fd5b506200036260048036036200035c9190810190620032d7565b62001527565b604051620003719190620036ec565b60405180910390f35b3480156200038757600080fd5b50620003a66004803603620003a0919081019062003318565b6200171f565b604051620003b59190620038a8565b60405180910390f35b348015620003cb57600080fd5b50620003d6620017dc565b005b348015620003e557600080fd5b50620004046004803603620003fe9190810190620031d1565b620018e2565b604051620004139190620036ec565b60405180910390f35b3480156200042957600080fd5b506200043462001ab0565b604051620004439190620036ec565b60405180910390f35b3480156200045957600080fd5b50620004786004803603620004729190810190620031d1565b62001ad6565b604051620004879190620036ec565b60405180910390f35b3480156200049d57600080fd5b50620004bc6004803603620004b69190810190620034e2565b62001cab565b604051620004cb9190620036ec565b60405180910390f35b348015620004e157600080fd5b50620005006004803603620004fa919081019062003253565b62001f24565b6040516200050f9190620036ec565b60405180910390f35b3480156200052557600080fd5b506200054460048036036200053e9190810190620031fd565b62002145565b604051620005539190620036ec565b60405180910390f35b3480156200056957600080fd5b50620005886004803603620005829190810190620034e2565b6200235c565b604051620005979190620036ec565b60405180910390f35b348015620005ad57600080fd5b50620005cc6004803603620005c69190810190620031d1565b620025fc565b005b348015620005db57600080fd5b50620005fa6004803603620005f49190810190620031d1565b62002667565b005b600060606002604051908082528060200260200182016040528015620006315781602001602082028038833980820191505090505b509050838160008151811015156200064557fe5b9060200190602002019060001916908160001916815250508273ffffffffffffffffffffffffffffffffffffffff166001028160018151811015156200068757fe5b906020019060200201906000191690816000191681525050620007eb6000809054906101000a900473ffffffffffffffffffffffffffffffffffffffff1673ffffffffffffffffffffffffffffffffffffffff1663589742986040518163ffffffff167c0100000000000000000000000000000000000000000000000000000000028152600401602060405180830381600087803b1580156200072957600080fd5b505af11580156200073e573d6000803e3d6000fd5b505050506040513d601f19601f82011682018060405250620007649190810190620032ab565b6000809054906101000a900473ffffffffffffffffffffffffffffffffffffffff1633606060405190810160405280602a81526020017f616c6c6f77416374696f6e42795368617265686f6c64657247656e657269632881526020017f627974657333325b5d29000000000000000000000000000000000000000000008152508562002706565b91505092915050565b600160009054906101000a900473ffffffffffffffffffffffffffffffffffffffff1673ffffffffffffffffffffffffffffffffffffffff163373ffffffffffffffffffffffffffffffffffffffff161415156200085157600080fd5b600273__GenericCallerLib______________________636a36e5ae9091898989898989896040518963ffffffff167c0100000000000000000000000000000000000000000000000000000000028152600401620008b798979695949392919062003936565b60006040518083038186803b158015620008d057600080fd5b505af4158015620008e5573d6000803e3d6000fd5b5050505050505050505050565b600060606002604051908082528060200260200182016040528015620009275781602001602082028038833980820191505090505b509050838160008151811015156200093b57fe5b90602001906020020190600019169081600019168152505073__UtilsLib______________________________63cfb51928846040518263ffffffff167c0100000000000000000000000000000000000000000000000000000000028152600401620009a89190620038c5565b60206040518083038186803b158015620009c157600080fd5b505af4158015620009d6573d6000803e3d6000fd5b505050506040513d601f19601f82011682018060405250620009fc9190810190620032ab565b81600181518110151562000a0c57fe5b90602001906020020190600019169081600019168152505062000b706000809054906101000a900473ffffffffffffffffffffffffffffffffffffffff1673ffffffffffffffffffffffffffffffffffffffff1663a9759dfc6040518163ffffffff167c0100000000000000000000000000000000000000000000000000000000028152600401602060405180830381600087803b15801562000aae57600080fd5b505af115801562000ac3573d6000803e3d6000fd5b505050506040513d601f19601f8201168201806040525062000ae99190810190620032ab565b6000809054906101000a900473ffffffffffffffffffffffffffffffffffffffff1633606060405190810160405280602f81526020017f616c6c6f77416374696f6e4279416e794d656d6265724f6647726f757047656e81526020017f6572696328627974657333325b5d2900000000000000000000000000000000008152508562002706565b91505092915050565b600060607f08428bbf50c67811bce62b201213da580f3d907e67fac2850f2a291e0abd561a60405160405180910390a1600160405190808252806020026020018201604052801562000bda5781602001602082028038833980820191505090505b5090508273ffffffffffffffffffffffffffffffffffffffff1660010281600081518110151562000c0757fe5b90602001906020020190600019169081600019168152505062000d46600460009054906101000a900473ffffffffffffffffffffffffffffffffffffffff1673ffffffffffffffffffffffffffffffffffffffff1663c57521ec6040518163ffffffff167c0100000000000000000000000000000000000000000000000000000000028152600401602060405180830381600087803b15801562000caa57600080fd5b505af115801562000cbf573d6000803e3d6000fd5b505050506040513d601f19601f8201168201806040525062000ce59190810190620032ab565b600460009054906101000a900473ffffffffffffffffffffffffffffffffffffffff16336040805190810160405280602081526020017f6368616e6765546865477565737447656e6572696328627974657333325b5d298152508562002706565b915050919050565b600060607f950f981b7a8795a126adb2c304e97c1e9e8772707ed5613a6f4589ed24bb7da760405160405180910390a1600160405190808252806020026020018201604052801562000daf5781602001602082028038833980820191505090505b5090508273ffffffffffffffffffffffffffffffffffffffff1660010281600081518110151562000ddc57fe5b90602001906020020190600019169081600019168152505062000f1b600460009054906101000a900473ffffffffffffffffffffffffffffffffffffffff1673ffffffffffffffffffffffffffffffffffffffff1663877d45226040518163ffffffff167c0100000000000000000000000000000000000000000000000000000000028152600401602060405180830381600087803b15801562000e7f57600080fd5b505af115801562000e94573d6000803e3d6000fd5b505050506040513d601f19601f8201168201806040525062000eba9190810190620032ab565b600460009054906101000a900473ffffffffffffffffffffffffffffffffffffffff16336040805190810160405280602081526020017f73656c6563744e657874486f737447656e6572696328627974657333325b5d298152508562002706565b915050919050565b60006060600260405190808252806020026020018201604052801562000f585781602001602082028038833980820191505090505b5090508381600081518110151562000f6c57fe5b9060200190602002019060001916908160001916815250508273ffffffffffffffffffffffffffffffffffffffff1660010281600181518110151562000fae57fe5b906020019060200201906000191690816000191681525050620011126000809054906101000a900473ffffffffffffffffffffffffffffffffffffffff1673ffffffffffffffffffffffffffffffffffffffff1663679f06816040518163ffffffff167c0100000000000000000000000000000000000000000000000000000000028152600401602060405180830381600087803b1580156200105057600080fd5b505af115801562001065573d6000803e3d6000fd5b505050506040513d601f19601f820116820180604052506200108b9190810190620032ab565b6000809054906101000a900473ffffffffffffffffffffffffffffffffffffffff1633606060405190810160405280602581526020017f616c6c6f77416374696f6e4279566f74696e6747656e6572696328627974657381526020017f33325b5d290000000000000000000000000000000000000000000000000000008152508562002706565b91505092915050565b600060607f3a98ba3e408f52e41b5cc80c2cfa11c88fdf02b481a6fcb114671a613d594e9e60405160405180910390a160026040519080825280602002602001820160405280156200117c5781602001602082028038833980820191505090505b509050838160008151811015156200119057fe5b90602001906020020190600019169081600019168152505082600102816001815181101515620011bc57fe5b90602001906020020190600019169081600019168152505062001322600460009054906101000a900473ffffffffffffffffffffffffffffffffffffffff1673ffffffffffffffffffffffffffffffffffffffff166361d71edf6040518163ffffffff167c0100000000000000000000000000000000000000000000000000000000028152600401602060405180830381600087803b1580156200125f57600080fd5b505af115801562001274573d6000803e3d6000fd5b505050506040513d601f19601f820116820180604052506200129a9190810190620032ab565b600460009054906101000a900473ffffffffffffffffffffffffffffffffffffffff1633606060405190810160405280602181526020017f75706461746544616f506172616d7347656e6572696328627974657333325b5d81526020017f29000000000000000000000000000000000000000000000000000000000000008152508562002706565b91505092915050565b600060607f919e18ed1a55df216eabde85117c11077bf53dd9351fa87080cc1325b1330fd160405160405180910390a160016040519080825280602002602001820160405280156200138c5781602001602082028038833980820191505090505b5090508273ffffffffffffffffffffffffffffffffffffffff16600102816000815181101515620013b957fe5b9060200190602002019060001916908160001916815250506200151f600460009054906101000a900473ffffffffffffffffffffffffffffffffffffffff1673ffffffffffffffffffffffffffffffffffffffff16632fafa7506040518163ffffffff167c0100000000000000000000000000000000000000000000000000000000028152600401602060405180830381600087803b1580156200145c57600080fd5b505af115801562001471573d6000803e3d6000fd5b505050506040513d601f19601f82011682018060405250620014979190810190620032ab565b600460009054906101000a900473ffffffffffffffffffffffffffffffffffffffff1633606060405190810160405280602a81526020017f656d657267656e63795f4368616e6765546865477565737447656e657269632881526020017f627974657333325b5d29000000000000000000000000000000000000000000008152508562002706565b915050919050565b6000606060026040519080825280602002602001820160405280156200155c5781602001602082028038833980820191505090505b509050838160008151811015156200157057fe5b9060200190602002019060001916908160001916815250508273ffffffffffffffffffffffffffffffffffffffff16600102816001815181101515620015b257fe5b906020019060200201906000191690816000191681525050620017166000809054906101000a900473ffffffffffffffffffffffffffffffffffffffff1673ffffffffffffffffffffffffffffffffffffffff16631081f0d16040518163ffffffff167c0100000000000000000000000000000000000000000000000000000000028152600401602060405180830381600087803b1580156200165457600080fd5b505af115801562001669573d6000803e3d6000fd5b505050506040513d601f19601f820116820180604052506200168f9190810190620032ab565b6000809054906101000a900473ffffffffffffffffffffffffffffffffffffffff1633606060405190810160405280602681526020017f616c6c6f77416374696f6e42794164647265737347656e65726963286279746581526020017f7333325b5d2900000000000000000000000000000000000000000000000000008152508562002706565b91505092915050565b6000600273__GenericCallerLib______________________637a94634d90918686866040518563ffffffff167c01000000000000000000000000000000000000000000000000000000000281526004016200177f9493929190620038e9565b60206040518083038186803b1580156200179857600080fd5b505af4158015620017ad573d6000803e3d6000fd5b505050506040513d601f19601f82011682018060405250620017d39190810190620034b6565b90509392505050565b600160009054906101000a900473ffffffffffffffffffffffffffffffffffffffff1673ffffffffffffffffffffffffffffffffffffffff163373ffffffffffffffffffffffffffffffffffffffff161415156200183957600080fd5b600160009054906101000a900473ffffffffffffffffffffffffffffffffffffffff1673ffffffffffffffffffffffffffffffffffffffff167ff8df31144d9c2f0f6b59d69b8b98abd5459d07f2742c4df920b25aae33c6482060405160405180910390a26000600160006101000a81548173ffffffffffffffffffffffffffffffffffffffff021916908373ffffffffffffffffffffffffffffffffffffffff160217905550565b600060606001604051908082528060200260200182016040528015620019175781602001602082028038833980820191505090505b5090508273ffffffffffffffffffffffffffffffffffffffff166001028160008151811015156200194457fe5b90602001906020020190600019169081600019168152505062001aa86000809054906101000a900473ffffffffffffffffffffffffffffffffffffffff1673ffffffffffffffffffffffffffffffffffffffff166318fa12aa6040518163ffffffff167c0100000000000000000000000000000000000000000000000000000000028152600401602060405180830381600087803b158015620019e657600080fd5b505af1158015620019fb573d6000803e3d6000fd5b505050506040513d601f19601f8201168201806040525062001a219190810190620032ab565b6000809054906101000a900473ffffffffffffffffffffffffffffffffffffffff1633606060405190810160405280602481526020017f7570677261646544616f436f6e747261637447656e657269632862797465733381526020017f325b5d29000000000000000000000000000000000000000000000000000000008152508562002706565b915050919050565b600160009054906101000a900473ffffffffffffffffffffffffffffffffffffffff1681565b600060607fa85150c655252132de4bb6a1a1c0e22aa56620b4aadd9529f5ce028d05d19ccb60405160405180910390a1600160405190808252806020026020018201604052801562001b375781602001602082028038833980820191505090505b5090508273ffffffffffffffffffffffffffffffffffffffff1660010281600081518110151562001b6457fe5b90602001906020020190600019169081600019168152505062001ca3600460009054906101000a900473ffffffffffffffffffffffffffffffffffffffff1673ffffffffffffffffffffffffffffffffffffffff16639b66e0d66040518163ffffffff167c0100000000000000000000000000000000000000000000000000000000028152600401602060405180830381600087803b15801562001c0757600080fd5b505af115801562001c1c573d6000803e3d6000fd5b505050506040513d601f19601f8201168201806040525062001c429190810190620032ab565b600460009054906101000a900473ffffffffffffffffffffffffffffffffffffffff16336040805190810160405280601f81526020017f7769746864726177457468657247656e6572696328627974657333325b5d29008152508562002706565b915050919050565b60006060600260405190808252806020026020018201604052801562001ce05781602001602082028038833980820191505090505b50905073__UtilsLib______________________________63cfb51928856040518263ffffffff167c010000000000000000000000000000000000000000000000000000000002815260040162001d389190620038c5565b60206040518083038186803b15801562001d5157600080fd5b505af415801562001d66573d6000803e3d6000fd5b505050506040513d601f19601f8201168201806040525062001d8c9190810190620032ab565b81600081518110151562001d9c57fe5b9060200190602002019060001916908160001916815250508273ffffffffffffffffffffffffffffffffffffffff1660010281600181518110151562001dde57fe5b90602001906020020190600019169081600019168152505062001f1b6000809054906101000a900473ffffffffffffffffffffffffffffffffffffffff1673ffffffffffffffffffffffffffffffffffffffff16635facc3dc6040518163ffffffff167c0100000000000000000000000000000000000000000000000000000000028152600401602060405180830381600087803b15801562001e8057600080fd5b505af115801562001e95573d6000803e3d6000fd5b505050506040513d601f19601f8201168201806040525062001ebb9190810190620032ab565b6000809054906101000a900473ffffffffffffffffffffffffffffffffffffffff16336040805190810160405280602081526020017f61646447726f75704d656d62657247656e6572696328627974657333325b5d298152508562002706565b91505092915050565b600060607fae4b954a212279b77b68672cba19a111a01a373ed437274d72c78d29aef28f6c60405160405180910390a1600160405190808252806020026020018201604052801562001f855781602001602082028038833980820191505090505b509050821562001fc1576001800281600081518110151562001fa357fe5b90602001906020020190600019169081600019168152505062001fef565b600060010281600081518110151562001fd657fe5b9060200190602002019060001916908160001916815250505b6200213d600460009054906101000a900473ffffffffffffffffffffffffffffffffffffffff1673ffffffffffffffffffffffffffffffffffffffff1663aed605636040518163ffffffff167c0100000000000000000000000000000000000000000000000000000000028152600401602060405180830381600087803b1580156200207a57600080fd5b505af11580156200208f573d6000803e3d6000fd5b505050506040513d601f19601f82011682018060405250620020b59190810190620032ab565b600460009054906101000a900473ffffffffffffffffffffffffffffffffffffffff1633606060405190810160405280602381526020017f6d6f7665546f4e657874457069736f646547656e65726963286279746573333281526020017f5b5d2900000000000000000000000000000000000000000000000000000000008152508562002706565b915050919050565b6000606060036040519080825280602002602001820160405280156200217a5781602001602082028038833980820191505090505b5090508473ffffffffffffffffffffffffffffffffffffffff16600102816000815181101515620021a757fe5b9060200190602002019060001916908160001916815250508373ffffffffffffffffffffffffffffffffffffffff16600102816001815181101515620021e957fe5b906020019060200201906000191690816000191681525050826001028160028151811015156200221557fe5b906020019060200201906000191690816000191681525050620023526000809054906101000a900473ffffffffffffffffffffffffffffffffffffffff1673ffffffffffffffffffffffffffffffffffffffff16638faa37f16040518163ffffffff167c0100000000000000000000000000000000000000000000000000000000028152600401602060405180830381600087803b158015620022b757600080fd5b505af1158015620022cc573d6000803e3d6000fd5b505050506040513d601f19601f82011682018060405250620022f29190810190620032ab565b6000809054906101000a900473ffffffffffffffffffffffffffffffffffffffff16336040805190810160405280601d81526020017f6973737565546f6b656e7347656e6572696328627974657333325b5d290000008152508562002706565b9150509392505050565b600060606002604051908082528060200260200182016040528015620023915781602001602082028038833980820191505090505b50905073__UtilsLib______________________________63cfb51928856040518263ffffffff167c0100000000000000000000000000000000000000000000000000000000028152600401620023e99190620038c5565b60206040518083038186803b1580156200240257600080fd5b505af415801562002417573d6000803e3d6000fd5b505050506040513d601f19601f820116820180604052506200243d9190810190620032ab565b8160008151811015156200244d57fe5b9060200190602002019060001916908160001916815250508273ffffffffffffffffffffffffffffffffffffffff166001028160018151811015156200248f57fe5b906020019060200201906000191690816000191681525050620025f36000809054906101000a900473ffffffffffffffffffffffffffffffffffffffff1673ffffffffffffffffffffffffffffffffffffffff1663415e86ce6040518163ffffffff167c0100000000000000000000000000000000000000000000000000000000028152600401602060405180830381600087803b1580156200253157600080fd5b505af115801562002546573d6000803e3d6000fd5b505050506040513d601f19601f820116820180604052506200256c9190810190620032ab565b6000809054906101000a900473ffffffffffffffffffffffffffffffffffffffff1633606060405190810160405280602381526020017f72656d6f766547726f75704d656d62657247656e65726963286279746573333281526020017f5b5d2900000000000000000000000000000000000000000000000000000000008152508562002706565b91505092915050565b600160009054906101000a900473ffffffffffffffffffffffffffffffffffffffff1673ffffffffffffffffffffffffffffffffffffffff163373ffffffffffffffffffffffffffffffffffffffff161415156200265957600080fd5b620026648162002731565b50565b6000809054906101000a900473ffffffffffffffffffffffffffffffffffffffff1673ffffffffffffffffffffffffffffffffffffffff163373ffffffffffffffffffffffffffffffffffffffff16141515620026c357600080fd5b806000806101000a81548173ffffffffffffffffffffffffffffffffffffffff021916908373ffffffffffffffffffffffffffffffffffffffff16021790555050565b600062002726868686868660026200282e9095949392919063ffffffff16565b905095945050505050565b600073ffffffffffffffffffffffffffffffffffffffff168173ffffffffffffffffffffffffffffffffffffffff16141515156200276e57600080fd5b8073ffffffffffffffffffffffffffffffffffffffff16600160009054906101000a900473ffffffffffffffffffffffffffffffffffffffff1673ffffffffffffffffffffffffffffffffffffffff167f8be0079c531659141344cd1fd0a4f28419497f9722a3daafe3b4186f6b6457e060405160405180910390a380600160006101000a81548173ffffffffffffffffffffffffffffffffffffffff021916908373ffffffffffffffffffffffffffffffffffffffff16021790555050565b60008060008860000160009054906101000a900473ffffffffffffffffffffffffffffffffffffffff1673ffffffffffffffffffffffffffffffffffffffff166322e320f7338a6040518363ffffffff167c0100000000000000000000000000000000000000000000000000000000028152600401620028b092919062003764565b602060405180830381600087803b158015620028cb57600080fd5b505af1158015620028e0573d6000803e3d6000fd5b505050506040513d601f19601f820116820180604052506200290691908101906200327f565b1562002a89577faf7ac60c1ed470adc8cedd5d2c4fbb88e51554782c6185525916f902d96d46458888888860405162002943949392919062003791565b60405180910390a18673ffffffffffffffffffffffffffffffffffffffff16856040518082805190602001908083835b6020831015156200299a578051825260208201915060208101905060208303925062002973565b6001836020036101000a03801982511681845116808217855250505050505090500191505060405180910390207c0100000000000000000000000000000000000000000000000000000000900460208651876040518463ffffffff167c010000000000000000000000000000000000000000000000000000000002815260040180848152602001838152602001828051906020019060200280838360005b8381101562002a5557808201518184015260208101905062002a38565b5050505090500193505050506000604051808303816000875af192505050151562002a7f57600080fd5b6000925062002cd1565b7f1e42a9597f3605b28ccb0531b435461c613983f16e2aec2a6bfb560e6194707a8888888860405162002ac0949392919062003791565b60405180910390a18686868662002ad66200304f565b62002ae5949392919062003709565b604051809103906000f08015801562002b02573d6000803e3d6000fd5b50915062002b138989848962002cdd565b90508173ffffffffffffffffffffffffffffffffffffffff1663c4d07951826040518263ffffffff167c010000000000000000000000000000000000000000000000000000000002815260040162002b6c9190620038a8565b600060405180830381600087803b15801562002b8757600080fd5b505af115801562002b9c573d6000803e3d6000fd5b505050508860000160009054906101000a900473ffffffffffffffffffffffffffffffffffffffff1673ffffffffffffffffffffffffffffffffffffffff166301ef0468836040518263ffffffff167c010000000000000000000000000000000000000000000000000000000002815260040162002c1b9190620037e5565b600060405180830381600087803b15801562002c3657600080fd5b505af115801562002c4b573d6000803e3d6000fd5b505050508073ffffffffffffffffffffffffffffffffffffffff1663a589effc6040518163ffffffff167c0100000000000000000000000000000000000000000000000000000000028152600401600060405180830381600087803b15801562002cb457600080fd5b505af115801562002cc9573d6000803e3d6000fd5b505050508192505b50509695505050505050565b600062002ce962003060565b6000866001016000876000191660001916815260200190815260200160002060c060405190810160405290816000820160009054906101000a900460ff16600481111562002d3357fe5b600481111562002d3f57fe5b8152602001600182015460001916600019168152602001600282015460001916600019168152602001600382015460001916600019168152602001600482015460001916600019168152602001600582015460001916600019168152505091508660000160009054906101000a900473ffffffffffffffffffffffffffffffffffffffff168585846000015185602001516001900462002de3876040015162002e49565b8760600151600190048860800151600190048960a001516001900462002e08620030b2565b62002e1c9998979695949392919062003802565b604051809103906000f08015801562002e39573d6000803e3d6000fd5b5090508092505050949350505050565b6060806000806000606060206040519080825280601f01601f19166020018201604052801562002e885781602001602082028038833980820191505090505b50945060009350600092505b602083101562002f56578260080260020a876001900402600102915060007f010000000000000000000000000000000000000000000000000000000000000002827effffffffffffffffffffffffffffffffffffffffffffffffffffffffffffff191614151562002f485781858581518110151562002f0f57fe5b9060200101907effffffffffffffffffffffffffffffffffffffffffffffffffffffffffffff1916908160001a90535083806001019450505b828060010193505062002e94565b836040519080825280601f01601f19166020018201604052801562002f8a5781602001602082028038833980820191505090505b509050600092505b838310156200304257848381518110151562002faa57fe5b9060200101517f010000000000000000000000000000000000000000000000000000000000000090047f01000000000000000000000000000000000000000000000000000000000000000281848151811015156200300457fe5b9060200101907effffffffffffffffffffffffffffffffffffffffffffffffffffffffffffff1916908160001a905350828060010193505062002f92565b8095505050505050919050565b604051610d918062003bbd83390190565b60c060405190810160405280600060048111156200307a57fe5b815260200160008019168152602001600080191681526020016000801916815260200160008019168152602001600080191681525090565b60405161157b806200494e83390190565b6000620030d1823562003a9a565b905092915050565b6000620030e7823562003aba565b905092915050565b6000620030fd825162003aba565b905092915050565b600062003113823562003ac6565b905092915050565b600062003129825162003ac6565b905092915050565b60006200313f823562003ad0565b905092915050565b600062003155825162003ae4565b905092915050565b600082601f83011215156200317157600080fd5b8135620031886200318282620039f2565b620039c4565b91508082526020830160208301858383011115620031a557600080fd5b620031b283828462003b66565b50505092915050565b6000620031c9823562003af8565b905092915050565b600060208284031215620031e457600080fd5b6000620031f484828501620030c3565b91505092915050565b6000806000606084860312156200321357600080fd5b60006200322386828701620030c3565b93505060206200323686828701620030c3565b92505060406200324986828701620031bb565b9150509250925092565b6000602082840312156200326657600080fd5b60006200327684828501620030d9565b91505092915050565b6000602082840312156200329257600080fd5b6000620032a284828501620030ef565b91505092915050565b600060208284031215620032be57600080fd5b6000620032ce848285016200311b565b91505092915050565b60008060408385031215620032eb57600080fd5b6000620032fb8582860162003105565b92505060206200330e85828601620030c3565b9150509250929050565b6000806000606084860312156200332e57600080fd5b60006200333e8682870162003105565b9350506020620033518682870162003131565b92505060406200336486828701620030c3565b9150509250925092565b600080604083850312156200338257600080fd5b6000620033928582860162003105565b925050602083013567ffffffffffffffff811115620033b057600080fd5b620033be858286016200315d565b9150509250929050565b60008060408385031215620033dc57600080fd5b6000620033ec8582860162003105565b9250506020620033ff85828601620031bb565b9150509250929050565b600080600080600080600060e0888a0312156200342557600080fd5b6000620034358a828b0162003105565b9750506020620034488a828b01620031bb565b96505060406200345b8a828b0162003105565b95505060606200346e8a828b0162003105565b9450506080620034818a828b0162003105565b93505060a0620034948a828b0162003105565b92505060c0620034a78a828b0162003105565b91505092959891949750929550565b600060208284031215620034c957600080fd5b6000620034d98482850162003147565b91505092915050565b60008060408385031215620034f657600080fd5b600083013567ffffffffffffffff8111156200351157600080fd5b6200351f858286016200315d565b92505060206200353285828601620030c3565b9150509250929050565b620035478162003a4f565b82525050565b620035588162003a4f565b82525050565b60006200356b8262003a2c565b8084526020840193506200357f8362003a1f565b60005b82811015620035b75762003598868351620035c3565b620035a38262003a42565b915060208601955060018101905062003582565b50849250505092915050565b620035ce8162003a6f565b82525050565b620035df8162003a6f565b82525050565b620035f08162003b02565b82525050565b620036018162003b16565b82525050565b620036128162003b2a565b82525050565b620036238162003b2a565b82525050565b620036348162003b3e565b82525050565b620036458162003b52565b82525050565b6000620036588262003a37565b8084526200366e81602086016020860162003b75565b620036798162003bab565b602085010191505092915050565b6000620036948262003a37565b808452620036aa81602086016020860162003b75565b620036b58162003bab565b602085010191505092915050565b8082525050565b620036d58162003a90565b82525050565b620036e68162003a90565b82525050565b60006020820190506200370360008301846200353c565b92915050565b60006080820190506200372060008301876200353c565b6200372f60208301866200353c565b81810360408301526200374381856200364b565b905081810360608301526200375981846200355e565b905095945050505050565b60006040820190506200377b60008301856200353c565b6200378a6020830184620035c3565b9392505050565b6000608082019050620037a86000830187620035c3565b620037b760208301866200353c565b620037c660408301856200353c565b8181036060830152620037da81846200364b565b905095945050505050565b6000602082019050620037fc6000830184620035e5565b92915050565b6000610120820190506200381a600083018c620035f6565b62003829602083018b62003607565b62003838604083018a6200353c565b6200384760608301896200363a565b620038566080830188620036ca565b81810360a08301526200386a81876200364b565b90506200387b60c0830186620036ca565b6200388a60e0830185620036ca565b6200389a6101008301846200353c565b9a9950505050505050505050565b6000602082019050620038bf600083018462003629565b92915050565b60006020820190508181036000830152620038e1818462003687565b905092915050565b6000608082019050620039006000830187620036c3565b6200390f6020830186620035d4565b6200391e604083018562003618565b6200392d60608301846200354d565b95945050505050565b6000610100820190506200394e600083018b620036c3565b6200395d602083018a620035d4565b6200396c6040830189620036db565b6200397b6060830188620035d4565b6200398a6080830187620035d4565b6200399960a0830186620035d4565b620039a860c0830185620035d4565b620039b760e0830184620035d4565b9998505050505050505050565b6000604051905081810181811067ffffffffffffffff82111715620039e857600080fd5b8060405250919050565b600067ffffffffffffffff82111562003a0a57600080fd5b601f19601f8301169050602081019050919050565b6000602082019050919050565b600081519050919050565b600081519050919050565b6000602082019050919050565b600073ffffffffffffffffffffffffffffffffffffffff82169050919050565b6000819050919050565b600060058210151562003a8857fe5b819050919050565b6000819050919050565b600073ffffffffffffffffffffffffffffffffffffffff82169050919050565b60008115159050919050565b6000819050919050565b600062003add8262003a4f565b9050919050565b600062003af18262003a4f565b9050919050565b6000819050919050565b600062003b0f8262003a4f565b9050919050565b600062003b238262003a4f565b9050919050565b600062003b378262003a4f565b9050919050565b600062003b4b8262003a4f565b9050919050565b600062003b5f8262003a79565b9050919050565b82818337600083830152505050565b60005b8381101562003b9557808201518184015260208101905062003b78565b8381111562003ba5576000848401525b50505050565b6000601f19601f8301169050919050560060806040523480156200001157600080fd5b5060405162000d9138038062000d9183398101806040528101908080519060200190929190805190602001909291908051820192919060200180518201929190505050336000806101000a81548173ffffffffffffffffffffffffffffffffffffffff021916908373ffffffffffffffffffffffffffffffffffffffff16021790555083600260006101000a81548173ffffffffffffffffffffffffffffffffffffffff021916908373ffffffffffffffffffffffffffffffffffffffff1602179055508060049080519060200190620000ed92919062000136565b508160039080519060200190620001069291906200018e565b5060008373ffffffffffffffffffffffffffffffffffffffff1614156200012c57600080fd5b5050505062000265565b8280548282559060005260206000209081019282156200017b579160200282015b828111156200017a57825182906000191690559160200191906001019062000157565b5b5090506200018a919062000215565b5090565b828054600181600116156101000203166002900490600052602060002090601f016020900481019282601f10620001d157805160ff191683800117855562000202565b8280016001018555821562000202579182015b8281111562000201578251825591602001919060010190620001e4565b5b5090506200021191906200023d565b5090565b6200023a91905b80821115620002365760008160009055506001016200021c565b5090565b90565b6200026291905b808211156200025e57600081600090555060010162000244565b5090565b90565b610b1c80620002756000396000f30060806040526004361061008e576000357c0100000000000000000000000000000000000000000000000000000000900463ffffffff1680630a7a1c4d146100935780631986d376146100aa5780635e615a6b14610101578063715018a61461016d5780638da5cb5b14610184578063c4d07951146101db578063d9b81c7f1461021e578063f2fde38b146102ae575b600080fd5b34801561009f57600080fd5b506100a86102f1565b005b3480156100b657600080fd5b506100bf6106a1565b604051808273ffffffffffffffffffffffffffffffffffffffff1673ffffffffffffffffffffffffffffffffffffffff16815260200191505060405180910390f35b34801561010d57600080fd5b506101166106cb565b6040518080602001828103825283818151815260200191508051906020019060200280838360005b8381101561015957808201518184015260208101905061013e565b505050509050019250505060405180910390f35b34801561017957600080fd5b50610182610727565b005b34801561019057600080fd5b50610199610829565b604051808273ffffffffffffffffffffffffffffffffffffffff1673ffffffffffffffffffffffffffffffffffffffff16815260200191505060405180910390f35b3480156101e757600080fd5b5061021c600480360381019080803573ffffffffffffffffffffffffffffffffffffffff16906020019092919050505061084e565b005b34801561022a57600080fd5b506102336108ed565b6040518080602001828103825283818151815260200191508051906020019080838360005b83811015610273578082015181840152602081019050610258565b50505050905090810190601f1680156102a05780820380516001836020036101000a031916815260200191505b509250505060405180910390f35b3480156102ba57600080fd5b506102ef600480360381019080803573ffffffffffffffffffffffffffffffffffffffff16906020019092919050505061098f565b005b7fe721b4b727f357fa658ee83e2b2134044ea66a9d14ee353ae197c6e080e99631600160009054906101000a900473ffffffffffffffffffffffffffffffffffffffff16600260009054906101000a900473ffffffffffffffffffffffffffffffffffffffff1660036004604051808573ffffffffffffffffffffffffffffffffffffffff1673ffffffffffffffffffffffffffffffffffffffff1681526020018473ffffffffffffffffffffffffffffffffffffffff1673ffffffffffffffffffffffffffffffffffffffff168152602001806020018060200183810383528581815460018160011615610100020316600290048152602001915080546001816001161561010002031660029004801561044d5780601f106104225761010080835404028352916020019161044d565b820191906000526020600020905b81548152906001019060200180831161043057829003601f168201915b5050838103825284818154815260200191508054801561049057602002820191906000526020600020905b81546000191681526020019060010190808311610478575b5050965050505050505060405180910390a1600160009054906101000a900473ffffffffffffffffffffffffffffffffffffffff1673ffffffffffffffffffffffffffffffffffffffff16600014151561054157600160009054906101000a900473ffffffffffffffffffffffffffffffffffffffff1673ffffffffffffffffffffffffffffffffffffffff163373ffffffffffffffffffffffffffffffffffffffff1614151561054057600080fd5b5b600260009054906101000a900473ffffffffffffffffffffffffffffffffffffffff1673ffffffffffffffffffffffffffffffffffffffff16600360405180828054600181600116156101000203166002900480156105d75780601f106105b55761010080835404028352918201916105d7565b820191906000526020600020905b8154815290600101906020018083116105c3575b505091505060405180910390207c01000000000000000000000000000000000000000000000000000000009004602060048054905060046040518463ffffffff167c010000000000000000000000000000000000000000000000000000000002815260040180848152602001838152602001828054801561067b57602002820191906000526020600020905b81546000191681526020019060010190808311610663575b505093505050506000604051808303816000875af192505050151561069f57600080fd5b565b6000600160009054906101000a900473ffffffffffffffffffffffffffffffffffffffff16905090565b6060600480548060200260200160405190810160405280929190818152602001828054801561071d57602002820191906000526020600020905b81546000191681526020019060010190808311610705575b5050505050905090565b6000809054906101000a900473ffffffffffffffffffffffffffffffffffffffff1673ffffffffffffffffffffffffffffffffffffffff163373ffffffffffffffffffffffffffffffffffffffff1614151561078257600080fd5b6000809054906101000a900473ffffffffffffffffffffffffffffffffffffffff1673ffffffffffffffffffffffffffffffffffffffff167ff8df31144d9c2f0f6b59d69b8b98abd5459d07f2742c4df920b25aae33c6482060405160405180910390a260008060006101000a81548173ffffffffffffffffffffffffffffffffffffffff021916908373ffffffffffffffffffffffffffffffffffffffff160217905550565b6000809054906101000a900473ffffffffffffffffffffffffffffffffffffffff1681565b6000809054906101000a900473ffffffffffffffffffffffffffffffffffffffff1673ffffffffffffffffffffffffffffffffffffffff163373ffffffffffffffffffffffffffffffffffffffff161415156108a957600080fd5b80600160006101000a81548173ffffffffffffffffffffffffffffffffffffffff021916908373ffffffffffffffffffffffffffffffffffffffff16021790555050565b606060038054600181600116156101000203166002900480601f0160208091040260200160405190810160405280929190818152602001828054600181600116156101000203166002900480156109855780601f1061095a57610100808354040283529160200191610985565b820191906000526020600020905b81548152906001019060200180831161096857829003601f168201915b5050505050905090565b6000809054906101000a900473ffffffffffffffffffffffffffffffffffffffff1673ffffffffffffffffffffffffffffffffffffffff163373ffffffffffffffffffffffffffffffffffffffff161415156109ea57600080fd5b6109f3816109f6565b50565b600073ffffffffffffffffffffffffffffffffffffffff168173ffffffffffffffffffffffffffffffffffffffff1614151515610a3257600080fd5b8073ffffffffffffffffffffffffffffffffffffffff166000809054906101000a900473ffffffffffffffffffffffffffffffffffffffff1673ffffffffffffffffffffffffffffffffffffffff167f8be0079c531659141344cd1fd0a4f28419497f9722a3daafe3b4186f6b6457e060405160405180910390a3806000806101000a81548173ffffffffffffffffffffffffffffffffffffffff021916908373ffffffffffffffffffffffffffffffffffffffff160217905550505600a165627a7a7230582080cc990dc1802c289b0bceeaa6698122e10c2d98dade8c350f50e76d5be45f190029608060405234801561001057600080fd5b5060405161157b38038061157b833981018060405281019080805190602001909291908051906020019092919080519060200190929190805190602001909291908051906020019092919080518201929190602001805190602001909291908051906020019092919080519060200190929190505050336000806101000a81548173ffffffffffffffffffffffffffffffffffffffff021916908373ffffffffffffffffffffffffffffffffffffffff160217905550600173__VotingLib_____________________________63f3f98c1c90918b8b8b8b8b8b8b8b8b6040518b63ffffffff167c0100000000000000000000000000000000000000000000000000000000028152600401808b81526020018a73ffffffffffffffffffffffffffffffffffffffff1673ffffffffffffffffffffffffffffffffffffffff1681526020018973ffffffffffffffffffffffffffffffffffffffff1673ffffffffffffffffffffffffffffffffffffffff1681526020018873ffffffffffffffffffffffffffffffffffffffff1673ffffffffffffffffffffffffffffffffffffffff1681526020018760048111156101c457fe5b60ff168152602001868152602001806020018581526020018481526020018373ffffffffffffffffffffffffffffffffffffffff1673ffffffffffffffffffffffffffffffffffffffff168152602001828103825286818151815260200191508051906020019080838360005b8381101561024c578082015181840152602081019050610231565b50505050905090810190601f1680156102795780820380516001836020036101000a031916815260200191505b509b50505050505050505050505060006040518083038186803b15801561029f57600080fd5b505af41580156102b3573d6000803e3d6000fd5b505050505050505050505050506112ac806102cf6000396000f300608060405260043610610107576000357c0100000000000000000000000000000000000000000000000000000000900463ffffffff16806336191cc81461010c5780633edf755314610163578063411891141461018e5780634b9f5c98146101b957806364288d02146101e8578063715018a61461023557806376804a031461024c578063783cec80146102855780637b3529621461031557806381f4b232146103445780638da5cb5b1461035b578063983babb4146103b2578063a589effc146103e1578063c756280e146103f8578063eead6f501461040f578063f0466c7314610466578063f2fde38b146104a9578063f81cbd26146104ec578063fa77967114610517575b600080fd5b34801561011857600080fd5b5061014d600480360381019080803573ffffffffffffffffffffffffffffffffffffffff16906020019092919050505061056e565b6040518082815260200191505060405180910390f35b34801561016f57600080fd5b50610178610654565b6040518082815260200191505060405180910390f35b34801561019a57600080fd5b506101a3610661565b6040518082815260200191505060405180910390f35b3480156101c557600080fd5b506101e6600480360381019080803515159060200190929190505050610711565b005b3480156101f457600080fd5b50610233600480360381019080803573ffffffffffffffffffffffffffffffffffffffff169060200190929190803590602001909291905050506107da565b005b34801561024157600080fd5b5061024a6108a0565b005b34801561025857600080fd5b506102616109a2565b60405180848152602001838152602001828152602001935050505060405180910390f35b34801561029157600080fd5b5061029a610a6f565b6040518080602001828103825283818151815260200191508051906020019080838360005b838110156102da5780820151818401526020810190506102bf565b50505050905090810190601f1680156103075780820380516001836020036101000a031916815260200191505b509250505060405180910390f35b34801561032157600080fd5b5061032a610b14565b604051808215151515815260200191505060405180910390f35b34801561035057600080fd5b50610359610bc4565b005b34801561036757600080fd5b50610370610c3e565b604051808273ffffffffffffffffffffffffffffffffffffffff1673ffffffffffffffffffffffffffffffffffffffff16815260200191505060405180910390f35b3480156103be57600080fd5b506103c7610c63565b604051808215151515815260200191505060405180910390f35b3480156103ed57600080fd5b506103f6610d13565b005b34801561040457600080fd5b5061040d610e01565b005b34801561041b57600080fd5b50610450600480360381019080803573ffffffffffffffffffffffffffffffffffffffff169060200190929190505050610e89565b6040518082815260200191505060405180910390f35b34801561047257600080fd5b506104a7600480360381019080803573ffffffffffffffffffffffffffffffffffffffff169060200190929190505050610f6f565b005b3480156104b557600080fd5b506104ea600480360381019080803573ffffffffffffffffffffffffffffffffffffffff16906020019092919050505061102c565b005b3480156104f857600080fd5b50610501611093565b6040518082815260200191505060405180910390f35b34801561052357600080fd5b50610558600480360381019080803573ffffffffffffffffffffffffffffffffffffffff1690602001909291905050506110a0565b6040518082815260200191505060405180910390f35b6000600173__VotingLib_____________________________63d1069e6d9091846040518363ffffffff167c0100000000000000000000000000000000000000000000000000000000028152600401808381526020018273ffffffffffffffffffffffffffffffffffffffff1673ffffffffffffffffffffffffffffffffffffffff1681526020019250505060206040518083038186803b15801561061257600080fd5b505af4158015610626573d6000803e3d6000fd5b505050506040513d602081101561063c57600080fd5b81019080805190602001909291905050509050919050565b6000600160070154905090565b6000600173__VotingLib_____________________________63526fbbf090916040518263ffffffff167c01000000000000000000000000000000000000000000000000000000000281526004018082815260200191505060206040518083038186803b1580156106d157600080fd5b505af41580156106e5573d6000803e3d6000fd5b505050506040513d60208110156106fb57600080fd5b8101908080519060200190929190505050905090565b600173__VotingLib_____________________________63c80e0eea909133846040518463ffffffff167c0100000000000000000000000000000000000000000000000000000000028152600401808481526020018373ffffffffffffffffffffffffffffffffffffffff1673ffffffffffffffffffffffffffffffffffffffff16815260200182151515158152602001935050505060006040518083038186803b1580156107bf57600080fd5b505af41580156107d3573d6000803e3d6000fd5b5050505050565b600173__VotingLib_____________________________63d5048ea6909184846040518463ffffffff167c0100000000000000000000000000000000000000000000000000000000028152600401808481526020018373ffffffffffffffffffffffffffffffffffffffff1673ffffffffffffffffffffffffffffffffffffffff168152602001828152602001935050505060006040518083038186803b15801561088457600080fd5b505af4158015610898573d6000803e3d6000fd5b505050505050565b6000809054906101000a900473ffffffffffffffffffffffffffffffffffffffff1673ffffffffffffffffffffffffffffffffffffffff163373ffffffffffffffffffffffffffffffffffffffff161415156108fb57600080fd5b6000809054906101000a900473ffffffffffffffffffffffffffffffffffffffff1673ffffffffffffffffffffffffffffffffffffffff167ff8df31144d9c2f0f6b59d69b8b98abd5459d07f2742c4df920b25aae33c6482060405160405180910390a260008060006101000a81548173ffffffffffffffffffffffffffffffffffffffff021916908373ffffffffffffffffffffffffffffffffffffffff160217905550565b6000806000600173__VotingLib_____________________________6380a42c5f90916040518263ffffffff167c01000000000000000000000000000000000000000000000000000000000281526004018082815260200191505060606040518083038186803b158015610a1557600080fd5b505af4158015610a29573d6000803e3d6000fd5b505050506040513d6060811015610a3f57600080fd5b81019080805190602001909291908051906020019092919080519060200190929190505050925092509250909192565b60606001600a018054600181600116156101000203166002900480601f016020809104026020016040519081016040528092919081815260200182805460018160011615610100020316600290048015610b0a5780601f10610adf57610100808354040283529160200191610b0a565b820191906000526020600020905b815481529060010190602001808311610aed57829003601f168201915b5050505050905090565b6000600173__VotingLib_____________________________63af36b26690916040518263ffffffff167c01000000000000000000000000000000000000000000000000000000000281526004018082815260200191505060206040518083038186803b158015610b8457600080fd5b505af4158015610b98573d6000803e3d6000fd5b505050506040513d6020811015610bae57600080fd5b8101908080519060200190929190505050905090565b6000809054906101000a900473ffffffffffffffffffffffffffffffffffffffff1673ffffffffffffffffffffffffffffffffffffffff163373ffffffffffffffffffffffffffffffffffffffff16141515610c1f57600080fd5b60018060040160016101000a81548160ff021916908315150217905550565b6000809054906101000a900473ffffffffffffffffffffffffffffffffffffffff1681565b6000600173__VotingLib_____________________________63cd511bce90916040518263ffffffff167c01000000000000000000000000000000000000000000000000000000000281526004018082815260200191505060206040518083038186803b158015610cd357600080fd5b505af4158015610ce7573d6000803e3d6000fd5b505050506040513d6020811015610cfd57600080fd5b8101908080519060200190929190505050905090565b600173__VotingLib_____________________________63c80e0eea9091600160020160009054906101000a900473ffffffffffffffffffffffffffffffffffffffff1660016040518463ffffffff167c0100000000000000000000000000000000000000000000000000000000028152600401808481526020018373ffffffffffffffffffffffffffffffffffffffff1673ffffffffffffffffffffffffffffffffffffffff16815260200182151515158152602001935050505060006040518083038186803b158015610de757600080fd5b505af4158015610dfb573d6000803e3d6000fd5b50505050565b600173__VotingLib_____________________________633914bef090916040518263ffffffff167c01000000000000000000000000000000000000000000000000000000000281526004018082815260200191505060006040518083038186803b158015610e6f57600080fd5b505af4158015610e83573d6000803e3d6000fd5b50505050565b6000600173__VotingLib_____________________________63d06fb6b29091846040518363ffffffff167c0100000000000000000000000000000000000000000000000000000000028152600401808381526020018273ffffffffffffffffffffffffffffffffffffffff1673ffffffffffffffffffffffffffffffffffffffff1681526020019250505060206040518083038186803b158015610f2d57600080fd5b505af4158015610f41573d6000803e3d6000fd5b505050506040513d6020811015610f5757600080fd5b81019080805190602001909291905050509050919050565b600173__VotingLib_____________________________634464a3559091836040518363ffffffff167c0100000000000000000000000000000000000000000000000000000000028152600401808381526020018273ffffffffffffffffffffffffffffffffffffffff1673ffffffffffffffffffffffffffffffffffffffff1681526020019250505060006040518083038186803b15801561101157600080fd5b505af4158015611025573d6000803e3d6000fd5b5050505050565b6000809054906101000a900473ffffffffffffffffffffffffffffffffffffffff1673ffffffffffffffffffffffffffffffffffffffff163373ffffffffffffffffffffffffffffffffffffffff1614151561108757600080fd5b61109081611186565b50565b6000600160060154905090565b6000600173__VotingLib_____________________________636648bedf9091846040518363ffffffff167c0100000000000000000000000000000000000000000000000000000000028152600401808381526020018273ffffffffffffffffffffffffffffffffffffffff1673ffffffffffffffffffffffffffffffffffffffff1681526020019250505060206040518083038186803b15801561114457600080fd5b505af4158015611158573d6000803e3d6000fd5b505050506040513d602081101561116e57600080fd5b81019080805190602001909291905050509050919050565b600073ffffffffffffffffffffffffffffffffffffffff168173ffffffffffffffffffffffffffffffffffffffff16141515156111c257600080fd5b8073ffffffffffffffffffffffffffffffffffffffff166000809054906101000a900473ffffffffffffffffffffffffffffffffffffffff1673ffffffffffffffffffffffffffffffffffffffff167f8be0079c531659141344cd1fd0a4f28419497f9722a3daafe3b4186f6b6457e060405160405180910390a3806000806101000a81548173ffffffffffffffffffffffffffffffffffffffff021916908373ffffffffffffffffffffffffffffffffffffffff160217905550505600a165627a7a72305820a9e22b32cde845fbeef04ee8fe2ffca6a682f3a0ca2ea7a3046b513951314a020029a265627a7a7230582085a2919a36413bcb98928aa62a5d75b2f73789deb126caf06fd820c7edc63a666c6578706572696d656e74616cf50037",
  "source": "pragma solidity ^0.4.24;\n// to enable Params passing to constructor and method\npragma experimental ABIEncoderV2;\n\nimport \"@thetta/core/contracts/DaoBaseAuto.sol\";\n\nimport \"./DevZenDao.sol\";\nimport \"./DevZenDaoCore.sol\";\nimport \"./DevZenDaoWithUnpackers.sol\";\n\ncontract DevZenDaoAuto is DaoBaseAuto{\n\tevent UpdateDaoParamsAuto();\n\tevent WithdrawEtherAuto();\n\tevent SelectNextHostAuto();\n\tevent ChangeTheGuestAuto();\n\tevent Emergency_ChangeTheGuestAuto();\n\tevent MoveToNextEpisodeAuto();\n\n\tDevZenDaoWithUnpackers devZenDao;\n\tconstructor(IDaoBase _daoBase, DevZenDaoWithUnpackers _devZenDao) public DaoBaseAuto(_daoBase){\n\t\tdevZenDao = _devZenDao;\n\t}\n\n\tfunction updateDaoParamsAuto(bytes32 _param, uint _value) public returns(address proposalOut) {\n\t\temit UpdateDaoParamsAuto();\n\t\tbytes32[] memory params = new bytes32[](2);\n\t\tparams[0] = _param;\n\t\tparams[1] = bytes32(_value);\n\t\treturn doAction(devZenDao.DEV_ZEN_UPDATE_DAO_PARAMS(), devZenDao, msg.sender, \"updateDaoParamsGeneric(bytes32[])\", params);\n\t}\n\n\tfunction withdrawEtherAuto(address _output) public returns(address proposalOut) {\n\t\temit WithdrawEtherAuto();\n\t\tbytes32[] memory params = new bytes32[](1);\n\t\tparams[0] = bytes32(_output);\n\t\treturn doAction(devZenDao.DEV_ZEN_WITHDRAW_ETHER(), devZenDao, msg.sender, \"withdrawEtherGeneric(bytes32[])\", params);\n\t}\n\n\tfunction selectNextHostAuto(address _nextHost) public returns(address proposalOut) {\n\t\temit SelectNextHostAuto();\n\t\tbytes32[] memory params = new bytes32[](1);\n\t\tparams[0] = bytes32(_nextHost);\n\t\treturn doAction(devZenDao.DEV_ZEN_SELECT_NEXT_HOST(), devZenDao, msg.sender, \"selectNextHostGeneric(bytes32[])\", params);\n\t}\n\n\tfunction changeTheGuestAuto(address _guest) public returns(address proposalOut) {\n\t\temit ChangeTheGuestAuto();\n\t\tbytes32[] memory params = new bytes32[](1);\n\t\tparams[0] = bytes32(_guest);\n\t\treturn doAction(devZenDao.DEV_ZEN_CHANGE_GUEST(), devZenDao, msg.sender, \"changeTheGuestGeneric(bytes32[])\", params);\n\t}\n\n\tfunction emergency_ChangeTheGuestAuto(address _guest) public returns(address proposalOut) {\n\t\temit Emergency_ChangeTheGuestAuto();\n\t\tbytes32[] memory params = new bytes32[](1);\n\t\tparams[0] = bytes32(_guest);\n\t\treturn doAction(devZenDao.DEV_ZEN_EMERGENCY_CHANGE_GUEST(), devZenDao, msg.sender, \"emergency_ChangeTheGuestGeneric(bytes32[])\", params);\n\t}\n\n\tfunction moveToNextEpisodeAuto(bool _guestHasCome) public returns(address proposalOut) {\n\t\temit MoveToNextEpisodeAuto();\n\t\tbytes32[] memory params = new bytes32[](1);\n\t\tif(_guestHasCome){\n\t\t\tparams[0] = bytes32(1);\n\t\t}else{\n\t\t\tparams[0] = bytes32(0);\n\t\t}\n\t\treturn doAction(devZenDao.DEV_ZEN_MOVE_TO_NEXT_EPISODE(), devZenDao, msg.sender, \"moveToNextEpisodeGeneric(bytes32[])\", params);\n\t}\n\n}\n",
  "sourcePath": "/home/vladimir/Public/truffle/DAO-Templates/contracts/3-DevZenDao/DevZenDaoAuto.sol",
  "compiler": {
    "name": "solc",
    "version": "0.4.24+commit.e67f0147.Emscripten.clang"
  },
  "schemaVersion": "2.0.1",
  "updatedAt": "2018-10-18T13:22:15.641Z"
}