{
  "contractName": "DevZenDao",
  "abi": [
    {
      "constant": true,
      "inputs": [],
      "name": "repToken",
      "outputs": [
        {
          "name": "",
          "type": "address"
        }
      ],
      "payable": false,
      "stateMutability": "view",
      "type": "function"
    },
    {
      "constant": true,
      "inputs": [],
      "name": "DEV_ZEN_EMERGENCY_CHANGE_GUEST",
      "outputs": [
        {
          "name": "",
          "type": "bytes32"
        }
      ],
      "payable": false,
      "stateMutability": "view",
      "type": "function"
    },
    {
      "constant": true,
      "inputs": [],
      "name": "ONE_AD_SLOT_PRICE",
      "outputs": [
        {
          "name": "",
          "type": "bytes32"
        }
      ],
      "payable": false,
      "stateMutability": "view",
      "type": "function"
    },
    {
      "constant": true,
      "inputs": [],
      "name": "REP_TOKENS_REWARD_TEAM_MEMBERS",
      "outputs": [
        {
          "name": "",
          "type": "bytes32"
        }
      ],
      "payable": false,
      "stateMutability": "view",
      "type": "function"
    },
    {
      "constant": true,
      "inputs": [],
      "name": "MINT_REPUTATION_TOKENS_PER_WEEK_AMOUNT",
      "outputs": [
        {
          "name": "",
          "type": "bytes32"
        }
      ],
      "payable": false,
      "stateMutability": "view",
      "type": "function"
    },
    {
      "constant": true,
      "inputs": [],
      "name": "MINT_TOKENS_PER_WEEK_AMOUNT",
      "outputs": [
        {
          "name": "",
          "type": "bytes32"
        }
      ],
      "payable": false,
      "stateMutability": "view",
      "type": "function"
    },
    {
      "constant": true,
      "inputs": [],
      "name": "DEV_ZEN_UPDATE_DAO_PARAMS",
      "outputs": [
        {
          "name": "",
          "type": "bytes32"
        }
      ],
      "payable": false,
      "stateMutability": "view",
      "type": "function"
    },
    {
      "constant": true,
      "inputs": [],
      "name": "devZenToken",
      "outputs": [
        {
          "name": "",
          "type": "address"
        }
      ],
      "payable": false,
      "stateMutability": "view",
      "type": "function"
    },
    {
      "constant": true,
      "inputs": [],
      "name": "nextEpisode",
      "outputs": [
        {
          "name": "nextShowHost",
          "type": "address"
        },
        {
          "name": "nextShowGuest",
          "type": "address"
        },
        {
          "name": "prevShowHost",
          "type": "address"
        },
        {
          "name": "prevShowGuest",
          "type": "address"
        },
        {
          "name": "usedSlots",
          "type": "uint256"
        },
        {
          "name": "createdAt",
          "type": "uint256"
        },
        {
          "name": "isEmergencyGuest",
          "type": "bool"
        }
      ],
      "payable": false,
      "stateMutability": "view",
      "type": "function"
    },
    {
      "constant": true,
      "inputs": [],
      "name": "DEV_ZEN_SELECT_NEXT_HOST",
      "outputs": [
        {
          "name": "",
          "type": "bytes32"
        }
      ],
      "payable": false,
      "stateMutability": "view",
      "type": "function"
    },
    {
      "constant": true,
      "inputs": [],
      "name": "REP_TOKENS_REWARD_HOST",
      "outputs": [
        {
          "name": "",
          "type": "bytes32"
        }
      ],
      "payable": false,
      "stateMutability": "view",
      "type": "function"
    },
    {
      "constant": true,
      "inputs": [],
      "name": "BECOME_GUEST_STAKE",
      "outputs": [
        {
          "name": "",
          "type": "bytes32"
        }
      ],
      "payable": false,
      "stateMutability": "view",
      "type": "function"
    },
    {
      "constant": true,
      "inputs": [],
      "name": "DEV_ZEN_WITHDRAW_ETHER",
      "outputs": [
        {
          "name": "",
          "type": "bytes32"
        }
      ],
      "payable": false,
      "stateMutability": "view",
      "type": "function"
    },
    {
      "constant": false,
      "inputs": [],
      "name": "_buyTokens",
      "outputs": [],
      "payable": true,
      "stateMutability": "payable",
      "type": "function"
    },
    {
      "constant": true,
      "inputs": [],
      "name": "DEV_ZEN_MOVE_TO_NEXT_EPISODE",
      "outputs": [
        {
          "name": "",
          "type": "bytes32"
        }
      ],
      "payable": false,
      "stateMutability": "view",
      "type": "function"
    },
    {
      "constant": true,
      "inputs": [],
      "name": "DEV_ZEN_CHANGE_GUEST",
      "outputs": [
        {
          "name": "",
          "type": "bytes32"
        }
      ],
      "payable": false,
      "stateMutability": "view",
      "type": "function"
    },
    {
      "constant": true,
      "inputs": [],
      "name": "REP_TOKENS_REWARD_GUEST",
      "outputs": [
        {
          "name": "",
          "type": "bytes32"
        }
      ],
      "payable": false,
      "stateMutability": "view",
      "type": "function"
    },
    {
      "constant": true,
      "inputs": [
        {
          "name": "",
          "type": "bytes32"
        }
      ],
      "name": "params",
      "outputs": [
        {
          "name": "",
          "type": "uint256"
        }
      ],
      "payable": false,
      "stateMutability": "view",
      "type": "function"
    },
    {
      "constant": true,
      "inputs": [],
      "name": "ONE_TOKEN_PRICE_IN_WEI",
      "outputs": [
        {
          "name": "",
          "type": "bytes32"
        }
      ],
      "payable": false,
      "stateMutability": "view",
      "type": "function"
    },
    {
      "constant": false,
      "inputs": [
        {
          "name": "_newAddress",
          "type": "address"
        }
      ],
      "name": "onUpgrade",
      "outputs": [],
      "payable": false,
      "stateMutability": "nonpayable",
      "type": "function"
    },
    {
      "inputs": [
        {
          "name": "_daoBase",
          "type": "address"
        },
        {
          "name": "_tokens",
          "type": "address[]"
        }
      ],
      "payable": false,
      "stateMutability": "nonpayable",
      "type": "constructor"
    },
    {
      "payable": false,
      "stateMutability": "nonpayable",
      "type": "fallback"
    },
    {
      "anonymous": false,
      "inputs": [
        {
          "indexed": false,
          "name": "_output",
          "type": "address"
        }
      ],
      "name": "DevZenDaoCore_WithdrawEther",
      "type": "event"
    },
    {
      "anonymous": false,
      "inputs": [
        {
          "indexed": false,
          "name": "_nextHost",
          "type": "address"
        }
      ],
      "name": "DevZenDaoCore_SelectNextHost",
      "type": "event"
    },
    {
      "anonymous": false,
      "inputs": [
        {
          "indexed": false,
          "name": "_guest",
          "type": "address"
        }
      ],
      "name": "DevZenDaoCore_ChangeTheGuest",
      "type": "event"
    },
    {
      "anonymous": false,
      "inputs": [],
      "name": "DevZenDaoCore_BurnGuestStake",
      "type": "event"
    },
    {
      "anonymous": false,
      "inputs": [
        {
          "indexed": false,
          "name": "_guest",
          "type": "address"
        }
      ],
      "name": "DevZenDaoCore_Emergency_ChangeTheGuest",
      "type": "event"
    },
    {
      "anonymous": false,
      "inputs": [
        {
          "indexed": false,
          "name": "_guestHasCome",
          "type": "bool"
        }
      ],
      "name": "DevZenDaoCore_MoveToNextEpisode",
      "type": "event"
    },
    {
      "anonymous": false,
      "inputs": [
        {
          "indexed": false,
          "name": "_adText",
          "type": "string"
        }
      ],
      "name": "DevZenDaoCore_RunAdsInTheNextEpisode",
      "type": "event"
    },
    {
      "anonymous": false,
      "inputs": [],
      "name": "DevZenDaoCore_BecomeTheNextShowGuest",
      "type": "event"
    },
    {
      "anonymous": false,
      "inputs": [],
      "name": "DevZenDaoCore_BuyTokens",
      "type": "event"
    },
    {
      "anonymous": false,
      "inputs": [],
      "name": "DevZenDaoCore_IsOneWeekPassed",
      "type": "event"
    },
    {
      "anonymous": false,
      "inputs": [
        {
          "indexed": false,
          "name": "_guest",
          "type": "address"
        }
      ],
      "name": "DevZenDaoCore_SetGuest",
      "type": "event"
    },
    {
      "anonymous": false,
      "inputs": [
        {
          "indexed": false,
          "name": "_param",
          "type": "bytes32"
        },
        {
          "indexed": false,
          "name": "_value",
          "type": "uint256"
        }
      ],
      "name": "SetParam",
      "type": "event"
    },
    {
      "constant": false,
      "inputs": [
        {
          "name": "_param",
          "type": "bytes32"
        },
        {
          "name": "_value",
          "type": "uint256"
        }
      ],
      "name": "setParam",
      "outputs": [],
      "payable": false,
      "stateMutability": "nonpayable",
      "type": "function"
    },
    {
      "constant": false,
      "inputs": [
        {
          "name": "_output",
          "type": "address"
        }
      ],
      "name": "withdrawEther",
      "outputs": [],
      "payable": false,
      "stateMutability": "nonpayable",
      "type": "function"
    },
    {
      "constant": false,
      "inputs": [
        {
          "name": "_nextHost",
          "type": "address"
        }
      ],
      "name": "selectNextHost",
      "outputs": [],
      "payable": false,
      "stateMutability": "nonpayable",
      "type": "function"
    },
    {
      "constant": false,
      "inputs": [
        {
          "name": "_guest",
          "type": "address"
        }
      ],
      "name": "changeTheGuest",
      "outputs": [],
      "payable": false,
      "stateMutability": "nonpayable",
      "type": "function"
    },
    {
      "constant": false,
      "inputs": [
        {
          "name": "_guest",
          "type": "address"
        }
      ],
      "name": "emergency_ChangeTheGuest",
      "outputs": [],
      "payable": false,
      "stateMutability": "nonpayable",
      "type": "function"
    },
    {
      "constant": false,
      "inputs": [
        {
          "name": "_guestHasCome",
          "type": "bool"
        }
      ],
      "name": "moveToNextEpisode",
      "outputs": [],
      "payable": false,
      "stateMutability": "nonpayable",
      "type": "function"
    },
    {
      "constant": false,
      "inputs": [
        {
          "name": "_adText",
          "type": "string"
        }
      ],
      "name": "runAdsInTheNextEpisode",
      "outputs": [],
      "payable": false,
      "stateMutability": "nonpayable",
      "type": "function"
    },
    {
      "constant": false,
      "inputs": [],
      "name": "becomeTheNextShowGuest",
      "outputs": [],
      "payable": false,
      "stateMutability": "nonpayable",
      "type": "function"
    },
    {
      "constant": false,
      "inputs": [],
      "name": "buyTokens",
      "outputs": [],
      "payable": true,
      "stateMutability": "payable",
      "type": "function"
    },
    {
      "constant": true,
      "inputs": [],
      "name": "isOneWeekPassed",
      "outputs": [
        {
          "name": "",
          "type": "bool"
        }
      ],
      "payable": false,
      "stateMutability": "view",
      "type": "function"
    }
  ],
  "bytecode": "0x60806040523480156200001157600080fd5b50604051620036f5380380620036f58339810180604052620000379190810190620002a0565b818181806000806101000a81548173ffffffffffffffffffffffffffffffffffffffff021916908373ffffffffffffffffffffffffffffffffffffffff1602179055506000809054906101000a900473ffffffffffffffffffffffffffffffffffffffff1673ffffffffffffffffffffffffffffffffffffffff1663fb8ec972306040518263ffffffff167c0100000000000000000000000000000000000000000000000000000000028152600401620000f291906200030b565b600060405180830381600087803b1580156200010d57600080fd5b505af115801562000122573d6000803e3d6000fd5b50505050508060008151811015156200013757fe5b90602001906020020151600160006101000a81548173ffffffffffffffffffffffffffffffffffffffff021916908373ffffffffffffffffffffffffffffffffffffffff1602179055508060018151811015156200019157fe5b90602001906020020151600260006101000a81548173ffffffffffffffffffffffffffffffffffffffff021916908373ffffffffffffffffffffffffffffffffffffffff16021790555050505050620003e7565b6000620001f382516200039f565b905092915050565b600082601f83011215156200020f57600080fd5b815162000226620002208262000356565b62000328565b915081818352602084019350602081019050838560208402820111156200024c57600080fd5b60005b83811015620002805781620002658882620001e5565b8452602084019350602083019250506001810190506200024f565b5050505092915050565b6000620002988251620003bf565b905092915050565b60008060408385031215620002b457600080fd5b6000620002c4858286016200028a565b925050602083015167ffffffffffffffff811115620002e257600080fd5b620002f085828601620001fb565b9150509250929050565b6200030581620003d3565b82525050565b6000602082019050620003226000830184620002fa565b92915050565b6000604051905081810181811067ffffffffffffffff821117156200034c57600080fd5b8060405250919050565b600067ffffffffffffffff8211156200036e57600080fd5b602082029050602081019050919050565b600073ffffffffffffffffffffffffffffffffffffffff82169050919050565b600073ffffffffffffffffffffffffffffffffffffffff82169050919050565b6000620003cc826200037f565b9050919050565b6000620003e0826200037f565b9050919050565b6132fe80620003f76000396000f300608060405260043610610180576000357c0100000000000000000000000000000000000000000000000000000000900463ffffffff168063153951971461019257806329034a5c146101bb5780632ce252bf146101e65780632fafa7501461020f57806338ed6d5a1461023a57806341be44f9146102655780634d7e0ec4146102905780635651a44f146102bb5780635eda4f24146102e657806361d71edf14610311578063720948e41461033c5780637633b4ed146103675780637b92207d1461039857806382547801146103c1578063877d4522146103ea5780638beeb48814610415578063929abf841461042c5780639827e172146104575780639b66e0d6146104825780639b9db5d6146104ad5780639f30490a146104b7578063aed60563146104e0578063af933b571461050b578063c57521ec14610534578063caaa93d31461055f578063d0febe4c1461058a578063d6263c4014610594578063dc6ab527146105bd578063e2b13553146105fa578063fa34c84e14610625575b34801561018c57600080fd5b50600080fd5b34801561019e57600080fd5b506101b960048036036101b49190810190612d2a565b61064e565b005b3480156101c757600080fd5b506101d0610766565b6040516101dd919061309e565b60405180910390f35b3480156101f257600080fd5b5061020d60048036036102089190810190612de1565b61078c565b005b34801561021b57600080fd5b50610224610798565b604051610231919061305a565b60405180910390f35b34801561024657600080fd5b5061024f6107d1565b60405161025c919061305a565b60405180910390f35b34801561027157600080fd5b5061027a6107f8565b604051610287919061305a565b60405180910390f35b34801561029c57600080fd5b506102a561081f565b6040516102b2919061303f565b60405180910390f35b3480156102c757600080fd5b506102d061082e565b6040516102dd919061305a565b60405180910390f35b3480156102f257600080fd5b506102fb610855565b604051610308919061305a565b60405180910390f35b34801561031d57600080fd5b5061032661087c565b604051610333919061305a565b60405180910390f35b34801561034857600080fd5b506103516108b5565b60405161035e919061309e565b60405180910390f35b34801561037357600080fd5b5061037c6108db565b60405161038f9796959493929190612f47565b60405180910390f35b3480156103a457600080fd5b506103bf60048036036103ba9190810190612cd8565b610998565b005b3480156103cd57600080fd5b506103e860048036036103e39190810190612cd8565b610ab0565b005b3480156103f657600080fd5b506103ff610bc8565b60405161040c919061305a565b60405180910390f35b34801561042157600080fd5b5061042a610c01565b005b34801561043857600080fd5b50610441610c0b565b60405161044e919061305a565b60405180910390f35b34801561046357600080fd5b5061046c610c32565b604051610479919061305a565b60405180910390f35b34801561048e57600080fd5b50610497610c59565b6040516104a4919061305a565b60405180910390f35b6104b5610c92565b005b3480156104c357600080fd5b506104de60048036036104d99190810190612da5565b610ecc565b005b3480156104ec57600080fd5b506104f5610fe6565b604051610502919061305a565b60405180910390f35b34801561051757600080fd5b50610532600480360361052d9190810190612cd8565b61101f565b005b34801561054057600080fd5b50610549611137565b604051610556919061305a565b60405180910390f35b34801561056b57600080fd5b50610574611170565b604051610581919061305a565b60405180910390f35b610592611197565b005b3480156105a057600080fd5b506105bb60048036036105b69190810190612cd8565b6111a1565b005b3480156105c957600080fd5b506105e460048036036105df9190810190612d7c565b6112b9565b6040516105f19190613160565b60405180910390f35b34801561060657600080fd5b5061060f6112d1565b60405161061c919061305a565b60405180910390f35b34801561063157600080fd5b5061064c60048036036106479190810190612cd8565b6112f8565b005b60405180807f4465765a656e5f6d6f7665546f4e657874457069736f64650000000000000000815250601801905060405180910390206000809054906101000a900473ffffffffffffffffffffffffffffffffffffffff1673ffffffffffffffffffffffffffffffffffffffff166322e320f733836040518363ffffffff167c01000000000000000000000000000000000000000000000000000000000281526004016106fc929190612fed565b602060405180830381600087803b15801561071657600080fd5b505af115801561072a573d6000803e3d6000fd5b505050506040513d601f19601f8201168201806040525061074e9190810190612d53565b151561075957600080fd5b61076282611396565b5050565b600260009054906101000a900473ffffffffffffffffffffffffffffffffffffffff1681565b61079581611ecd565b50565b60405180807f4465765a656e5f656d657267656e63794368616e676547756573740000000000815250601b019050604051809103902081565b7f2fc30c0260b9c2120dbb43e5716b23b323cb0059511c89856fe497bcaf93cbe060010281565b7f8097db39df04019c8a72c19c6369ebda43741c8e2a45d27badc3e4ff8ecc3d0b60010281565b6000610829612156565b905090565b7ff62293a5f827624aae2cb3ccf2a626acfb00192eb976ac25c0b6fcfe9099f10960010281565b7fc9b51a76ddd807905ae4f432305a7941a6eeed3018a217456051bf48a64b23cc60010281565b60405180807f4465765a656e5f75706461746544616f506172616d73000000000000000000008152506016019050604051809103902081565b600160009054906101000a900473ffffffffffffffffffffffffffffffffffffffff1681565b60038060000160009054906101000a900473ffffffffffffffffffffffffffffffffffffffff16908060010160009054906101000a900473ffffffffffffffffffffffffffffffffffffffff16908060020160009054906101000a900473ffffffffffffffffffffffffffffffffffffffff16908060030160009054906101000a900473ffffffffffffffffffffffffffffffffffffffff16908060050154908060060154908060070160009054906101000a900460ff16905087565b60405180807f4465765a656e5f73656c6563744e657874486f73740000000000000000000000815250601501905060405180910390206000809054906101000a900473ffffffffffffffffffffffffffffffffffffffff1673ffffffffffffffffffffffffffffffffffffffff166322e320f733836040518363ffffffff167c0100000000000000000000000000000000000000000000000000000000028152600401610a46929190612fed565b602060405180830381600087803b158015610a6057600080fd5b505af1158015610a74573d6000803e3d6000fd5b505050506040513d601f19601f82011682018060405250610a989190810190612d53565b1515610aa357600080fd5b610aac826121af565b5050565b60405180807f4465765a656e5f6368616e676547756573740000000000000000000000000000815250601201905060405180910390206000809054906101000a900473ffffffffffffffffffffffffffffffffffffffff1673ffffffffffffffffffffffffffffffffffffffff166322e320f733836040518363ffffffff167c0100000000000000000000000000000000000000000000000000000000028152600401610b5e929190612fed565b602060405180830381600087803b158015610b7857600080fd5b505af1158015610b8c573d6000803e3d6000fd5b505050506040513d601f19601f82011682018060405250610bb09190810190612d53565b1515610bbb57600080fd5b610bc482612277565b5050565b60405180807f4465765a656e5f73656c6563744e657874486f737400000000000000000000008152506015019050604051809103902081565b610c09612472565b565b7f91a208a4a1aa03cdcf19de90fdf6add60ea8d103a63e151f2b189cc77dfc8cf760010281565b7f3016d4c48f6a1e0a92b321085915d5914a9ab2c36783443e2b6066054b37f7c460010281565b60405180807f4465765a656e5f776974686472617745746865720000000000000000000000008152506014019050604051809103902081565b60007f37a4fd01aee7abe5c04a0f0246d9796a5769b74e4fb6f300b753f94715ceda6060405160405180910390a160003414151515610cd057600080fd5b600b60007f1d18f55c54a96a26d4aaa596d526372f95c7cef9f217e9bbe766cea1685969076001026000191660001916815260200190815260200160002054670de0b6b3a76400003402811515610d2357fe5b04905080600160009054906101000a900473ffffffffffffffffffffffffffffffffffffffff1673ffffffffffffffffffffffffffffffffffffffff166370a08231306040518263ffffffff167c0100000000000000000000000000000000000000000000000000000000028152600401610d9e9190612f03565b602060405180830381600087803b158015610db857600080fd5b505af1158015610dcc573d6000803e3d6000fd5b505050506040513d601f19601f82011682018060405250610df09190810190612e22565b10151515610dfd57600080fd5b600160009054906101000a900473ffffffffffffffffffffffffffffffffffffffff1673ffffffffffffffffffffffffffffffffffffffff1663a9059cbb33836040518363ffffffff167c0100000000000000000000000000000000000000000000000000000000028152600401610e76929190613016565b602060405180830381600087803b158015610e9057600080fd5b505af1158015610ea4573d6000803e3d6000fd5b505050506040513d601f19601f82011682018060405250610ec89190810190612d53565b5050565b60405180807f4465765a656e5f75706461746544616f506172616d7300000000000000000000815250601601905060405180910390206000809054906101000a900473ffffffffffffffffffffffffffffffffffffffff1673ffffffffffffffffffffffffffffffffffffffff166322e320f733836040518363ffffffff167c0100000000000000000000000000000000000000000000000000000000028152600401610f7a929190612fed565b602060405180830381600087803b158015610f9457600080fd5b505af1158015610fa8573d6000803e3d6000fd5b505050506040513d601f19601f82011682018060405250610fcc9190810190612d53565b1515610fd757600080fd5b610fe183836124f3565b505050565b60405180807f4465765a656e5f6d6f7665546f4e657874457069736f646500000000000000008152506018019050604051809103902081565b60405180807f4465765a656e5f77697468647261774574686572000000000000000000000000815250601401905060405180910390206000809054906101000a900473ffffffffffffffffffffffffffffffffffffffff1673ffffffffffffffffffffffffffffffffffffffff166322e320f733836040518363ffffffff167c01000000000000000000000000000000000000000000000000000000000281526004016110cd929190612fed565b602060405180830381600087803b1580156110e757600080fd5b505af11580156110fb573d6000803e3d6000fd5b505050506040513d601f19601f8201168201806040525061111f9190810190612d53565b151561112a57600080fd5b61113382612550565b5050565b60405180807f4465765a656e5f6368616e6765477565737400000000000000000000000000008152506012019050604051809103902081565b7f9cf4c579edc10b766d99450c69f14a06144239d4923ded8d12e0a7d6ec69a04860010281565b61119f610c92565b565b60405180807f4465765a656e5f656d657267656e63794368616e676547756573740000000000815250601b01905060405180910390206000809054906101000a900473ffffffffffffffffffffffffffffffffffffffff1673ffffffffffffffffffffffffffffffffffffffff166322e320f733836040518363ffffffff167c010000000000000000000000000000000000000000000000000000000002815260040161124f929190612fed565b602060405180830381600087803b15801561126957600080fd5b505af115801561127d573d6000803e3d6000fd5b505050506040513d601f19601f820116820180604052506112a19190810190612d53565b15156112ac57600080fd5b6112b5826125e8565b5050565b600b6020528060005260406000206000915090505481565b7f1d18f55c54a96a26d4aaa596d526372f95c7cef9f217e9bbe766cea16859690760010281565b6000809054906101000a900473ffffffffffffffffffffffffffffffffffffffff1673ffffffffffffffffffffffffffffffffffffffff163373ffffffffffffffffffffffffffffffffffffffff1614151561135357600080fd5b806000806101000a81548173ffffffffffffffffffffffffffffffffffffffff021916908373ffffffffffffffffffffffffffffffffffffffff16021790555050565b6000806000807f7094f422de4ba2659b3ef619ecd18003fb4be795afb7fe1372e165d84b4e5409856040516113cb919061303f565b60405180910390a16113db612156565b15156113e657600080fd5b6000809054906101000a900473ffffffffffffffffffffffffffffffffffffffff1673ffffffffffffffffffffffffffffffffffffffff16632459bac8600160009054906101000a900473ffffffffffffffffffffffffffffffffffffffff1630600b60007fc9b51a76ddd807905ae4f432305a7941a6eeed3018a217456051bf48a64b23cc60010260001916600019168152602001908152602001600020546040518463ffffffff167c01000000000000000000000000000000000000000000000000000000000281526004016114c093929190612fb6565b600060405180830381600087803b1580156114da57600080fd5b505af11580156114ee573d6000803e3d6000fd5b505050506000809054906101000a900473ffffffffffffffffffffffffffffffffffffffff1673ffffffffffffffffffffffffffffffffffffffff16632459bac8600260009054906101000a900473ffffffffffffffffffffffffffffffffffffffff1630600b60007ff62293a5f827624aae2cb3ccf2a626acfb00192eb976ac25c0b6fcfe9099f10960010260001916600019168152602001908152602001600020546040518463ffffffff167c01000000000000000000000000000000000000000000000000000000000281526004016115cc93929190612fb6565b600060405180830381600087803b1580156115e657600080fd5b505af11580156115fa573d6000803e3d6000fd5b50505050600360000160009054906101000a900473ffffffffffffffffffffffffffffffffffffffff16600360020160006101000a81548173ffffffffffffffffffffffffffffffffffffffff021916908373ffffffffffffffffffffffffffffffffffffffff160217905550600360010160009054906101000a900473ffffffffffffffffffffffffffffffffffffffff166003800160006101000a81548173ffffffffffffffffffffffffffffffffffffffff021916908373ffffffffffffffffffffffffffffffffffffffff1602179055506000600360000160006101000a81548173ffffffffffffffffffffffffffffffffffffffff021916908373ffffffffffffffffffffffffffffffffffffffff1602179055506000600360010160006101000a81548173ffffffffffffffffffffffffffffffffffffffff021916908373ffffffffffffffffffffffffffffffffffffffff16021790555060006003600501819055504260036006018190555084156118a5576000809054906101000a900473ffffffffffffffffffffffffffffffffffffffff1673ffffffffffffffffffffffffffffffffffffffff16632459bac8600260009054906101000a900473ffffffffffffffffffffffffffffffffffffffff166003800160009054906101000a900473ffffffffffffffffffffffffffffffffffffffff16600b60007f9cf4c579edc10b766d99450c69f14a06144239d4923ded8d12e0a7d6ec69a04860010260001916600019168152602001908152602001600020546040518463ffffffff167c010000000000000000000000000000000000000000000000000000000002815260040161187293929190612fb6565b600060405180830381600087803b15801561188c57600080fd5b505af11580156118a0573d6000803e3d6000fd5b505050505b6000809054906101000a900473ffffffffffffffffffffffffffffffffffffffff1673ffffffffffffffffffffffffffffffffffffffff16632459bac8600260009054906101000a900473ffffffffffffffffffffffffffffffffffffffff16600360020160009054906101000a900473ffffffffffffffffffffffffffffffffffffffff16600b60007f91a208a4a1aa03cdcf19de90fdf6add60ea8d103a63e151f2b189cc77dfc8cf760010260001916600019168152602001908152602001600020546040518463ffffffff167c01000000000000000000000000000000000000000000000000000000000281526004016119a493929190612fb6565b600060405180830381600087803b1580156119be57600080fd5b505af11580156119d2573d6000803e3d6000fd5b505050506000809054906101000a900473ffffffffffffffffffffffffffffffffffffffff1673ffffffffffffffffffffffffffffffffffffffff1663ef9c82266040518163ffffffff167c0100000000000000000000000000000000000000000000000000000000028152600401611a4a90613112565b602060405180830381600087803b158015611a6457600080fd5b505af1158015611a78573d6000803e3d6000fd5b505050506040513d601f19601f82011682018060405250611a9c9190810190612e22565b935060018410151515611aab57fe5b60018403600b60007f8097db39df04019c8a72c19c6369ebda43741c8e2a45d27badc3e4ff8ecc3d0b6001026000191660001916815260200190815260200160002054811515611af757fe5b049250600090505b83811015611d05576000809054906101000a900473ffffffffffffffffffffffffffffffffffffffff1673ffffffffffffffffffffffffffffffffffffffff1663ed28c035826040518263ffffffff167c0100000000000000000000000000000000000000000000000000000000028152600401611b7d9190613132565b602060405180830381600087803b158015611b9757600080fd5b505af1158015611bab573d6000803e3d6000fd5b505050506040513d601f19601f82011682018060405250611bcf9190810190612d01565b9150600360020160009054906101000a900473ffffffffffffffffffffffffffffffffffffffff1673ffffffffffffffffffffffffffffffffffffffff168273ffffffffffffffffffffffffffffffffffffffff16141515611cfa576000809054906101000a900473ffffffffffffffffffffffffffffffffffffffff1673ffffffffffffffffffffffffffffffffffffffff16632459bac8600260009054906101000a900473ffffffffffffffffffffffffffffffffffffffff1684866040518463ffffffff167c0100000000000000000000000000000000000000000000000000000000028152600401611cc793929190612fb6565b600060405180830381600087803b158015611ce157600080fd5b505af1158015611cf5573d6000803e3d6000fd5b505050505b806001019050611aff565b848015611d225750600360070160009054906101000a900460ff16155b15611e5a57600160009054906101000a900473ffffffffffffffffffffffffffffffffffffffff1673ffffffffffffffffffffffffffffffffffffffff1663a9059cbb6003800160009054906101000a900473ffffffffffffffffffffffffffffffffffffffff16600b60007f3016d4c48f6a1e0a92b321085915d5914a9ab2c36783443e2b6066054b37f7c460010260001916600019168152602001908152602001600020546040518363ffffffff167c0100000000000000000000000000000000000000000000000000000000028152600401611e02929190613016565b602060405180830381600087803b158015611e1c57600080fd5b505af1158015611e30573d6000803e3d6000fd5b505050506040513d601f19601f82011682018060405250611e549190810190612d53565b50611ea8565b60006003800160009054906101000a900473ffffffffffffffffffffffffffffffffffffffff1673ffffffffffffffffffffffffffffffffffffffff16141515611ea757611ea6612698565b5b5b6000600360070160006101000a81548160ff0219169083151502179055505050505050565b7fbd68938576ee5ae65475f13b5586228c07d89250cfc3f9c16c324a17157686eb81604051611efc91906130f0565b60405180910390a16005600360050154101515611f1857600080fd5b6000600160009054906101000a900473ffffffffffffffffffffffffffffffffffffffff1673ffffffffffffffffffffffffffffffffffffffff166370a08231336040518263ffffffff167c0100000000000000000000000000000000000000000000000000000000028152600401611f919190612f03565b602060405180830381600087803b158015611fab57600080fd5b505af1158015611fbf573d6000803e3d6000fd5b505050506040513d601f19601f82011682018060405250611fe39190810190612e22565b14151515611ff057600080fd5b6000809054906101000a900473ffffffffffffffffffffffffffffffffffffffff1673ffffffffffffffffffffffffffffffffffffffff1663423c3a48600160009054906101000a900473ffffffffffffffffffffffffffffffffffffffff1633600b60007f2fc30c0260b9c2120dbb43e5716b23b323cb0059511c89856fe497bcaf93cbe060010260001916600019168152602001908152602001600020546040518463ffffffff167c01000000000000000000000000000000000000000000000000000000000281526004016120ca939291906130b9565b600060405180830381600087803b1580156120e457600080fd5b505af11580156120f8573d6000803e3d6000fd5b50505050600360040181908060018154018082558091505090600182039060005260206000200160009091929091909150908051906020019061213c929190612b51565b505060036005016000815480929190600101919050555050565b60007fc39a03bef078aad2cc206959ecb62b94c746780d2e9da79694332081ecc0392a60405160405180910390a16000600360060154141561219b57600190506121ac565b4262093a8060036006015401111590505b90565b7f759e8ce613b23b25a4b30b86470dd5e31746c314c41f0aa90f20594d338a8897816040516121de9190612f03565b60405180910390a1600360000160009054906101000a900473ffffffffffffffffffffffffffffffffffffffff1673ffffffffffffffffffffffffffffffffffffffff16600014151561223057600080fd5b80600360000160006101000a81548173ffffffffffffffffffffffffffffffffffffffff021916908373ffffffffffffffffffffffffffffffffffffffff16021790555050565b60007fadeb1da144b71a0e1e5175f16e68146daf916560a4da4e3d71536684ada44313826040516122a89190612f03565b60405180910390a1600360010160009054906101000a900473ffffffffffffffffffffffffffffffffffffffff1673ffffffffffffffffffffffffffffffffffffffff166000141515156122fb57600080fd5b600360010160009054906101000a900473ffffffffffffffffffffffffffffffffffffffff16905061232c826127d2565b600360070160009054906101000a900460ff16151561245057600160009054906101000a900473ffffffffffffffffffffffffffffffffffffffff1673ffffffffffffffffffffffffffffffffffffffff1663a9059cbb82600b60007f3016d4c48f6a1e0a92b321085915d5914a9ab2c36783443e2b6066054b37f7c460010260001916600019168152602001908152602001600020546040518363ffffffff167c01000000000000000000000000000000000000000000000000000000000281526004016123fc929190613016565b602060405180830381600087803b15801561241657600080fd5b505af115801561242a573d6000803e3d6000fd5b505050506040513d601f19601f8201168201806040525061244e9190810190612d53565b505b6000600360070160006101000a81548160ff0219169083151502179055505050565b7fc2cbfcb3b4b42c75a99bb19371e4dad7655b3ebac98704718a5f6b943b8f567560405160405180910390a1600360010160009054906101000a900473ffffffffffffffffffffffffffffffffffffffff1673ffffffffffffffffffffffffffffffffffffffff1660001415156124e857600080fd5b6124f1336127d2565b565b7ff04ee4a7c5e0072de141f68fbec4aba82bfa0866ce04ad1f286b8602e0cbcfa68282604051612524929190613075565b60405180910390a180600b60008460001916600019168152602001908152602001600020819055505050565b7f21d39a02fe7ea0f80ee46ebdc1ec80f10d3b9836d43471104563d680ff71526b8160405161257f9190612f03565b60405180910390a18073ffffffffffffffffffffffffffffffffffffffff166108fc3073ffffffffffffffffffffffffffffffffffffffff16319081150290604051600060405180830381858888f193505050501580156125e4573d6000803e3d6000fd5b5050565b6000600360010160009054906101000a900473ffffffffffffffffffffffffffffffffffffffff1673ffffffffffffffffffffffffffffffffffffffff161415151561263357600080fd5b80600360010160006101000a81548173ffffffffffffffffffffffffffffffffffffffff021916908373ffffffffffffffffffffffffffffffffffffffff1602179055506001600360070160006101000a81548160ff02191690831515021790555050565b7f8c720b1671735d857a9d2b27c9e78336dbd2be8e9977a2a1febc1904603e6fa360405160405180910390a16000809054906101000a900473ffffffffffffffffffffffffffffffffffffffff1673ffffffffffffffffffffffffffffffffffffffff1663423c3a48600160009054906101000a900473ffffffffffffffffffffffffffffffffffffffff1630600b60007f3016d4c48f6a1e0a92b321085915d5914a9ab2c36783443e2b6066054b37f7c460010260001916600019168152602001908152602001600020546040518463ffffffff167c010000000000000000000000000000000000000000000000000000000002815260040161279e939291906130b9565b600060405180830381600087803b1580156127b857600080fd5b505af11580156127cc573d6000803e3d6000fd5b50505050565b600b60007f3016d4c48f6a1e0a92b321085915d5914a9ab2c36783443e2b6066054b37f7c46001026000191660001916815260200190815260200160002054600160009054906101000a900473ffffffffffffffffffffffffffffffffffffffff1673ffffffffffffffffffffffffffffffffffffffff166370a08231836040518263ffffffff167c01000000000000000000000000000000000000000000000000000000000281526004016128889190612f03565b602060405180830381600087803b1580156128a257600080fd5b505af11580156128b6573d6000803e3d6000fd5b505050506040513d601f19601f820116820180604052506128da9190810190612e22565b101515156128e757600080fd5b600b60007f3016d4c48f6a1e0a92b321085915d5914a9ab2c36783443e2b6066054b37f7c46001026000191660001916815260200190815260200160002054600160009054906101000a900473ffffffffffffffffffffffffffffffffffffffff1673ffffffffffffffffffffffffffffffffffffffff1663dd62ed3e83306040518363ffffffff167c010000000000000000000000000000000000000000000000000000000002815260040161299f929190612f1e565b602060405180830381600087803b1580156129b957600080fd5b505af11580156129cd573d6000803e3d6000fd5b505050506040513d601f19601f820116820180604052506129f19190810190612e22565b101515156129fe57600080fd5b600160009054906101000a900473ffffffffffffffffffffffffffffffffffffffff1673ffffffffffffffffffffffffffffffffffffffff166323b872dd8230600b60007f3016d4c48f6a1e0a92b321085915d5914a9ab2c36783443e2b6066054b37f7c460010260001916600019168152602001908152602001600020546040518463ffffffff167c0100000000000000000000000000000000000000000000000000000000028152600401612ab793929190612fb6565b602060405180830381600087803b158015612ad157600080fd5b505af1158015612ae5573d6000803e3d6000fd5b505050506040513d601f19601f82011682018060405250612b099190810190612d53565b5080600360010160006101000a81548173ffffffffffffffffffffffffffffffffffffffff021916908373ffffffffffffffffffffffffffffffffffffffff16021790555050565b828054600181600116156101000203166002900490600052602060002090601f016020900481019282601f10612b9257805160ff1916838001178555612bc0565b82800160010185558215612bc0579182015b82811115612bbf578251825591602001919060010190612ba4565b5b509050612bcd9190612bd1565b5090565b612bf391905b80821115612bef576000816000905550600101612bd7565b5090565b90565b6000612c02823561321f565b905092915050565b6000612c16825161321f565b905092915050565b6000612c2a823561323f565b905092915050565b6000612c3e825161323f565b905092915050565b6000612c52823561324b565b905092915050565b600082601f8301121515612c6d57600080fd5b8135612c80612c7b826131a8565b61317b565b91508082526020830160208301858383011115612c9c57600080fd5b612ca7838284613271565b50505092915050565b6000612cbc8235613255565b905092915050565b6000612cd08251613255565b905092915050565b600060208284031215612cea57600080fd5b6000612cf884828501612bf6565b91505092915050565b600060208284031215612d1357600080fd5b6000612d2184828501612c0a565b91505092915050565b600060208284031215612d3c57600080fd5b6000612d4a84828501612c1e565b91505092915050565b600060208284031215612d6557600080fd5b6000612d7384828501612c32565b91505092915050565b600060208284031215612d8e57600080fd5b6000612d9c84828501612c46565b91505092915050565b60008060408385031215612db857600080fd5b6000612dc685828601612c46565b9250506020612dd785828601612cb0565b9150509250929050565b600060208284031215612df357600080fd5b600082013567ffffffffffffffff811115612e0d57600080fd5b612e1984828501612c5a565b91505092915050565b600060208284031215612e3457600080fd5b6000612e4284828501612cc4565b91505092915050565b612e54816131df565b82525050565b612e63816131ff565b82525050565b612e728161320b565b82525050565b612e818161325f565b82525050565b6000612e92826131d4565b808452612ea6816020860160208601613280565b612eaf816132b3565b602085010191505092915050565b6000600a82527f4465765a656e5465616d000000000000000000000000000000000000000000006020830152604082019050919050565b612efd81613215565b82525050565b6000602082019050612f186000830184612e4b565b92915050565b6000604082019050612f336000830185612e4b565b612f406020830184612e4b565b9392505050565b600060e082019050612f5c600083018a612e4b565b612f696020830189612e4b565b612f766040830188612e4b565b612f836060830187612e4b565b612f906080830186612ef4565b612f9d60a0830185612ef4565b612faa60c0830184612e5a565b98975050505050505050565b6000606082019050612fcb6000830186612e4b565b612fd86020830185612e4b565b612fe56040830184612ef4565b949350505050565b60006040820190506130026000830185612e4b565b61300f6020830184612e69565b9392505050565b600060408201905061302b6000830185612e4b565b6130386020830184612ef4565b9392505050565b60006020820190506130546000830184612e5a565b92915050565b600060208201905061306f6000830184612e69565b92915050565b600060408201905061308a6000830185612e69565b6130976020830184612ef4565b9392505050565b60006020820190506130b36000830184612e78565b92915050565b60006060820190506130ce6000830186612e78565b6130db6020830185612e4b565b6130e86040830184612ef4565b949350505050565b6000602082019050818103600083015261310a8184612e87565b905092915050565b6000602082019050818103600083015261312b81612ebd565b9050919050565b6000604082019050818103600083015261314b81612ebd565b905061315a6020830184612ef4565b92915050565b60006020820190506131756000830184612ef4565b92915050565b6000604051905081810181811067ffffffffffffffff8211171561319e57600080fd5b8060405250919050565b600067ffffffffffffffff8211156131bf57600080fd5b601f19601f8301169050602081019050919050565b600081519050919050565b600073ffffffffffffffffffffffffffffffffffffffff82169050919050565b60008115159050919050565b6000819050919050565b6000819050919050565b600073ffffffffffffffffffffffffffffffffffffffff82169050919050565b60008115159050919050565b6000819050919050565b6000819050919050565b600061326a826131df565b9050919050565b82818337600083830152505050565b60005b8381101561329e578082015181840152602081019050613283565b838111156132ad576000848401525b50505050565b6000601f19601f83011690509190505600a265627a7a72305820af65bfb0042bf0b168108c73f727faf152357046d0c6b49dfbf3f5d4049c8e396c6578706572696d656e74616cf50037",
  "source": "pragma solidity ^0.4.24;\r\n\r\n// to enable Params passing to constructor and method\r\npragma experimental ABIEncoderV2;\r\n\r\nimport \"@thetta/core/contracts/DaoBase.sol\";\r\nimport \"@thetta/core/contracts/DaoBaseImpersonated.sol\";\r\nimport \"@thetta/core/contracts/IDaoBase.sol\";\r\nimport \"@thetta/core/contracts/tokens/StdDaoToken.sol\";\r\n\r\nimport \"./DevZenDaoCore.sol\";\r\n\r\ncontract DevZenDao is DevZenDaoCore {\r\n\r\n\tconstructor(\r\n\t\tIDaoBase _daoBase,\r\n\t\taddress[] _tokens\r\n\t) public DevZenDaoCore(_daoBase, _tokens) {}\r\n\r\n\t// --------------------------------------------- \r\n\t// These methods should be called by DevZen team:\r\n\t//----------------------------------------------\r\n\r\n\t/**\r\n\t * @dev Change the DAO parameters\r\n\t * This method should require voting!\r\n\t * Notice: DevZen_updateDaoParams is a custom action!\r\n\t*/\r\n\tfunction setParam(bytes32 _param, uint _value) public isCanDo(DEV_ZEN_UPDATE_DAO_PARAMS) {\r\n\t\tsuper._setParam(_param, _value);\r\n\t}\r\n\r\n\t/**\r\n\t * @dev Withdraw all collected ETH to the _output.\r\n\t * This method should require voting!\r\n\t * Notice: DevZen_withdrawEther is a custom action!\r\n\t*/\r\n\tfunction withdrawEther(address _output) public isCanDo(DEV_ZEN_WITHDRAW_ETHER) {\r\n\t\tsuper._withdrawEther(_output);\r\n\t}\r\n\r\n\t/**\r\n\t * @dev Select next episode's host\r\n\t * This method should require voting!\r\n\t * Notice: DevZen_selectNextHost is a custom action!\r\n\t*/\r\n\tfunction selectNextHost(address _nextHost) public isCanDo(DEV_ZEN_SELECT_NEXT_HOST) {\r\n\t\tsuper._selectNextHost(_nextHost);\r\n\t}\r\n\r\n\t/**\r\n\t * @dev Changes the guest in \"legal\" way\r\n\t * @param _guest New guest address\r\n\t * When guest is changed via this function we ensure that stake is returned to previous guest.\r\n\t */\r\n\tfunction changeTheGuest(address _guest) public isCanDo(DEV_ZEN_CHANGE_GUEST) {\r\n\t\tsuper._changeTheGuest(_guest);\r\n\t}\r\n\r\n\t/**\r\n\t * @dev Set the guest (emergency)\r\n\t * In normal circumst. people should use 'becomeTheNextShowGuest' method. \r\n\t * However, sometimes DevZen team should be able to fix the next guest!\r\n\t * Notice: DevZen_emergencyChangeGuest is a custom action!\r\n\t*/\r\n\tfunction emergency_ChangeTheGuest(address _guest) public isCanDo(DEV_ZEN_EMERGENCY_CHANGE_GUEST) {\r\n\t\tsuper._emergency_ChangeTheGuest(_guest);\r\n\t}\r\n\r\n\t/**\r\n\t * @dev Move to next episode\r\n\t * @param _guestHasCome Whether the guest(initual or emergency) has come to the show\r\n\t * Should be called right AFTER the recording of the current episode\r\n\t * Notice: DevZen_moveToNextEpisode is a custom action!\r\n\t*/\r\n\tfunction moveToNextEpisode(bool _guestHasCome) public isCanDo(DEV_ZEN_MOVE_TO_NEXT_EPISODE) {\r\n\t\tsuper._moveToNextEpisode(_guestHasCome);\r\n\t}\r\n\r\n\t// ------------------------------------------------------ \r\n\t// These methods should be called by DevZen token holders\r\n\t// ------------------------------------------------------\r\n\t// Any patron (DevZen token holder) can use DevZen tokens to run ads: Burn k tokens to add your add into the slot (linear, no priority).\r\n\tfunction runAdsInTheNextEpisode(string _adText) public {\r\n\t\tsuper._runAdsInTheNextEpisode(_adText);\r\n\t}\r\n\r\n\t/**\r\n\t * @dev Become the next guest.\r\n\t * To become a guest sender should buy 5 DZT and approve dao to put them at stake. Sender will get back tokens after the show.\r\n\t */\r\n\tfunction becomeTheNextShowGuest() public {\r\n\t\tsuper._becomeTheNextShowGuest();\r\n\t}\r\n\r\n\t// ---------------------------------------------- \r\n\t// These methods should be called by any address:\r\n\t// ----------------------------------------------\r\n\r\n\t/**\r\n\t* @dev Any listener can get a ERC20 devzen tokens by sending X ETHers to the DevZen DAO and becomes a patron (i.e. token holder).\r\n    */\r\n\tfunction buyTokens() external payable {\r\n\t\tsuper._buyTokens();\r\n\t}\r\n\r\n\t/**\r\n\t * @dev Check that 1 week has passed since the last episode\r\n\t * @return true if 1 week has passed else false\r\n\t */\r\n\tfunction isOneWeekPassed() public view returns(bool) {\r\n\t\treturn super._isOneWeekPassed();\r\n\t}\r\n\r\n\t// do not allow to send ETH here. Instead use buyTokens method\r\n\tfunction() {\r\n\t\trevert();\r\n\t}\r\n}\r\n",
  "sourcePath": "C:\\Projects\\DAO-Templates\\contracts\\3-DevZenDao\\DevZenDao.sol",
  "compiler": {
    "name": "solc",
    "version": "0.4.24+commit.e67f0147.Emscripten.clang"
  },
  "schemaVersion": "2.0.1",
  "updatedAt": "2018-10-12T07:25:31.308Z"
}