{
  "contractName": "GenericProposal",
  "abi": [
    {
      "constant": false,
      "inputs": [],
      "name": "renounceOwnership",
      "outputs": [],
      "payable": false,
      "stateMutability": "nonpayable",
      "type": "function"
    },
    {
      "constant": true,
      "inputs": [],
      "name": "owner",
      "outputs": [
        {
          "name": "",
          "type": "address"
        }
      ],
      "payable": false,
      "stateMutability": "view",
      "type": "function"
    },
    {
      "constant": false,
      "inputs": [
        {
          "name": "_newOwner",
          "type": "address"
        }
      ],
      "name": "transferOwnership",
      "outputs": [],
      "payable": false,
      "stateMutability": "nonpayable",
      "type": "function"
    },
    {
      "inputs": [
        {
          "name": "_target",
          "type": "address"
        },
        {
          "name": "_origin",
          "type": "address"
        },
        {
          "name": "_methodSig",
          "type": "string"
        },
        {
          "name": "_params",
          "type": "bytes32[]"
        }
      ],
      "payable": false,
      "stateMutability": "nonpayable",
      "type": "constructor"
    },
    {
      "anonymous": false,
      "inputs": [
        {
          "indexed": false,
          "name": "_voting",
          "type": "address"
        },
        {
          "indexed": false,
          "name": "_target",
          "type": "address"
        },
        {
          "indexed": false,
          "name": "_methodSig",
          "type": "string"
        },
        {
          "indexed": false,
          "name": "_params",
          "type": "bytes32[]"
        }
      ],
      "name": "GenericProposalAction",
      "type": "event"
    },
    {
      "anonymous": false,
      "inputs": [
        {
          "indexed": true,
          "name": "previousOwner",
          "type": "address"
        }
      ],
      "name": "OwnershipRenounced",
      "type": "event"
    },
    {
      "anonymous": false,
      "inputs": [
        {
          "indexed": true,
          "name": "previousOwner",
          "type": "address"
        },
        {
          "indexed": true,
          "name": "newOwner",
          "type": "address"
        }
      ],
      "name": "OwnershipTransferred",
      "type": "event"
    },
    {
      "constant": false,
      "inputs": [],
      "name": "action",
      "outputs": [],
      "payable": false,
      "stateMutability": "nonpayable",
      "type": "function"
    },
    {
      "constant": false,
      "inputs": [
        {
          "name": "_voting",
          "type": "address"
        }
      ],
      "name": "setVoting",
      "outputs": [],
      "payable": false,
      "stateMutability": "nonpayable",
      "type": "function"
    },
    {
      "constant": true,
      "inputs": [],
      "name": "getVoting",
      "outputs": [
        {
          "name": "",
          "type": "address"
        }
      ],
      "payable": false,
      "stateMutability": "view",
      "type": "function"
    },
    {
      "constant": true,
      "inputs": [],
      "name": "getMethodSig",
      "outputs": [
        {
          "name": "",
          "type": "string"
        }
      ],
      "payable": false,
      "stateMutability": "view",
      "type": "function"
    },
    {
      "constant": true,
      "inputs": [],
      "name": "getParams",
      "outputs": [
        {
          "name": "",
          "type": "bytes32[]"
        }
      ],
      "payable": false,
      "stateMutability": "view",
      "type": "function"
    }
  ],
  "bytecode": "0x60806040523480156200001157600080fd5b5060405162000d9138038062000d9183398101806040528101908080519060200190929190805190602001909291908051820192919060200180518201929190505050336000806101000a81548173ffffffffffffffffffffffffffffffffffffffff021916908373ffffffffffffffffffffffffffffffffffffffff16021790555083600260006101000a81548173ffffffffffffffffffffffffffffffffffffffff021916908373ffffffffffffffffffffffffffffffffffffffff1602179055508060049080519060200190620000ed92919062000136565b508160039080519060200190620001069291906200018e565b5060008373ffffffffffffffffffffffffffffffffffffffff1614156200012c57600080fd5b5050505062000265565b8280548282559060005260206000209081019282156200017b579160200282015b828111156200017a57825182906000191690559160200191906001019062000157565b5b5090506200018a919062000215565b5090565b828054600181600116156101000203166002900490600052602060002090601f016020900481019282601f10620001d157805160ff191683800117855562000202565b8280016001018555821562000202579182015b8281111562000201578251825591602001919060010190620001e4565b5b5090506200021191906200023d565b5090565b6200023a91905b80821115620002365760008160009055506001016200021c565b5090565b90565b6200026291905b808211156200025e57600081600090555060010162000244565b5090565b90565b610b1c80620002756000396000f30060806040526004361061008e576000357c0100000000000000000000000000000000000000000000000000000000900463ffffffff1680630a7a1c4d146100935780631986d376146100aa5780635e615a6b14610101578063715018a61461016d5780638da5cb5b14610184578063c4d07951146101db578063d9b81c7f1461021e578063f2fde38b146102ae575b600080fd5b34801561009f57600080fd5b506100a86102f1565b005b3480156100b657600080fd5b506100bf6106a1565b604051808273ffffffffffffffffffffffffffffffffffffffff1673ffffffffffffffffffffffffffffffffffffffff16815260200191505060405180910390f35b34801561010d57600080fd5b506101166106cb565b6040518080602001828103825283818151815260200191508051906020019060200280838360005b8381101561015957808201518184015260208101905061013e565b505050509050019250505060405180910390f35b34801561017957600080fd5b50610182610727565b005b34801561019057600080fd5b50610199610829565b604051808273ffffffffffffffffffffffffffffffffffffffff1673ffffffffffffffffffffffffffffffffffffffff16815260200191505060405180910390f35b3480156101e757600080fd5b5061021c600480360381019080803573ffffffffffffffffffffffffffffffffffffffff16906020019092919050505061084e565b005b34801561022a57600080fd5b506102336108ed565b6040518080602001828103825283818151815260200191508051906020019080838360005b83811015610273578082015181840152602081019050610258565b50505050905090810190601f1680156102a05780820380516001836020036101000a031916815260200191505b509250505060405180910390f35b3480156102ba57600080fd5b506102ef600480360381019080803573ffffffffffffffffffffffffffffffffffffffff16906020019092919050505061098f565b005b7fe721b4b727f357fa658ee83e2b2134044ea66a9d14ee353ae197c6e080e99631600160009054906101000a900473ffffffffffffffffffffffffffffffffffffffff16600260009054906101000a900473ffffffffffffffffffffffffffffffffffffffff1660036004604051808573ffffffffffffffffffffffffffffffffffffffff1673ffffffffffffffffffffffffffffffffffffffff1681526020018473ffffffffffffffffffffffffffffffffffffffff1673ffffffffffffffffffffffffffffffffffffffff168152602001806020018060200183810383528581815460018160011615610100020316600290048152602001915080546001816001161561010002031660029004801561044d5780601f106104225761010080835404028352916020019161044d565b820191906000526020600020905b81548152906001019060200180831161043057829003601f168201915b5050838103825284818154815260200191508054801561049057602002820191906000526020600020905b81546000191681526020019060010190808311610478575b5050965050505050505060405180910390a1600160009054906101000a900473ffffffffffffffffffffffffffffffffffffffff1673ffffffffffffffffffffffffffffffffffffffff16600014151561054157600160009054906101000a900473ffffffffffffffffffffffffffffffffffffffff1673ffffffffffffffffffffffffffffffffffffffff163373ffffffffffffffffffffffffffffffffffffffff1614151561054057600080fd5b5b600260009054906101000a900473ffffffffffffffffffffffffffffffffffffffff1673ffffffffffffffffffffffffffffffffffffffff16600360405180828054600181600116156101000203166002900480156105d75780601f106105b55761010080835404028352918201916105d7565b820191906000526020600020905b8154815290600101906020018083116105c3575b505091505060405180910390207c01000000000000000000000000000000000000000000000000000000009004602060048054905060046040518463ffffffff167c010000000000000000000000000000000000000000000000000000000002815260040180848152602001838152602001828054801561067b57602002820191906000526020600020905b81546000191681526020019060010190808311610663575b505093505050506000604051808303816000875af192505050151561069f57600080fd5b565b6000600160009054906101000a900473ffffffffffffffffffffffffffffffffffffffff16905090565b6060600480548060200260200160405190810160405280929190818152602001828054801561071d57602002820191906000526020600020905b81546000191681526020019060010190808311610705575b5050505050905090565b6000809054906101000a900473ffffffffffffffffffffffffffffffffffffffff1673ffffffffffffffffffffffffffffffffffffffff163373ffffffffffffffffffffffffffffffffffffffff1614151561078257600080fd5b6000809054906101000a900473ffffffffffffffffffffffffffffffffffffffff1673ffffffffffffffffffffffffffffffffffffffff167ff8df31144d9c2f0f6b59d69b8b98abd5459d07f2742c4df920b25aae33c6482060405160405180910390a260008060006101000a81548173ffffffffffffffffffffffffffffffffffffffff021916908373ffffffffffffffffffffffffffffffffffffffff160217905550565b6000809054906101000a900473ffffffffffffffffffffffffffffffffffffffff1681565b6000809054906101000a900473ffffffffffffffffffffffffffffffffffffffff1673ffffffffffffffffffffffffffffffffffffffff163373ffffffffffffffffffffffffffffffffffffffff161415156108a957600080fd5b80600160006101000a81548173ffffffffffffffffffffffffffffffffffffffff021916908373ffffffffffffffffffffffffffffffffffffffff16021790555050565b606060038054600181600116156101000203166002900480601f0160208091040260200160405190810160405280929190818152602001828054600181600116156101000203166002900480156109855780601f1061095a57610100808354040283529160200191610985565b820191906000526020600020905b81548152906001019060200180831161096857829003601f168201915b5050505050905090565b6000809054906101000a900473ffffffffffffffffffffffffffffffffffffffff1673ffffffffffffffffffffffffffffffffffffffff163373ffffffffffffffffffffffffffffffffffffffff161415156109ea57600080fd5b6109f3816109f6565b50565b600073ffffffffffffffffffffffffffffffffffffffff168173ffffffffffffffffffffffffffffffffffffffff1614151515610a3257600080fd5b8073ffffffffffffffffffffffffffffffffffffffff166000809054906101000a900473ffffffffffffffffffffffffffffffffffffffff1673ffffffffffffffffffffffffffffffffffffffff167f8be0079c531659141344cd1fd0a4f28419497f9722a3daafe3b4186f6b6457e060405160405180910390a3806000806101000a81548173ffffffffffffffffffffffffffffffffffffffff021916908373ffffffffffffffffffffffffffffffffffffffff160217905550505600a165627a7a7230582080cc990dc1802c289b0bceeaa6698122e10c2d98dade8c350f50e76d5be45f190029",
  "source": "pragma solidity ^0.4.23;\n\nimport \"zeppelin-solidity/contracts/ownership/Ownable.sol\";\n\nimport \"../IDaoBase.sol\";\nimport \"../governance/IVoting.sol\";\n\n\n/**\n * @title GenericProposal \n * @dev This is the implementation of IProposal interface. Each Proposal should have voting attached. \n * This is an auto proposal that is used by GenericCaller to call actions on a _target \n * Used by GenericCaller, DaoBaseAuto, MoneyflowAuto, etc\n*/\ncontract GenericProposal is IProposal, Ownable {\n\tIVoting voting;\n\n\taddress target;\n\tstring methodSig;\n\tbytes32[] params;\n\n\tconstructor(address _target, address _origin, string _methodSig, bytes32[] _params) public {\n\t\ttarget = _target;\n\t\tparams = _params;\n\t\tmethodSig = _methodSig;\n\t\tif(_origin==0x0) {\n\t\t\trevert();\n\t\t}\n\t}\n\n\tevent GenericProposalAction(IVoting _voting, address _target, string _methodSig, bytes32[] _params);\n\n\t// IVoting implementation\n\t/**\n\t* @dev action which will be called if voting finished with yes\n\t*/\n\tfunction action() public {\n\t\temit GenericProposalAction(\n\t\t\tvoting, \n\t\t\ttarget, \n\t\t\tmethodSig, \n\t\t\tparams\n\t\t);\n\n\t\t// in some cases voting is still not set\n\t\tif(0x0!=address(voting)) {\n\t\t\trequire(msg.sender==address(voting));\n\t\t}\n\n\t\t// cool! voting is over and the majority said YES -> so let's go!\n\t\t// as long as we call this method from WITHIN the vote contract \n\t\t// isCanDoAction() should return yes if voting finished with Yes result\n\t\tif(!address(target).call(\n\t\t\tbytes4(keccak256(methodSig)),\n\t\t\tuint256(32),\t\t\t\t// pointer to the length of the array\n\t\t\tuint256(params.length), // length of the array\n\t\t\tparams)\n\t\t){\n\t\t\trevert();\n\t\t}\n\t}\n\n\t/**\n\t* @notice This function should be called only by owner\n\t* @param _voting voting instance (address)\n\t* @dev this function sets voting to proposal\n\t*/\n\tfunction setVoting(IVoting _voting) public onlyOwner {\n\t\tvoting = _voting;\n\t}\n\n\t/**\n\t* @return voting address\n\t*/\n\tfunction getVoting() public view returns(IVoting) {\n\t\treturn voting;\n\t}\n\n\t/**\n\t* @return signature of method which will be called after voting finished\n\t*/\n\tfunction getMethodSig() public view returns(string) {\n\t\treturn methodSig;\n\t}\n\n\t/**\n\t* @return params for method which will be called after voting finished\n\t*/\n\tfunction getParams() public view returns(bytes32[]) {\n\t\treturn params;\n\t}\n}\n",
  "sourcePath": "@thetta/core/contracts/governance/GenericProposal.sol",
  "compiler": {
    "name": "solc",
    "version": "0.4.24+commit.e67f0147.Emscripten.clang"
  },
  "schemaVersion": "2.0.1",
  "updatedAt": "2018-10-17T13:11:28.498Z"
}