{
  "contractName": "StdDaoToken",
  "abi": [
    {
      "constant": true,
      "inputs": [],
      "name": "mintingFinished",
      "outputs": [
        {
          "name": "",
          "type": "bool"
        }
      ],
      "payable": false,
      "stateMutability": "view",
      "type": "function"
    },
    {
      "constant": true,
      "inputs": [],
      "name": "name",
      "outputs": [
        {
          "name": "",
          "type": "string"
        }
      ],
      "payable": false,
      "stateMutability": "view",
      "type": "function"
    },
    {
      "constant": false,
      "inputs": [
        {
          "name": "_spender",
          "type": "address"
        },
        {
          "name": "_value",
          "type": "uint256"
        }
      ],
      "name": "approve",
      "outputs": [
        {
          "name": "",
          "type": "bool"
        }
      ],
      "payable": false,
      "stateMutability": "nonpayable",
      "type": "function"
    },
    {
      "constant": true,
      "inputs": [
        {
          "name": "_eventID",
          "type": "uint256"
        },
        {
          "name": "_for",
          "type": "address"
        }
      ],
      "name": "getBalanceAtEventStart",
      "outputs": [
        {
          "name": "",
          "type": "uint256"
        }
      ],
      "payable": false,
      "stateMutability": "view",
      "type": "function"
    },
    {
      "constant": true,
      "inputs": [],
      "name": "totalSupply",
      "outputs": [
        {
          "name": "",
          "type": "uint256"
        }
      ],
      "payable": false,
      "stateMutability": "view",
      "type": "function"
    },
    {
      "constant": false,
      "inputs": [
        {
          "name": "_st",
          "type": "address"
        }
      ],
      "name": "stopSnapshot",
      "outputs": [],
      "payable": false,
      "stateMutability": "nonpayable",
      "type": "function"
    },
    {
      "constant": true,
      "inputs": [
        {
          "name": "",
          "type": "uint256"
        }
      ],
      "name": "holders",
      "outputs": [
        {
          "name": "",
          "type": "address"
        }
      ],
      "payable": false,
      "stateMutability": "view",
      "type": "function"
    },
    {
      "constant": true,
      "inputs": [],
      "name": "decimals",
      "outputs": [
        {
          "name": "",
          "type": "uint8"
        }
      ],
      "payable": false,
      "stateMutability": "view",
      "type": "function"
    },
    {
      "constant": true,
      "inputs": [],
      "name": "cap",
      "outputs": [
        {
          "name": "",
          "type": "uint256"
        }
      ],
      "payable": false,
      "stateMutability": "view",
      "type": "function"
    },
    {
      "constant": true,
      "inputs": [],
      "name": "paused",
      "outputs": [
        {
          "name": "",
          "type": "bool"
        }
      ],
      "payable": false,
      "stateMutability": "view",
      "type": "function"
    },
    {
      "constant": false,
      "inputs": [
        {
          "name": "_spender",
          "type": "address"
        },
        {
          "name": "_subtractedValue",
          "type": "uint256"
        }
      ],
      "name": "decreaseApproval",
      "outputs": [
        {
          "name": "success",
          "type": "bool"
        }
      ],
      "payable": false,
      "stateMutability": "nonpayable",
      "type": "function"
    },
    {
      "constant": true,
      "inputs": [
        {
          "name": "_owner",
          "type": "address"
        }
      ],
      "name": "balanceOf",
      "outputs": [
        {
          "name": "",
          "type": "uint256"
        }
      ],
      "payable": false,
      "stateMutability": "view",
      "type": "function"
    },
    {
      "constant": false,
      "inputs": [],
      "name": "renounceOwnership",
      "outputs": [],
      "payable": false,
      "stateMutability": "nonpayable",
      "type": "function"
    },
    {
      "constant": false,
      "inputs": [],
      "name": "startNewEvent",
      "outputs": [
        {
          "name": "",
          "type": "uint256"
        }
      ],
      "payable": false,
      "stateMutability": "nonpayable",
      "type": "function"
    },
    {
      "constant": false,
      "inputs": [],
      "name": "finishMinting",
      "outputs": [
        {
          "name": "",
          "type": "bool"
        }
      ],
      "payable": false,
      "stateMutability": "nonpayable",
      "type": "function"
    },
    {
      "constant": true,
      "inputs": [],
      "name": "owner",
      "outputs": [
        {
          "name": "",
          "type": "address"
        }
      ],
      "payable": false,
      "stateMutability": "view",
      "type": "function"
    },
    {
      "constant": true,
      "inputs": [],
      "name": "symbol",
      "outputs": [
        {
          "name": "",
          "type": "string"
        }
      ],
      "payable": false,
      "stateMutability": "view",
      "type": "function"
    },
    {
      "constant": false,
      "inputs": [
        {
          "name": "_eventID",
          "type": "uint256"
        }
      ],
      "name": "finishEvent",
      "outputs": [],
      "payable": false,
      "stateMutability": "nonpayable",
      "type": "function"
    },
    {
      "constant": false,
      "inputs": [
        {
          "name": "_spender",
          "type": "address"
        },
        {
          "name": "_addedValue",
          "type": "uint256"
        }
      ],
      "name": "increaseApproval",
      "outputs": [
        {
          "name": "success",
          "type": "bool"
        }
      ],
      "payable": false,
      "stateMutability": "nonpayable",
      "type": "function"
    },
    {
      "constant": true,
      "inputs": [
        {
          "name": "_owner",
          "type": "address"
        },
        {
          "name": "_spender",
          "type": "address"
        }
      ],
      "name": "allowance",
      "outputs": [
        {
          "name": "",
          "type": "uint256"
        }
      ],
      "payable": false,
      "stateMutability": "view",
      "type": "function"
    },
    {
      "constant": false,
      "inputs": [],
      "name": "createNewSnapshot",
      "outputs": [
        {
          "name": "",
          "type": "address"
        }
      ],
      "payable": false,
      "stateMutability": "nonpayable",
      "type": "function"
    },
    {
      "constant": false,
      "inputs": [
        {
          "name": "_newOwner",
          "type": "address"
        }
      ],
      "name": "transferOwnership",
      "outputs": [],
      "payable": false,
      "stateMutability": "nonpayable",
      "type": "function"
    },
    {
      "inputs": [
        {
          "name": "_name",
          "type": "string"
        },
        {
          "name": "_symbol",
          "type": "string"
        },
        {
          "name": "_decimals",
          "type": "uint8"
        },
        {
          "name": "_isBurnable",
          "type": "bool"
        },
        {
          "name": "_isPausable",
          "type": "bool"
        },
        {
          "name": "_cap",
          "type": "uint256"
        }
      ],
      "payable": false,
      "stateMutability": "nonpayable",
      "type": "constructor"
    },
    {
      "anonymous": false,
      "inputs": [
        {
          "indexed": true,
          "name": "_address",
          "type": "address"
        },
        {
          "indexed": false,
          "name": "_votingID",
          "type": "uint256"
        }
      ],
      "name": "VotingStarted",
      "type": "event"
    },
    {
      "anonymous": false,
      "inputs": [
        {
          "indexed": true,
          "name": "_address",
          "type": "address"
        },
        {
          "indexed": false,
          "name": "_votingID",
          "type": "uint256"
        }
      ],
      "name": "VotingFinished",
      "type": "event"
    },
    {
      "anonymous": false,
      "inputs": [
        {
          "indexed": true,
          "name": "_address",
          "type": "address"
        },
        {
          "indexed": false,
          "name": "_eventID",
          "type": "uint256"
        }
      ],
      "name": "EventStarted",
      "type": "event"
    },
    {
      "anonymous": false,
      "inputs": [
        {
          "indexed": true,
          "name": "_address",
          "type": "address"
        },
        {
          "indexed": false,
          "name": "_eventID",
          "type": "uint256"
        }
      ],
      "name": "EventFinished",
      "type": "event"
    },
    {
      "anonymous": false,
      "inputs": [
        {
          "indexed": true,
          "name": "_snapshotTokenAddress",
          "type": "address"
        }
      ],
      "name": "SnapshotCreated",
      "type": "event"
    },
    {
      "anonymous": false,
      "inputs": [
        {
          "indexed": true,
          "name": "burner",
          "type": "address"
        },
        {
          "indexed": false,
          "name": "value",
          "type": "uint256"
        }
      ],
      "name": "Burn",
      "type": "event"
    },
    {
      "anonymous": false,
      "inputs": [
        {
          "indexed": true,
          "name": "to",
          "type": "address"
        },
        {
          "indexed": false,
          "name": "amount",
          "type": "uint256"
        }
      ],
      "name": "Mint",
      "type": "event"
    },
    {
      "anonymous": false,
      "inputs": [],
      "name": "MintFinished",
      "type": "event"
    },
    {
      "anonymous": false,
      "inputs": [],
      "name": "Pause",
      "type": "event"
    },
    {
      "anonymous": false,
      "inputs": [],
      "name": "Unpause",
      "type": "event"
    },
    {
      "anonymous": false,
      "inputs": [
        {
          "indexed": true,
          "name": "previousOwner",
          "type": "address"
        }
      ],
      "name": "OwnershipRenounced",
      "type": "event"
    },
    {
      "anonymous": false,
      "inputs": [
        {
          "indexed": true,
          "name": "previousOwner",
          "type": "address"
        },
        {
          "indexed": true,
          "name": "newOwner",
          "type": "address"
        }
      ],
      "name": "OwnershipTransferred",
      "type": "event"
    },
    {
      "anonymous": false,
      "inputs": [
        {
          "indexed": true,
          "name": "owner",
          "type": "address"
        },
        {
          "indexed": true,
          "name": "spender",
          "type": "address"
        },
        {
          "indexed": false,
          "name": "value",
          "type": "uint256"
        }
      ],
      "name": "Approval",
      "type": "event"
    },
    {
      "anonymous": false,
      "inputs": [
        {
          "indexed": true,
          "name": "from",
          "type": "address"
        },
        {
          "indexed": true,
          "name": "to",
          "type": "address"
        },
        {
          "indexed": false,
          "name": "value",
          "type": "uint256"
        }
      ],
      "name": "Transfer",
      "type": "event"
    },
    {
      "constant": false,
      "inputs": [],
      "name": "startNewVoting",
      "outputs": [
        {
          "name": "",
          "type": "uint256"
        }
      ],
      "payable": false,
      "stateMutability": "nonpayable",
      "type": "function"
    },
    {
      "constant": false,
      "inputs": [
        {
          "name": "_votingID",
          "type": "uint256"
        }
      ],
      "name": "finishVoting",
      "outputs": [],
      "payable": false,
      "stateMutability": "nonpayable",
      "type": "function"
    },
    {
      "constant": true,
      "inputs": [
        {
          "name": "_votingID",
          "type": "uint256"
        },
        {
          "name": "_owner",
          "type": "address"
        }
      ],
      "name": "getBalanceAtVoting",
      "outputs": [
        {
          "name": "",
          "type": "uint256"
        }
      ],
      "payable": false,
      "stateMutability": "view",
      "type": "function"
    },
    {
      "constant": false,
      "inputs": [
        {
          "name": "_to",
          "type": "address"
        },
        {
          "name": "_value",
          "type": "uint256"
        }
      ],
      "name": "transfer",
      "outputs": [
        {
          "name": "",
          "type": "bool"
        }
      ],
      "payable": false,
      "stateMutability": "nonpayable",
      "type": "function"
    },
    {
      "constant": false,
      "inputs": [
        {
          "name": "_from",
          "type": "address"
        },
        {
          "name": "_to",
          "type": "address"
        },
        {
          "name": "_value",
          "type": "uint256"
        }
      ],
      "name": "transferFrom",
      "outputs": [
        {
          "name": "",
          "type": "bool"
        }
      ],
      "payable": false,
      "stateMutability": "nonpayable",
      "type": "function"
    },
    {
      "constant": true,
      "inputs": [],
      "name": "getVotingTotalForQuadraticVoting",
      "outputs": [
        {
          "name": "",
          "type": "uint256"
        }
      ],
      "payable": false,
      "stateMutability": "view",
      "type": "function"
    },
    {
      "constant": false,
      "inputs": [
        {
          "name": "_to",
          "type": "address"
        },
        {
          "name": "_amount",
          "type": "uint256"
        }
      ],
      "name": "mint",
      "outputs": [
        {
          "name": "",
          "type": "bool"
        }
      ],
      "payable": false,
      "stateMutability": "nonpayable",
      "type": "function"
    },
    {
      "constant": false,
      "inputs": [
        {
          "name": "_to",
          "type": "address"
        },
        {
          "name": "_amount",
          "type": "uint256"
        }
      ],
      "name": "mintFor",
      "outputs": [
        {
          "name": "",
          "type": "bool"
        }
      ],
      "payable": false,
      "stateMutability": "nonpayable",
      "type": "function"
    },
    {
      "constant": false,
      "inputs": [
        {
          "name": "_value",
          "type": "uint256"
        }
      ],
      "name": "burn",
      "outputs": [],
      "payable": false,
      "stateMutability": "nonpayable",
      "type": "function"
    },
    {
      "constant": false,
      "inputs": [
        {
          "name": "_who",
          "type": "address"
        },
        {
          "name": "_value",
          "type": "uint256"
        }
      ],
      "name": "burnFor",
      "outputs": [],
      "payable": false,
      "stateMutability": "nonpayable",
      "type": "function"
    },
    {
      "constant": false,
      "inputs": [],
      "name": "pause",
      "outputs": [],
      "payable": false,
      "stateMutability": "nonpayable",
      "type": "function"
    },
    {
      "constant": false,
      "inputs": [],
      "name": "unpause",
      "outputs": [],
      "payable": false,
      "stateMutability": "nonpayable",
      "type": "function"
    }
  ],
  "bytecode": "0x60806040526000600660146101000a81548160ff0219169083151502179055506000600660156101000a81548160ff0219169083151502179055503480156200004757600080fd5b5060405162004da738038062004da78339810180604052810190808051820192919060200180518201929190602001805190602001909291908051906020019092919080519060200190929190805190602001909291905050508585858260009080519060200190620000bc929190620001f2565b508160019080519060200190620000d5929190620001f2565b5080600260006101000a81548160ff021916908360ff16021790555050505033600660006101000a81548173ffffffffffffffffffffffffffffffffffffffff021916908373ffffffffffffffffffffffffffffffffffffffff1602179055506000811115156200014557600080fd5b8060098190555082600a60006101000a81548160ff02191690831515021790555081600a60016101000a81548160ff021916908315150217905550600b3090806001815401808255809150509060018203906000526020600020016000909192909190916101000a81548173ffffffffffffffffffffffffffffffffffffffff021916908373ffffffffffffffffffffffffffffffffffffffff16021790555050505050505050620002a1565b828054600181600116156101000203166002900490600052602060002090601f016020900481019282601f106200023557805160ff191683800117855562000266565b8280016001018555821562000266579182015b828111156200026557825182559160200191906001019062000248565b5b50905062000275919062000279565b5090565b6200029e91905b808211156200029a57600081600090555060010162000280565b5090565b90565b614af680620002b16000396000f3006080604052600436106101ac576000357c0100000000000000000000000000000000000000000000000000000000900463ffffffff16806305d2035b146101b157806306fdde03146101e0578063095ea7b314610270578063154b850b146102d557806318160ddd146103365780631dd319cb146103615780631f983c5f146103ae57806323b872dd146103f15780632a11ced014610476578063313ce567146104e3578063355274ea146105145780633f4ba83a1461053f57806340c10f191461055657806342966c68146105bb57806357005109146105e85780635c975abb1461061357806362b5aff61461064257806366188463146106a357806370a0823114610708578063715018a61461075f5780637984cd4a146107765780637d64bcb4146107a15780638456cb59146107d05780638da5cb5b146107e757806395d89b411461083e578063982fb7b8146108ce578063a9059cbb146108fb578063abe7c08e14610960578063c6d30d9c1461098d578063d73dd623146109b8578063da1919b314610a1d578063dd62ed3e14610a82578063f1eaf5de14610af9578063f2fde38b14610b50575b600080fd5b3480156101bd57600080fd5b506101c6610b93565b604051808215151515815260200191505060405180910390f35b3480156101ec57600080fd5b506101f5610ba6565b6040518080602001828103825283818151815260200191508051906020019080838360005b8381101561023557808201518184015260208101905061021a565b50505050905090810190601f1680156102625780820380516001836020036101000a031916815260200191505b509250505060405180910390f35b34801561027c57600080fd5b506102bb600480360381019080803573ffffffffffffffffffffffffffffffffffffffff16906020019092919080359060200190929190505050610c44565b604051808215151515815260200191505060405180910390f35b3480156102e157600080fd5b5061032060048036038101908080359060200190929190803573ffffffffffffffffffffffffffffffffffffffff169060200190929190505050610c74565b6040518082815260200191505060405180910390f35b34801561034257600080fd5b5061034b610d83565b6040518082815260200191505060405180910390f35b34801561036d57600080fd5b506103ac600480360381019080803573ffffffffffffffffffffffffffffffffffffffff16906020019092919080359060200190929190505050610d8d565b005b3480156103ba57600080fd5b506103ef600480360381019080803573ffffffffffffffffffffffffffffffffffffffff169060200190929190505050610e12565b005b3480156103fd57600080fd5b5061045c600480360381019080803573ffffffffffffffffffffffffffffffffffffffff169060200190929190803573ffffffffffffffffffffffffffffffffffffffff16906020019092919080359060200190929190505050610eed565b604051808215151515815260200191505060405180910390f35b34801561048257600080fd5b506104a160048036038101908080359060200190929190505050611031565b604051808273ffffffffffffffffffffffffffffffffffffffff1673ffffffffffffffffffffffffffffffffffffffff16815260200191505060405180910390f35b3480156104ef57600080fd5b506104f861106f565b604051808260ff1660ff16815260200191505060405180910390f35b34801561052057600080fd5b50610529611082565b6040518082815260200191505060405180910390f35b34801561054b57600080fd5b50610554611088565b005b34801561056257600080fd5b506105a1600480360381019080803573ffffffffffffffffffffffffffffffffffffffff16906020019092919080359060200190929190505050611109565b604051808215151515815260200191505060405180910390f35b3480156105c757600080fd5b506105e660048036038101908080359060200190929190505050611188565b005b3480156105f457600080fd5b506105fd61118d565b6040518082815260200191505060405180910390f35b34801561061f57600080fd5b50610628611374565b604051808215151515815260200191505060405180910390f35b34801561064e57600080fd5b5061068d60048036038101908080359060200190929190803573ffffffffffffffffffffffffffffffffffffffff169060200190929190505050611387565b6040518082815260200191505060405180910390f35b3480156106af57600080fd5b506106ee600480360381019080803573ffffffffffffffffffffffffffffffffffffffff1690602001909291908035906020019092919050505061139b565b604051808215151515815260200191505060405180910390f35b34801561071457600080fd5b50610749600480360381019080803573ffffffffffffffffffffffffffffffffffffffff1690602001909291905050506113cb565b6040518082815260200191505060405180910390f35b34801561076b57600080fd5b50610774611414565b005b34801561078257600080fd5b5061078b611519565b6040518082815260200191505060405180910390f35b3480156107ad57600080fd5b506107b6611594565b604051808215151515815260200191505060405180910390f35b3480156107dc57600080fd5b506107e561165c565b005b3480156107f357600080fd5b506107fc6116dd565b604051808273ffffffffffffffffffffffffffffffffffffffff1673ffffffffffffffffffffffffffffffffffffffff16815260200191505060405180910390f35b34801561084a57600080fd5b50610853611703565b6040518080602001828103825283818151815260200191508051906020019080838360005b83811015610893578082015181840152602081019050610878565b50505050905090810190601f1680156108c05780820380516001836020036101000a031916815260200191505b509250505060405180910390f35b3480156108da57600080fd5b506108f9600480360381019080803590602001909291905050506117a1565b005b34801561090757600080fd5b50610946600480360381019080803573ffffffffffffffffffffffffffffffffffffffff16906020019092919080359060200190929190505050611819565b604051808215151515815260200191505060405180910390f35b34801561096c57600080fd5b5061098b6004803603810190808035906020019092919050505061195b565b005b34801561099957600080fd5b506109a26119d1565b6040518082815260200191505060405180910390f35b3480156109c457600080fd5b50610a03600480360381019080803573ffffffffffffffffffffffffffffffffffffffff16906020019092919080359060200190929190505050611a4f565b604051808215151515815260200191505060405180910390f35b348015610a2957600080fd5b50610a68600480360381019080803573ffffffffffffffffffffffffffffffffffffffff16906020019092919080359060200190929190505050611a7f565b604051808215151515815260200191505060405180910390f35b348015610a8e57600080fd5b50610ae3600480360381019080803573ffffffffffffffffffffffffffffffffffffffff169060200190929190803573ffffffffffffffffffffffffffffffffffffffff169060200190929190505050611c42565b6040518082815260200191505060405180910390f35b348015610b0557600080fd5b50610b0e611cc9565b604051808273ffffffffffffffffffffffffffffffffffffffff1673ffffffffffffffffffffffffffffffffffffffff16815260200191505060405180910390f35b348015610b5c57600080fd5b50610b91600480360381019080803573ffffffffffffffffffffffffffffffffffffffff169060200190929190505050611eb2565b005b600660159054906101000a900460ff1681565b60008054600181600116156101000203166002900480601f016020809104026020016040519081016040528092919081815260200182805460018160011615610100020316600290048015610c3c5780601f10610c1157610100808354040283529160200191610c3c565b820191906000526020600020905b815481529060010190602001808311610c1f57829003601f168201915b505050505081565b6000600660149054906101000a900460ff16151515610c6257600080fd5b610c6c8383611f1a565b905092915050565b600060078054905083101515610c8957600080fd5b600783815481101515610c9857fe5b906000526020600020906003020160010160009054906101000a900460ff161515610cc257600080fd5b610ccc838361200c565b1515610d1957600360008373ffffffffffffffffffffffffffffffffffffffff1673ffffffffffffffffffffffffffffffffffffffff168152602001908152602001600020549050610d7d565b600783815481101515610d2857fe5b906000526020600020906003020160000160008373ffffffffffffffffffffffffffffffffffffffff1673ffffffffffffffffffffffffffffffffffffffff1681526020019081526020016000206000015490505b92915050565b6000600454905090565b600a60009054906101000a900460ff161515610da857600080fd5b600660009054906101000a900473ffffffffffffffffffffffffffffffffffffffff1673ffffffffffffffffffffffffffffffffffffffff163373ffffffffffffffffffffffffffffffffffffffff16141515610e0457600080fd5b610e0e828261209a565b5050565b600660009054906101000a900473ffffffffffffffffffffffffffffffffffffffff1673ffffffffffffffffffffffffffffffffffffffff163373ffffffffffffffffffffffffffffffffffffffff16141515610e6e57600080fd5b8073ffffffffffffffffffffffffffffffffffffffff1663d56b28896040518163ffffffff167c0100000000000000000000000000000000000000000000000000000000028152600401600060405180830381600087803b158015610ed257600080fd5b505af1158015610ee6573d6000803e3d6000fd5b5050505050565b6000600660149054906101000a900460ff16151515610f0b57600080fd5b600c60008473ffffffffffffffffffffffffffffffffffffffff1673ffffffffffffffffffffffffffffffffffffffff16815260200190815260200160002060009054906101000a900460ff16151561101d57600b8390806001815401808255809150509060018203906000526020600020016000909192909190916101000a81548173ffffffffffffffffffffffffffffffffffffffff021916908373ffffffffffffffffffffffffffffffffffffffff160217905550506001600c60008573ffffffffffffffffffffffffffffffffffffffff1673ffffffffffffffffffffffffffffffffffffffff16815260200190815260200160002060006101000a81548160ff0219169083151502179055505b6110288484846120b1565b90509392505050565b600b8181548110151561104057fe5b906000526020600020016000915054906101000a900473ffffffffffffffffffffffffffffffffffffffff1681565b600260009054906101000a900460ff1681565b60095481565b600a60019054906101000a900460ff1615156110a357600080fd5b600660009054906101000a900473ffffffffffffffffffffffffffffffffffffffff1673ffffffffffffffffffffffffffffffffffffffff163373ffffffffffffffffffffffffffffffffffffffff161415156110ff57600080fd5b6111076120d1565b565b6000600660159054906101000a900460ff1615151561112757600080fd5b600660009054906101000a900473ffffffffffffffffffffffffffffffffffffffff1673ffffffffffffffffffffffffffffffffffffffff163373ffffffffffffffffffffffffffffffffffffffff1614151561118357600080fd5b600080fd5b600080fd5b6000806000809150600090505b600b8054905081101561136c5773__UtilsLib______________________________63677342ce3073ffffffffffffffffffffffffffffffffffffffff166370a08231600b858154811015156111ec57fe5b9060005260206000200160009054906101000a900473ffffffffffffffffffffffffffffffffffffffff166040518263ffffffff167c0100000000000000000000000000000000000000000000000000000000028152600401808273ffffffffffffffffffffffffffffffffffffffff1673ffffffffffffffffffffffffffffffffffffffff168152602001915050602060405180830381600087803b15801561129557600080fd5b505af11580156112a9573d6000803e3d6000fd5b505050506040513d60208110156112bf57600080fd5b81019080805190602001909291905050506040518263ffffffff167c01000000000000000000000000000000000000000000000000000000000281526004018082815260200191505060206040518083038186803b15801561132057600080fd5b505af4158015611334573d6000803e3d6000fd5b505050506040513d602081101561134a57600080fd5b810190808051906020019092919050505082019150808060010191505061119a565b819250505090565b600660149054906101000a900460ff1681565b60006113938383610c74565b905092915050565b6000600660149054906101000a900460ff161515156113b957600080fd5b6113c38383612191565b905092915050565b6000600360008373ffffffffffffffffffffffffffffffffffffffff1673ffffffffffffffffffffffffffffffffffffffff168152602001908152602001600020549050919050565b600660009054906101000a900473ffffffffffffffffffffffffffffffffffffffff1673ffffffffffffffffffffffffffffffffffffffff163373ffffffffffffffffffffffffffffffffffffffff1614151561147057600080fd5b600660009054906101000a900473ffffffffffffffffffffffffffffffffffffffff1673ffffffffffffffffffffffffffffffffffffffff167ff8df31144d9c2f0f6b59d69b8b98abd5459d07f2742c4df920b25aae33c6482060405160405180910390a26000600660006101000a81548173ffffffffffffffffffffffffffffffffffffffff021916908373ffffffffffffffffffffffffffffffffffffffff160217905550565b6000600660009054906101000a900473ffffffffffffffffffffffffffffffffffffffff1673ffffffffffffffffffffffffffffffffffffffff163373ffffffffffffffffffffffffffffffffffffffff16148061157c575061157b33612422565b5b151561158757600080fd5b61158f6124c3565b905090565b6000600660009054906101000a900473ffffffffffffffffffffffffffffffffffffffff1673ffffffffffffffffffffffffffffffffffffffff163373ffffffffffffffffffffffffffffffffffffffff161415156115f257600080fd5b600660159054906101000a900460ff1615151561160e57600080fd5b6001600660156101000a81548160ff0219169083151502179055507fae5184fba832cb2b1f702aca6117b8d265eaf03ad33eb133f19dde0f5920fa0860405160405180910390a16001905090565b600a60019054906101000a900460ff16151561167757600080fd5b600660009054906101000a900473ffffffffffffffffffffffffffffffffffffffff1673ffffffffffffffffffffffffffffffffffffffff163373ffffffffffffffffffffffffffffffffffffffff161415156116d357600080fd5b6116db6126c1565b565b600660009054906101000a900473ffffffffffffffffffffffffffffffffffffffff1681565b60018054600181600116156101000203166002900480601f0160208091040260200160405190810160405280929190818152602001828054600181600116156101000203166002900480156117995780601f1061176e57610100808354040283529160200191611799565b820191906000526020600020905b81548152906001019060200180831161177c57829003601f168201915b505050505081565b600660009054906101000a900473ffffffffffffffffffffffffffffffffffffffff1673ffffffffffffffffffffffffffffffffffffffff163373ffffffffffffffffffffffffffffffffffffffff161480611802575061180133612422565b5b151561180d57600080fd5b61181681612782565b50565b6000600660149054906101000a900460ff1615151561183757600080fd5b600c60008473ffffffffffffffffffffffffffffffffffffffff1673ffffffffffffffffffffffffffffffffffffffff16815260200190815260200160002060009054906101000a900460ff16151561194957600b8390806001815401808255809150509060018203906000526020600020016000909192909190916101000a81548173ffffffffffffffffffffffffffffffffffffffff021916908373ffffffffffffffffffffffffffffffffffffffff160217905550506001600c60008573ffffffffffffffffffffffffffffffffffffffff1673ffffffffffffffffffffffffffffffffffffffff16815260200190815260200160002060006101000a81548160ff0219169083151502179055505b6119538383612858565b905092915050565b600660149054906101000a900460ff1615151561197757600080fd5b61198081612782565b3373ffffffffffffffffffffffffffffffffffffffff167f5b60b15f9c22e96a79775262f4be0afac0552bb88abc5ec341b10f708aa366cf826040518082815260200191505060405180910390a250565b600080600660149054906101000a900460ff161515156119f057600080fd5b6119f86124c3565b90503373ffffffffffffffffffffffffffffffffffffffff167ff318b16025413645144ed83c64d2d30f089c10bc263cab68a036c00f011827be826040518082815260200191505060405180910390a28091505090565b6000600660149054906101000a900460ff16151515611a6d57600080fd5b611a778383612876565b905092915050565b6000600660159054906101000a900460ff16151515611a9d57600080fd5b600660009054906101000a900473ffffffffffffffffffffffffffffffffffffffff1673ffffffffffffffffffffffffffffffffffffffff163373ffffffffffffffffffffffffffffffffffffffff16141515611af957600080fd5b600954611b1183600454612a7290919063ffffffff16565b11151515611b1e57600080fd5b600c60008473ffffffffffffffffffffffffffffffffffffffff1673ffffffffffffffffffffffffffffffffffffffff16815260200190815260200160002060009054906101000a900460ff161515611c3057600b8390806001815401808255809150509060018203906000526020600020016000909192909190916101000a81548173ffffffffffffffffffffffffffffffffffffffff021916908373ffffffffffffffffffffffffffffffffffffffff160217905550506001600c60008573ffffffffffffffffffffffffffffffffffffffff1673ffffffffffffffffffffffffffffffffffffffff16815260200190815260200160002060006101000a81548160ff0219169083151502179055505b611c3a8383612a8e565b905092915050565b6000600560008473ffffffffffffffffffffffffffffffffffffffff1673ffffffffffffffffffffffffffffffffffffffff16815260200190815260200160002060008373ffffffffffffffffffffffffffffffffffffffff1673ffffffffffffffffffffffffffffffffffffffff16815260200190815260200160002054905092915050565b600080600660009054906101000a900473ffffffffffffffffffffffffffffffffffffffff1673ffffffffffffffffffffffffffffffffffffffff163373ffffffffffffffffffffffffffffffffffffffff16141515611d2857600080fd5b30611d316137bd565b808273ffffffffffffffffffffffffffffffffffffffff1673ffffffffffffffffffffffffffffffffffffffff168152602001915050604051809103906000f080158015611d83573d6000803e3d6000fd5b50905060088190806001815401808255809150509060018203906000526020600020016000909192909190916101000a81548173ffffffffffffffffffffffffffffffffffffffff021916908373ffffffffffffffffffffffffffffffffffffffff160217905550508073ffffffffffffffffffffffffffffffffffffffff1663be9a65556040518163ffffffff167c0100000000000000000000000000000000000000000000000000000000028152600401600060405180830381600087803b158015611e5057600080fd5b505af1158015611e64573d6000803e3d6000fd5b505050508073ffffffffffffffffffffffffffffffffffffffff167f68c66c56aaa98b2954e7bb693c5d0ab993549e75447e02c0ba545bcd7648d46060405160405180910390a28091505090565b600660009054906101000a900473ffffffffffffffffffffffffffffffffffffffff1673ffffffffffffffffffffffffffffffffffffffff163373ffffffffffffffffffffffffffffffffffffffff16141515611f0e57600080fd5b611f1781612b23565b50565b600081600560003373ffffffffffffffffffffffffffffffffffffffff1673ffffffffffffffffffffffffffffffffffffffff16815260200190815260200160002060008573ffffffffffffffffffffffffffffffffffffffff1673ffffffffffffffffffffffffffffffffffffffff168152602001908152602001600020819055508273ffffffffffffffffffffffffffffffffffffffff163373ffffffffffffffffffffffffffffffffffffffff167f8c5be1e5ebec7d5bd14f71427d1e84f3dd0314c0f7b2291e5b200ac8c7c3b925846040518082815260200191505060405180910390a36001905092915050565b600060078381548110151561201d57fe5b90600052602060002090600302016002015460078481548110151561203e57fe5b906000526020600020906003020160000160008473ffffffffffffffffffffffffffffffffffffffff1673ffffffffffffffffffffffffffffffffffffffff168152602001908152602001600020600101541015905092915050565b6120a382612c1f565b6120ad8282612d60565b5050565b60006120bd8484612f16565b6120c8848484612f2c565b90509392505050565b600660009054906101000a900473ffffffffffffffffffffffffffffffffffffffff1673ffffffffffffffffffffffffffffffffffffffff163373ffffffffffffffffffffffffffffffffffffffff1614151561212d57600080fd5b600660149054906101000a900460ff16151561214857600080fd5b6000600660146101000a81548160ff0219169083151502179055507f7805862f689e2f13df9f062ff482ad3ad112aca9e0847911ed832e158c525b3360405160405180910390a1565b600080600560003373ffffffffffffffffffffffffffffffffffffffff1673ffffffffffffffffffffffffffffffffffffffff16815260200190815260200160002060008573ffffffffffffffffffffffffffffffffffffffff1673ffffffffffffffffffffffffffffffffffffffff168152602001908152602001600020549050808311156122a2576000600560003373ffffffffffffffffffffffffffffffffffffffff1673ffffffffffffffffffffffffffffffffffffffff16815260200190815260200160002060008673ffffffffffffffffffffffffffffffffffffffff1673ffffffffffffffffffffffffffffffffffffffff16815260200190815260200160002081905550612336565b6122b58382612f5e90919063ffffffff16565b600560003373ffffffffffffffffffffffffffffffffffffffff1673ffffffffffffffffffffffffffffffffffffffff16815260200190815260200160002060008673ffffffffffffffffffffffffffffffffffffffff1673ffffffffffffffffffffffffffffffffffffffff168152602001908152602001600020819055505b8373ffffffffffffffffffffffffffffffffffffffff163373ffffffffffffffffffffffffffffffffffffffff167f8c5be1e5ebec7d5bd14f71427d1e84f3dd0314c0f7b2291e5b200ac8c7c3b925600560003373ffffffffffffffffffffffffffffffffffffffff1673ffffffffffffffffffffffffffffffffffffffff16815260200190815260200160002060008873ffffffffffffffffffffffffffffffffffffffff1673ffffffffffffffffffffffffffffffffffffffff168152602001908152602001600020546040518082815260200191505060405180910390a3600191505092915050565b600080600090505b6008805490508110156124b8578273ffffffffffffffffffffffffffffffffffffffff1660088281548110151561245d57fe5b9060005260206000200160009054906101000a900473ffffffffffffffffffffffffffffffffffffffff1673ffffffffffffffffffffffffffffffffffffffff1614156124ad57600191506124bd565b80600101905061242a565b600091505b50919050565b60008060008091505b6007805490508210156125cc576007828154811015156124e857fe5b906000526020600020906003020160010160009054906101000a900460ff1615156125c157600160078381548110151561251e57fe5b906000526020600020906003020160010160006101000a81548160ff0219169083151502179055504260078381548110151561255657fe5b9060005260206000209060030201600201819055503373ffffffffffffffffffffffffffffffffffffffff167ff77c6f27499b698205f54058c2914a340e1300c2bc0d9a819e7aebfbaabbbb93836040518082815260200191505060405180910390a28192506126bc565b8160010191506124cc565b60018160010160006101000a81548160ff021916908315150217905550428160020181905550600781908060018154018082558091505090600182039060005260206000209060030201600090919290919091506001820160009054906101000a900460ff168160010160006101000a81548160ff021916908315150217905550600282015481600201555050503373ffffffffffffffffffffffffffffffffffffffff167ff77c6f27499b698205f54058c2914a340e1300c2bc0d9a819e7aebfbaabbbb936001600780549050036040518082815260200191505060405180910390a260016007805490500392505b505090565b600660009054906101000a900473ffffffffffffffffffffffffffffffffffffffff1673ffffffffffffffffffffffffffffffffffffffff163373ffffffffffffffffffffffffffffffffffffffff1614151561271d57600080fd5b600660149054906101000a900460ff1615151561273957600080fd5b6001600660146101000a81548160ff0219169083151502179055507f6985a02210a168e66602d3235cb6db0e70f92b3ba4d376a33c0f3d9434bff62560405160405180910390a1565b6007805490508110151561279557600080fd5b6007818154811015156127a457fe5b906000526020600020906003020160010160009054906101000a900460ff1615156127ce57600080fd5b60006007828154811015156127df57fe5b906000526020600020906003020160010160006101000a81548160ff0219169083151502179055503373ffffffffffffffffffffffffffffffffffffffff167ff49d881e799e402df6d3d88bdea3729b3cc3f4f46bb9a70f9be9435f41d81857826040518082815260200191505060405180910390a250565b60006128643384612f16565b61286e8383612f77565b905092915050565b600061290782600560003373ffffffffffffffffffffffffffffffffffffffff1673ffffffffffffffffffffffffffffffffffffffff16815260200190815260200160002060008673ffffffffffffffffffffffffffffffffffffffff1673ffffffffffffffffffffffffffffffffffffffff16815260200190815260200160002054612a7290919063ffffffff16565b600560003373ffffffffffffffffffffffffffffffffffffffff1673ffffffffffffffffffffffffffffffffffffffff16815260200190815260200160002060008573ffffffffffffffffffffffffffffffffffffffff1673ffffffffffffffffffffffffffffffffffffffff168152602001908152602001600020819055508273ffffffffffffffffffffffffffffffffffffffff163373ffffffffffffffffffffffffffffffffffffffff167f8c5be1e5ebec7d5bd14f71427d1e84f3dd0314c0f7b2291e5b200ac8c7c3b925600560003373ffffffffffffffffffffffffffffffffffffffff1673ffffffffffffffffffffffffffffffffffffffff16815260200190815260200160002060008773ffffffffffffffffffffffffffffffffffffffff1673ffffffffffffffffffffffffffffffffffffffff168152602001908152602001600020546040518082815260200191505060405180910390a36001905092915050565b60008183019050828110151515612a8557fe5b80905092915050565b6000600660159054906101000a900460ff16151515612aac57600080fd5b600660009054906101000a900473ffffffffffffffffffffffffffffffffffffffff1673ffffffffffffffffffffffffffffffffffffffff163373ffffffffffffffffffffffffffffffffffffffff16141515612b0857600080fd5b612b1183612c1f565b612b1b8383612fa7565b905092915050565b600073ffffffffffffffffffffffffffffffffffffffff168173ffffffffffffffffffffffffffffffffffffffff1614151515612b5f57600080fd5b8073ffffffffffffffffffffffffffffffffffffffff16600660009054906101000a900473ffffffffffffffffffffffffffffffffffffffff1673ffffffffffffffffffffffffffffffffffffffff167f8be0079c531659141344cd1fd0a4f28419497f9722a3daafe3b4186f6b6457e060405160405180910390a380600660006101000a81548173ffffffffffffffffffffffffffffffffffffffff021916908373ffffffffffffffffffffffffffffffffffffffff16021790555050565b600080600091505b600780549050821015612d5b57612c3e828461318f565b90508015612d5057600360008473ffffffffffffffffffffffffffffffffffffffff1673ffffffffffffffffffffffffffffffffffffffff16815260200190815260200160002054600783815481101515612c9557fe5b906000526020600020906003020160000160008573ffffffffffffffffffffffffffffffffffffffff1673ffffffffffffffffffffffffffffffffffffffff1681526020019081526020016000206000018190555042600783815481101515612cfa57fe5b906000526020600020906003020160000160008573ffffffffffffffffffffffffffffffffffffffff1673ffffffffffffffffffffffffffffffffffffffff168152602001908152602001600020600101819055505b816001019150612c27565b505050565b600360008373ffffffffffffffffffffffffffffffffffffffff1673ffffffffffffffffffffffffffffffffffffffff168152602001908152602001600020548111151515612dae57600080fd5b612e0081600360008573ffffffffffffffffffffffffffffffffffffffff1673ffffffffffffffffffffffffffffffffffffffff16815260200190815260200160002054612f5e90919063ffffffff16565b600360008473ffffffffffffffffffffffffffffffffffffffff1673ffffffffffffffffffffffffffffffffffffffff16815260200190815260200160002081905550612e5881600454612f5e90919063ffffffff16565b6004819055508173ffffffffffffffffffffffffffffffffffffffff167fcc16f5dbb4873280815c1ee09dbd06736cffcc184412cf7a71a0fdb75d397ca5826040518082815260200191505060405180910390a2600073ffffffffffffffffffffffffffffffffffffffff168273ffffffffffffffffffffffffffffffffffffffff167fddf252ad1be2c89b69c2b068fc378daa952ba7f163c4a11628f55a4df523b3ef836040518082815260200191505060405180910390a35050565b612f1f81612c1f565b612f2882612c1f565b5050565b6000600660149054906101000a900460ff16151515612f4a57600080fd5b612f558484846131da565b90509392505050565b6000828211151515612f6c57fe5b818303905092915050565b6000600660149054906101000a900460ff16151515612f9557600080fd5b612f9f8383613599565b905092915050565b6000600660009054906101000a900473ffffffffffffffffffffffffffffffffffffffff1673ffffffffffffffffffffffffffffffffffffffff163373ffffffffffffffffffffffffffffffffffffffff1614151561300557600080fd5b600660159054906101000a900460ff1615151561302157600080fd5b61303682600454612a7290919063ffffffff16565b60048190555061308e82600360008673ffffffffffffffffffffffffffffffffffffffff1673ffffffffffffffffffffffffffffffffffffffff16815260200190815260200160002054612a7290919063ffffffff16565b600360008573ffffffffffffffffffffffffffffffffffffffff1673ffffffffffffffffffffffffffffffffffffffff168152602001908152602001600020819055508273ffffffffffffffffffffffffffffffffffffffff167f0f6798a560793a54c3bcfe86a93cde1e73087d944c0ea20544137d4121396885836040518082815260200191505060405180910390a28273ffffffffffffffffffffffffffffffffffffffff16600073ffffffffffffffffffffffffffffffffffffffff167fddf252ad1be2c89b69c2b068fc378daa952ba7f163c4a11628f55a4df523b3ef846040518082815260200191505060405180910390a36001905092915050565b60006007838154811015156131a057fe5b906000526020600020906003020160010160009054906101000a900460ff1680156131d257506131d0838361200c565b155b905092915050565b60008073ffffffffffffffffffffffffffffffffffffffff168373ffffffffffffffffffffffffffffffffffffffff161415151561321757600080fd5b600360008573ffffffffffffffffffffffffffffffffffffffff1673ffffffffffffffffffffffffffffffffffffffff16815260200190815260200160002054821115151561326557600080fd5b600560008573ffffffffffffffffffffffffffffffffffffffff1673ffffffffffffffffffffffffffffffffffffffff16815260200190815260200160002060003373ffffffffffffffffffffffffffffffffffffffff1673ffffffffffffffffffffffffffffffffffffffff1681526020019081526020016000205482111515156132f057600080fd5b61334282600360008773ffffffffffffffffffffffffffffffffffffffff1673ffffffffffffffffffffffffffffffffffffffff16815260200190815260200160002054612f5e90919063ffffffff16565b600360008673ffffffffffffffffffffffffffffffffffffffff1673ffffffffffffffffffffffffffffffffffffffff168152602001908152602001600020819055506133d782600360008673ffffffffffffffffffffffffffffffffffffffff1673ffffffffffffffffffffffffffffffffffffffff16815260200190815260200160002054612a7290919063ffffffff16565b600360008573ffffffffffffffffffffffffffffffffffffffff1673ffffffffffffffffffffffffffffffffffffffff168152602001908152602001600020819055506134a982600560008773ffffffffffffffffffffffffffffffffffffffff1673ffffffffffffffffffffffffffffffffffffffff16815260200190815260200160002060003373ffffffffffffffffffffffffffffffffffffffff1673ffffffffffffffffffffffffffffffffffffffff16815260200190815260200160002054612f5e90919063ffffffff16565b600560008673ffffffffffffffffffffffffffffffffffffffff1673ffffffffffffffffffffffffffffffffffffffff16815260200190815260200160002060003373ffffffffffffffffffffffffffffffffffffffff1673ffffffffffffffffffffffffffffffffffffffff168152602001908152602001600020819055508273ffffffffffffffffffffffffffffffffffffffff168473ffffffffffffffffffffffffffffffffffffffff167fddf252ad1be2c89b69c2b068fc378daa952ba7f163c4a11628f55a4df523b3ef846040518082815260200191505060405180910390a3600190509392505050565b60008073ffffffffffffffffffffffffffffffffffffffff168373ffffffffffffffffffffffffffffffffffffffff16141515156135d657600080fd5b600360003373ffffffffffffffffffffffffffffffffffffffff1673ffffffffffffffffffffffffffffffffffffffff16815260200190815260200160002054821115151561362457600080fd5b61367682600360003373ffffffffffffffffffffffffffffffffffffffff1673ffffffffffffffffffffffffffffffffffffffff16815260200190815260200160002054612f5e90919063ffffffff16565b600360003373ffffffffffffffffffffffffffffffffffffffff1673ffffffffffffffffffffffffffffffffffffffff1681526020019081526020016000208190555061370b82600360008673ffffffffffffffffffffffffffffffffffffffff1673ffffffffffffffffffffffffffffffffffffffff16815260200190815260200160002054612a7290919063ffffffff16565b600360008573ffffffffffffffffffffffffffffffffffffffff1673ffffffffffffffffffffffffffffffffffffffff168152602001908152602001600020819055508273ffffffffffffffffffffffffffffffffffffffff163373ffffffffffffffffffffffffffffffffffffffff167fddf252ad1be2c89b69c2b068fc378daa952ba7f163c4a11628f55a4df523b3ef846040518082815260200191505060405180910390a36001905092915050565b6040516112fd806137ce833901905600608060405260006005556000600660006101000a81548160ff02191690831515021790555034801561003057600080fd5b506040516020806112fd8339810180604052810190808051906020019092919050505033600360006101000a81548173ffffffffffffffffffffffffffffffffffffffff021916908373ffffffffffffffffffffffffffffffffffffffff16021790555080600460006101000a81548173ffffffffffffffffffffffffffffffffffffffff021916908373ffffffffffffffffffffffffffffffffffffffff16021790555050611218806100e56000396000f3006080604052600436106100db576000357c0100000000000000000000000000000000000000000000000000000000900463ffffffff16806308c9c3c7146100e0578063095ea7b31461010b57806318160ddd1461017057806323b872dd1461019b578063661884631461022057806370a0823114610285578063715018a6146102dc5780638da5cb5b146102f3578063a16d2b131461034a578063a9059cbb146103a1578063be9a655514610406578063d56b28891461041d578063d73dd62314610434578063dd62ed3e14610499578063f2fde38b14610510575b600080fd5b3480156100ec57600080fd5b506100f5610553565b6040518082815260200191505060405180910390f35b34801561011757600080fd5b50610156600480360381019080803573ffffffffffffffffffffffffffffffffffffffff16906020019092919080359060200190929190505050610559565b604051808215151515815260200191505060405180910390f35b34801561017c57600080fd5b5061018561064b565b6040518082815260200191505060405180910390f35b3480156101a757600080fd5b50610206600480360381019080803573ffffffffffffffffffffffffffffffffffffffff169060200190929190803573ffffffffffffffffffffffffffffffffffffffff16906020019092919080359060200190929190505050610655565b604051808215151515815260200191505060405180910390f35b34801561022c57600080fd5b5061026b600480360381019080803573ffffffffffffffffffffffffffffffffffffffff1690602001909291908035906020019092919050505061065c565b604051808215151515815260200191505060405180910390f35b34801561029157600080fd5b506102c6600480360381019080803573ffffffffffffffffffffffffffffffffffffffff1690602001909291905050506108ed565b6040518082815260200191505060405180910390f35b3480156102e857600080fd5b506102f16109f8565b005b3480156102ff57600080fd5b50610308610afd565b604051808273ffffffffffffffffffffffffffffffffffffffff1673ffffffffffffffffffffffffffffffffffffffff16815260200191505060405180910390f35b34801561035657600080fd5b5061035f610b23565b604051808273ffffffffffffffffffffffffffffffffffffffff1673ffffffffffffffffffffffffffffffffffffffff16815260200191505060405180910390f35b3480156103ad57600080fd5b506103ec600480360381019080803573ffffffffffffffffffffffffffffffffffffffff16906020019092919080359060200190929190505050610b49565b604051808215151515815260200191505060405180910390f35b34801561041257600080fd5b5061041b610b50565b005b34801561042957600080fd5b50610432610cac565b005b34801561044057600080fd5b5061047f600480360381019080803573ffffffffffffffffffffffffffffffffffffffff16906020019092919080359060200190929190505050610dd0565b604051808215151515815260200191505060405180910390f35b3480156104a557600080fd5b506104fa600480360381019080803573ffffffffffffffffffffffffffffffffffffffff169060200190929190803573ffffffffffffffffffffffffffffffffffffffff169060200190929190505050610fcc565b6040518082815260200191505060405180910390f35b34801561051c57600080fd5b50610551600480360381019080803573ffffffffffffffffffffffffffffffffffffffff169060200190929190505050611053565b005b60055481565b600081600260003373ffffffffffffffffffffffffffffffffffffffff1673ffffffffffffffffffffffffffffffffffffffff16815260200190815260200160002060008573ffffffffffffffffffffffffffffffffffffffff1673ffffffffffffffffffffffffffffffffffffffff168152602001908152602001600020819055508273ffffffffffffffffffffffffffffffffffffffff163373ffffffffffffffffffffffffffffffffffffffff167f8c5be1e5ebec7d5bd14f71427d1e84f3dd0314c0f7b2291e5b200ac8c7c3b925846040518082815260200191505060405180910390a36001905092915050565b6000600154905090565b6000806000fd5b600080600260003373ffffffffffffffffffffffffffffffffffffffff1673ffffffffffffffffffffffffffffffffffffffff16815260200190815260200160002060008573ffffffffffffffffffffffffffffffffffffffff1673ffffffffffffffffffffffffffffffffffffffff1681526020019081526020016000205490508083111561076d576000600260003373ffffffffffffffffffffffffffffffffffffffff1673ffffffffffffffffffffffffffffffffffffffff16815260200190815260200160002060008673ffffffffffffffffffffffffffffffffffffffff1673ffffffffffffffffffffffffffffffffffffffff16815260200190815260200160002081905550610801565b61078083826110bb90919063ffffffff16565b600260003373ffffffffffffffffffffffffffffffffffffffff1673ffffffffffffffffffffffffffffffffffffffff16815260200190815260200160002060008673ffffffffffffffffffffffffffffffffffffffff1673ffffffffffffffffffffffffffffffffffffffff168152602001908152602001600020819055505b8373ffffffffffffffffffffffffffffffffffffffff163373ffffffffffffffffffffffffffffffffffffffff167f8c5be1e5ebec7d5bd14f71427d1e84f3dd0314c0f7b2291e5b200ac8c7c3b925600260003373ffffffffffffffffffffffffffffffffffffffff1673ffffffffffffffffffffffffffffffffffffffff16815260200190815260200160002060008873ffffffffffffffffffffffffffffffffffffffff1673ffffffffffffffffffffffffffffffffffffffff168152602001908152602001600020546040518082815260200191505060405180910390a3600191505092915050565b6000600460009054906101000a900473ffffffffffffffffffffffffffffffffffffffff1673ffffffffffffffffffffffffffffffffffffffff1663154b850b600554846040518363ffffffff167c0100000000000000000000000000000000000000000000000000000000028152600401808381526020018273ffffffffffffffffffffffffffffffffffffffff1673ffffffffffffffffffffffffffffffffffffffff16815260200192505050602060405180830381600087803b1580156109b657600080fd5b505af11580156109ca573d6000803e3d6000fd5b505050506040513d60208110156109e057600080fd5b81019080805190602001909291905050509050919050565b600360009054906101000a900473ffffffffffffffffffffffffffffffffffffffff1673ffffffffffffffffffffffffffffffffffffffff163373ffffffffffffffffffffffffffffffffffffffff16141515610a5457600080fd5b600360009054906101000a900473ffffffffffffffffffffffffffffffffffffffff1673ffffffffffffffffffffffffffffffffffffffff167ff8df31144d9c2f0f6b59d69b8b98abd5459d07f2742c4df920b25aae33c6482060405160405180910390a26000600360006101000a81548173ffffffffffffffffffffffffffffffffffffffff021916908373ffffffffffffffffffffffffffffffffffffffff160217905550565b600360009054906101000a900473ffffffffffffffffffffffffffffffffffffffff1681565b600460009054906101000a900473ffffffffffffffffffffffffffffffffffffffff1681565b6000806000fd5b3373ffffffffffffffffffffffffffffffffffffffff16600460009054906101000a900473ffffffffffffffffffffffffffffffffffffffff1673ffffffffffffffffffffffffffffffffffffffff16141515610bac57600080fd5b600660009054906101000a900460ff16151515610bc857600080fd5b600460009054906101000a900473ffffffffffffffffffffffffffffffffffffffff1673ffffffffffffffffffffffffffffffffffffffff16637984cd4a6040518163ffffffff167c0100000000000000000000000000000000000000000000000000000000028152600401602060405180830381600087803b158015610c4e57600080fd5b505af1158015610c62573d6000803e3d6000fd5b505050506040513d6020811015610c7857600080fd5b81019080805190602001909291905050506005819055506001600660006101000a81548160ff021916908315150217905550565b3373ffffffffffffffffffffffffffffffffffffffff16600460009054906101000a900473ffffffffffffffffffffffffffffffffffffffff1673ffffffffffffffffffffffffffffffffffffffff16141515610d0857600080fd5b600660009054906101000a900460ff161515610d2357600080fd5b600460009054906101000a900473ffffffffffffffffffffffffffffffffffffffff1673ffffffffffffffffffffffffffffffffffffffff1663982fb7b86005546040518263ffffffff167c010000000000000000000000000000000000000000000000000000000002815260040180828152602001915050600060405180830381600087803b158015610db657600080fd5b505af1158015610dca573d6000803e3d6000fd5b50505050565b6000610e6182600260003373ffffffffffffffffffffffffffffffffffffffff1673ffffffffffffffffffffffffffffffffffffffff16815260200190815260200160002060008673ffffffffffffffffffffffffffffffffffffffff1673ffffffffffffffffffffffffffffffffffffffff168152602001908152602001600020546110d490919063ffffffff16565b600260003373ffffffffffffffffffffffffffffffffffffffff1673ffffffffffffffffffffffffffffffffffffffff16815260200190815260200160002060008573ffffffffffffffffffffffffffffffffffffffff1673ffffffffffffffffffffffffffffffffffffffff168152602001908152602001600020819055508273ffffffffffffffffffffffffffffffffffffffff163373ffffffffffffffffffffffffffffffffffffffff167f8c5be1e5ebec7d5bd14f71427d1e84f3dd0314c0f7b2291e5b200ac8c7c3b925600260003373ffffffffffffffffffffffffffffffffffffffff1673ffffffffffffffffffffffffffffffffffffffff16815260200190815260200160002060008773ffffffffffffffffffffffffffffffffffffffff1673ffffffffffffffffffffffffffffffffffffffff168152602001908152602001600020546040518082815260200191505060405180910390a36001905092915050565b6000600260008473ffffffffffffffffffffffffffffffffffffffff1673ffffffffffffffffffffffffffffffffffffffff16815260200190815260200160002060008373ffffffffffffffffffffffffffffffffffffffff1673ffffffffffffffffffffffffffffffffffffffff16815260200190815260200160002054905092915050565b600360009054906101000a900473ffffffffffffffffffffffffffffffffffffffff1673ffffffffffffffffffffffffffffffffffffffff163373ffffffffffffffffffffffffffffffffffffffff161415156110af57600080fd5b6110b8816110f0565b50565b60008282111515156110c957fe5b818303905092915050565b600081830190508281101515156110e757fe5b80905092915050565b600073ffffffffffffffffffffffffffffffffffffffff168173ffffffffffffffffffffffffffffffffffffffff161415151561112c57600080fd5b8073ffffffffffffffffffffffffffffffffffffffff16600360009054906101000a900473ffffffffffffffffffffffffffffffffffffffff1673ffffffffffffffffffffffffffffffffffffffff167f8be0079c531659141344cd1fd0a4f28419497f9722a3daafe3b4186f6b6457e060405160405180910390a380600360006101000a81548173ffffffffffffffffffffffffffffffffffffffff021916908373ffffffffffffffffffffffffffffffffffffffff160217905550505600a165627a7a72305820bd55ffdf7738beedc6ad7518a2de18c40e1507383ddcfe580751372b8107df320029a165627a7a72305820def4e1d0bb1d772b1318439e7fecc0de9fd22056a55d3b73cbdc7950f4e089940029",
  "source": "pragma solidity ^0.4.22;\n\nimport \"zeppelin-solidity/contracts/token/ERC20/PausableToken.sol\";\nimport \"zeppelin-solidity/contracts/token/ERC20/DetailedERC20.sol\";\n\nimport \"./PreserveBalancesOnTransferToken.sol\";\nimport \"./ITokenVotingSupport.sol\";\nimport \"../utils/UtilsLib.sol\";\n\n\n/**\n * @title StdDaoToken \n * @dev Currently DaoBase works only with StdDaoToken. It does not support working with \n * plain ERC20 tokens because we need some extra features like mint(), burn() and transferOwnership()\n *\n * EVERY token that is used on Thetta should support these operations:\n * ERC20:\n *\t\tbalanceOf() \n *\t\ttransfer() \n *\n * Non ERC20:\n *\t\ttransferOwnership()\n *\t\tmintFor()\n *\t\tburnFor()\n *    startNewVoting()\n *    finishVoting()\n *    getBalanceAtVoting() \n*/\ncontract StdDaoToken is DetailedERC20, PausableToken, PreserveBalancesOnTransferToken, ITokenVotingSupport {\n\tuint256 public cap;\n\tbool isBurnable;\n\tbool isPausable;\n\n\taddress[] public holders;\n\tmapping (address => bool) isHolder;\n\n\tmodifier isBurnable_() { \n\t\trequire (isBurnable); \n\t\t_; \n\t}\n\n\tmodifier isPausable_() { \n\t\trequire (isPausable);\n\t\t_; \n\t}\n\n\tevent VotingStarted(address indexed _address, uint _votingID);\n\tevent VotingFinished(address indexed _address, uint _votingID);\n\t\n\tconstructor(string _name, string _symbol, uint8 _decimals, bool _isBurnable, bool _isPausable, uint256 _cap) public\n\t\tDetailedERC20(_name, _symbol, _decimals)\n\t{\n\t\trequire(_cap > 0);\n\t\tcap = _cap;\n\t\tisBurnable = _isBurnable;\n\t\tisPausable = _isPausable;\n\n\t\tholders.push(this);\n\t}\n\n// ITokenVotingSupport implementation\n\t// TODO: VULNERABILITY! no onlyOwner!\n\t/**\n\t* @notice This function should be called only when token not paused\n\t* @return index of the new voting\n\t* @dev should be called when voting started for conservation balances during this voting\n\t*/\n\tfunction startNewVoting() public whenNotPaused returns(uint) {\n\t\tuint idOut = super._startNewEvent();\n\t\temit VotingStarted(msg.sender, idOut);\n\t\treturn idOut;\n\t}\n\n\t// TODO: VULNERABILITY! no onlyOwner!\n\t// update balances from conservation after voting finish\n\t/**\n\t* @notice This function should be called only when token not paused\n\t* @param _votingID id of voting\n\t* @dev update balances from conservation after voting finish\n\t*/\n\tfunction finishVoting(uint _votingID) whenNotPaused public {\n\t\tsuper._finishEvent(_votingID);\n\t\temit VotingFinished(msg.sender, _votingID);\n\t}\n\n\t/**\n\t* @param _votingID id of voting\n\t* @param _owner account\n\t* @return balance of voting for account _owner\n\t*/\n\tfunction getBalanceAtVoting(uint _votingID, address _owner) public view returns (uint256) {\n\t\treturn super.getBalanceAtEventStart(_votingID, _owner);\n\t}\n\n\t/**\n\t* @notice This function should be called only when token not paused\n\t* @param _to address\n\t* @param _value amount of tokens which will be transfered\n\t* @return true\n\t*/\n\tfunction transfer(address _to, uint256 _value) public whenNotPaused returns (bool) {\n\t\tif(!isHolder[_to]) {\n\t\t\tholders.push(_to);\n\t\t\tisHolder[_to] = true;\n\t\t}\n\t\treturn super.transfer(_to, _value);\n\t}\n\n\t// transfer tokens from _from to _to address\n\t/**\n\t* @notice This function should be called only when token not paused\n\t* @param _from address\n\t* @param _to address\n\t* @param _value amount of tokens which will be transfered\n\t* @return true\n\t*/\n\tfunction transferFrom(address _from, address _to, uint256 _value) public whenNotPaused returns (bool) {\n\t\tif(!isHolder[_to]) {\n\t\t\tholders.push(_to);\n\t\t\tisHolder[_to] = true;\n\t\t}\n\t\treturn super.transferFrom(_from, _to, _value);\n\t}\n\n\t/**\n\t* @return amount of total voters\n\t*/\n\tfunction getVotingTotalForQuadraticVoting() public view returns(uint) {\n\t\tuint votersTotal = 0;\n\t\tfor(uint k=0; k<holders.length; k++) {\n\t\t\tvotersTotal += UtilsLib.sqrt(this.balanceOf(holders[k]));\n\t\t}\n\t\treturn votersTotal;\n\t}\n\t\n// MintableToken override\n\t// @dev do not call this method. Instead use mintFor()\n\tfunction mint(address _to, uint256 _amount) canMint onlyOwner public returns(bool) {\n\t\trevert();\n\t}\n\n\t/**\n\t* @notice This function should be called only by owner\n\t* @param _to address\n\t* @param _amount amount of tokens which will be minted\n\t* @return true\n\t*/\n\tfunction mintFor(address _to, uint256 _amount) canMint onlyOwner public returns(bool) {\n\t\trequire(totalSupply_.add(_amount) <= cap);\n\n\t\tif(!isHolder[_to]) {\n\t\t\tholders.push(_to);\n\t\t\tisHolder[_to] = true;\n\t\t}\n\t\treturn super.mint(_to, _amount);\n\t}\n\n// BurnableToken override\n\t// @dev do not call this method. Instead use burnFor()\n\tfunction burn(uint256 _value) public {\n\t\trevert();\n\t}\n\n\t/**\n\t* @notice This function should be called only by owner\n\t* @param _who address\n\t* @param _value amount of tokens which will be burned\n\t*/\n\tfunction burnFor(address _who, uint256 _value) isBurnable_ onlyOwner public {\n\t\tsuper._burn(_who, _value);\n\t}\n\n\t// this is an override of PausableToken method\n\t/**\n\t* @notice This function should be called only by owner\n\t* @dev pause the token\n\t*/\n\tfunction pause() isPausable_ onlyOwner public {\n\t\tsuper.pause();\n\t}\n\n\t// this is an override of PausableToken method\n\t/**\n\t* @notice This function should be called only by owner\n\t* @dev unpause the token\n\t*/\n\tfunction unpause() isPausable_ onlyOwner  public {\n\t\tsuper.unpause();\n\t}\n}\n",
  "sourcePath": "@thetta/core/contracts/tokens/StdDaoToken.sol",
  "compiler": {
    "name": "solc",
    "version": "0.4.24+commit.e67f0147.Emscripten.clang"
  },
  "schemaVersion": "2.0.1",
  "updatedAt": "2018-10-12T11:42:51.486Z"
}