{
  "contractName": "Voting",
  "abi": [
    {
      "constant": false,
      "inputs": [],
      "name": "renounceOwnership",
      "outputs": [],
      "payable": false,
      "stateMutability": "nonpayable",
      "type": "function"
    },
    {
      "constant": true,
      "inputs": [],
      "name": "owner",
      "outputs": [
        {
          "name": "",
          "type": "address"
        }
      ],
      "payable": false,
      "stateMutability": "view",
      "type": "function"
    },
    {
      "constant": false,
      "inputs": [
        {
          "name": "_newOwner",
          "type": "address"
        }
      ],
      "name": "transferOwnership",
      "outputs": [],
      "payable": false,
      "stateMutability": "nonpayable",
      "type": "function"
    },
    {
      "inputs": [
        {
          "name": "_daoBase",
          "type": "address"
        },
        {
          "name": "_proposal",
          "type": "address"
        },
        {
          "name": "_origin",
          "type": "address"
        },
        {
          "name": "_votingType",
          "type": "uint8"
        },
        {
          "name": "_minutesToVote",
          "type": "uint256"
        },
        {
          "name": "_groupName",
          "type": "string"
        },
        {
          "name": "_quorumPercent",
          "type": "uint256"
        },
        {
          "name": "_consensusPercent",
          "type": "uint256"
        },
        {
          "name": "_tokenAddress",
          "type": "address"
        }
      ],
      "payable": false,
      "stateMutability": "nonpayable",
      "type": "constructor"
    },
    {
      "anonymous": false,
      "inputs": [
        {
          "indexed": false,
          "name": "_who",
          "type": "address"
        },
        {
          "indexed": false,
          "name": "_yes",
          "type": "bool"
        }
      ],
      "name": "Voted",
      "type": "event"
    },
    {
      "anonymous": false,
      "inputs": [],
      "name": "CallAction",
      "type": "event"
    },
    {
      "anonymous": false,
      "inputs": [
        {
          "indexed": false,
          "name": "_sender",
          "type": "address"
        },
        {
          "indexed": false,
          "name": "_tokensAmount",
          "type": "uint256"
        }
      ],
      "name": "DelegatedTo",
      "type": "event"
    },
    {
      "anonymous": false,
      "inputs": [
        {
          "indexed": false,
          "name": "_from",
          "type": "address"
        },
        {
          "indexed": false,
          "name": "_to",
          "type": "address"
        }
      ],
      "name": "DelegationRemoved",
      "type": "event"
    },
    {
      "anonymous": false,
      "inputs": [
        {
          "indexed": true,
          "name": "previousOwner",
          "type": "address"
        }
      ],
      "name": "OwnershipRenounced",
      "type": "event"
    },
    {
      "anonymous": false,
      "inputs": [
        {
          "indexed": true,
          "name": "previousOwner",
          "type": "address"
        },
        {
          "indexed": true,
          "name": "newOwner",
          "type": "address"
        }
      ],
      "name": "OwnershipTransferred",
      "type": "event"
    },
    {
      "constant": true,
      "inputs": [],
      "name": "quorumPercent",
      "outputs": [
        {
          "name": "",
          "type": "uint256"
        }
      ],
      "payable": false,
      "stateMutability": "view",
      "type": "function"
    },
    {
      "constant": true,
      "inputs": [],
      "name": "consensusPercent",
      "outputs": [
        {
          "name": "",
          "type": "uint256"
        }
      ],
      "payable": false,
      "stateMutability": "view",
      "type": "function"
    },
    {
      "constant": true,
      "inputs": [],
      "name": "groupName",
      "outputs": [
        {
          "name": "",
          "type": "string"
        }
      ],
      "payable": false,
      "stateMutability": "view",
      "type": "function"
    },
    {
      "constant": true,
      "inputs": [],
      "name": "getVotersTotal",
      "outputs": [
        {
          "name": "",
          "type": "uint256"
        }
      ],
      "payable": false,
      "stateMutability": "view",
      "type": "function"
    },
    {
      "constant": true,
      "inputs": [
        {
          "name": "_voter",
          "type": "address"
        }
      ],
      "name": "getPowerOf",
      "outputs": [
        {
          "name": "",
          "type": "uint256"
        }
      ],
      "payable": false,
      "stateMutability": "view",
      "type": "function"
    },
    {
      "constant": false,
      "inputs": [],
      "name": "voteFromOriginPositive",
      "outputs": [],
      "payable": false,
      "stateMutability": "nonpayable",
      "type": "function"
    },
    {
      "constant": false,
      "inputs": [
        {
          "name": "_isYes",
          "type": "bool"
        }
      ],
      "name": "vote",
      "outputs": [],
      "payable": false,
      "stateMutability": "nonpayable",
      "type": "function"
    },
    {
      "constant": false,
      "inputs": [],
      "name": "callActionIfEnded",
      "outputs": [],
      "payable": false,
      "stateMutability": "nonpayable",
      "type": "function"
    },
    {
      "constant": true,
      "inputs": [],
      "name": "isFinished",
      "outputs": [
        {
          "name": "",
          "type": "bool"
        }
      ],
      "payable": false,
      "stateMutability": "view",
      "type": "function"
    },
    {
      "constant": true,
      "inputs": [],
      "name": "isYes",
      "outputs": [
        {
          "name": "",
          "type": "bool"
        }
      ],
      "payable": false,
      "stateMutability": "view",
      "type": "function"
    },
    {
      "constant": true,
      "inputs": [],
      "name": "getVotingStats",
      "outputs": [
        {
          "name": "yesResults",
          "type": "uint256"
        },
        {
          "name": "noResults",
          "type": "uint256"
        },
        {
          "name": "votersTotal",
          "type": "uint256"
        }
      ],
      "payable": false,
      "stateMutability": "view",
      "type": "function"
    },
    {
      "constant": false,
      "inputs": [],
      "name": "cancelVoting",
      "outputs": [],
      "payable": false,
      "stateMutability": "nonpayable",
      "type": "function"
    },
    {
      "constant": true,
      "inputs": [
        {
          "name": "_of",
          "type": "address"
        }
      ],
      "name": "getDelegatedPowerOf",
      "outputs": [
        {
          "name": "",
          "type": "uint256"
        }
      ],
      "payable": false,
      "stateMutability": "view",
      "type": "function"
    },
    {
      "constant": true,
      "inputs": [
        {
          "name": "_to",
          "type": "address"
        }
      ],
      "name": "getDelegatedPowerByMe",
      "outputs": [
        {
          "name": "",
          "type": "uint256"
        }
      ],
      "payable": false,
      "stateMutability": "view",
      "type": "function"
    },
    {
      "constant": false,
      "inputs": [
        {
          "name": "_to",
          "type": "address"
        },
        {
          "name": "_tokenAmount",
          "type": "uint256"
        }
      ],
      "name": "delegateMyVoiceTo",
      "outputs": [],
      "payable": false,
      "stateMutability": "nonpayable",
      "type": "function"
    },
    {
      "constant": false,
      "inputs": [
        {
          "name": "_to",
          "type": "address"
        }
      ],
      "name": "removeDelegation",
      "outputs": [],
      "payable": false,
      "stateMutability": "nonpayable",
      "type": "function"
    }
  ],
  "bytecode": "0x608060405234801561001057600080fd5b5060405161157b38038061157b833981018060405281019080805190602001909291908051906020019092919080519060200190929190805190602001909291908051906020019092919080518201929190602001805190602001909291908051906020019092919080519060200190929190505050336000806101000a81548173ffffffffffffffffffffffffffffffffffffffff021916908373ffffffffffffffffffffffffffffffffffffffff160217905550600173__VotingLib_____________________________63f3f98c1c90918b8b8b8b8b8b8b8b8b6040518b63ffffffff167c0100000000000000000000000000000000000000000000000000000000028152600401808b81526020018a73ffffffffffffffffffffffffffffffffffffffff1673ffffffffffffffffffffffffffffffffffffffff1681526020018973ffffffffffffffffffffffffffffffffffffffff1673ffffffffffffffffffffffffffffffffffffffff1681526020018873ffffffffffffffffffffffffffffffffffffffff1673ffffffffffffffffffffffffffffffffffffffff1681526020018760048111156101c457fe5b60ff168152602001868152602001806020018581526020018481526020018373ffffffffffffffffffffffffffffffffffffffff1673ffffffffffffffffffffffffffffffffffffffff168152602001828103825286818151815260200191508051906020019080838360005b8381101561024c578082015181840152602081019050610231565b50505050905090810190601f1680156102795780820380516001836020036101000a031916815260200191505b509b50505050505050505050505060006040518083038186803b15801561029f57600080fd5b505af41580156102b3573d6000803e3d6000fd5b505050505050505050505050506112ac806102cf6000396000f300608060405260043610610107576000357c0100000000000000000000000000000000000000000000000000000000900463ffffffff16806336191cc81461010c5780633edf755314610163578063411891141461018e5780634b9f5c98146101b957806364288d02146101e8578063715018a61461023557806376804a031461024c578063783cec80146102855780637b3529621461031557806381f4b232146103445780638da5cb5b1461035b578063983babb4146103b2578063a589effc146103e1578063c756280e146103f8578063eead6f501461040f578063f0466c7314610466578063f2fde38b146104a9578063f81cbd26146104ec578063fa77967114610517575b600080fd5b34801561011857600080fd5b5061014d600480360381019080803573ffffffffffffffffffffffffffffffffffffffff16906020019092919050505061056e565b6040518082815260200191505060405180910390f35b34801561016f57600080fd5b50610178610654565b6040518082815260200191505060405180910390f35b34801561019a57600080fd5b506101a3610661565b6040518082815260200191505060405180910390f35b3480156101c557600080fd5b506101e6600480360381019080803515159060200190929190505050610711565b005b3480156101f457600080fd5b50610233600480360381019080803573ffffffffffffffffffffffffffffffffffffffff169060200190929190803590602001909291905050506107da565b005b34801561024157600080fd5b5061024a6108a0565b005b34801561025857600080fd5b506102616109a2565b60405180848152602001838152602001828152602001935050505060405180910390f35b34801561029157600080fd5b5061029a610a6f565b6040518080602001828103825283818151815260200191508051906020019080838360005b838110156102da5780820151818401526020810190506102bf565b50505050905090810190601f1680156103075780820380516001836020036101000a031916815260200191505b509250505060405180910390f35b34801561032157600080fd5b5061032a610b14565b604051808215151515815260200191505060405180910390f35b34801561035057600080fd5b50610359610bc4565b005b34801561036757600080fd5b50610370610c3e565b604051808273ffffffffffffffffffffffffffffffffffffffff1673ffffffffffffffffffffffffffffffffffffffff16815260200191505060405180910390f35b3480156103be57600080fd5b506103c7610c63565b604051808215151515815260200191505060405180910390f35b3480156103ed57600080fd5b506103f6610d13565b005b34801561040457600080fd5b5061040d610e01565b005b34801561041b57600080fd5b50610450600480360381019080803573ffffffffffffffffffffffffffffffffffffffff169060200190929190505050610e89565b6040518082815260200191505060405180910390f35b34801561047257600080fd5b506104a7600480360381019080803573ffffffffffffffffffffffffffffffffffffffff169060200190929190505050610f6f565b005b3480156104b557600080fd5b506104ea600480360381019080803573ffffffffffffffffffffffffffffffffffffffff16906020019092919050505061102c565b005b3480156104f857600080fd5b50610501611093565b6040518082815260200191505060405180910390f35b34801561052357600080fd5b50610558600480360381019080803573ffffffffffffffffffffffffffffffffffffffff1690602001909291905050506110a0565b6040518082815260200191505060405180910390f35b6000600173__VotingLib_____________________________63d1069e6d9091846040518363ffffffff167c0100000000000000000000000000000000000000000000000000000000028152600401808381526020018273ffffffffffffffffffffffffffffffffffffffff1673ffffffffffffffffffffffffffffffffffffffff1681526020019250505060206040518083038186803b15801561061257600080fd5b505af4158015610626573d6000803e3d6000fd5b505050506040513d602081101561063c57600080fd5b81019080805190602001909291905050509050919050565b6000600160070154905090565b6000600173__VotingLib_____________________________63526fbbf090916040518263ffffffff167c01000000000000000000000000000000000000000000000000000000000281526004018082815260200191505060206040518083038186803b1580156106d157600080fd5b505af41580156106e5573d6000803e3d6000fd5b505050506040513d60208110156106fb57600080fd5b8101908080519060200190929190505050905090565b600173__VotingLib_____________________________63c80e0eea909133846040518463ffffffff167c0100000000000000000000000000000000000000000000000000000000028152600401808481526020018373ffffffffffffffffffffffffffffffffffffffff1673ffffffffffffffffffffffffffffffffffffffff16815260200182151515158152602001935050505060006040518083038186803b1580156107bf57600080fd5b505af41580156107d3573d6000803e3d6000fd5b5050505050565b600173__VotingLib_____________________________63d5048ea6909184846040518463ffffffff167c0100000000000000000000000000000000000000000000000000000000028152600401808481526020018373ffffffffffffffffffffffffffffffffffffffff1673ffffffffffffffffffffffffffffffffffffffff168152602001828152602001935050505060006040518083038186803b15801561088457600080fd5b505af4158015610898573d6000803e3d6000fd5b505050505050565b6000809054906101000a900473ffffffffffffffffffffffffffffffffffffffff1673ffffffffffffffffffffffffffffffffffffffff163373ffffffffffffffffffffffffffffffffffffffff161415156108fb57600080fd5b6000809054906101000a900473ffffffffffffffffffffffffffffffffffffffff1673ffffffffffffffffffffffffffffffffffffffff167ff8df31144d9c2f0f6b59d69b8b98abd5459d07f2742c4df920b25aae33c6482060405160405180910390a260008060006101000a81548173ffffffffffffffffffffffffffffffffffffffff021916908373ffffffffffffffffffffffffffffffffffffffff160217905550565b6000806000600173__VotingLib_____________________________6380a42c5f90916040518263ffffffff167c01000000000000000000000000000000000000000000000000000000000281526004018082815260200191505060606040518083038186803b158015610a1557600080fd5b505af4158015610a29573d6000803e3d6000fd5b505050506040513d6060811015610a3f57600080fd5b81019080805190602001909291908051906020019092919080519060200190929190505050925092509250909192565b60606001600a018054600181600116156101000203166002900480601f016020809104026020016040519081016040528092919081815260200182805460018160011615610100020316600290048015610b0a5780601f10610adf57610100808354040283529160200191610b0a565b820191906000526020600020905b815481529060010190602001808311610aed57829003601f168201915b5050505050905090565b6000600173__VotingLib_____________________________63af36b26690916040518263ffffffff167c01000000000000000000000000000000000000000000000000000000000281526004018082815260200191505060206040518083038186803b158015610b8457600080fd5b505af4158015610b98573d6000803e3d6000fd5b505050506040513d6020811015610bae57600080fd5b8101908080519060200190929190505050905090565b6000809054906101000a900473ffffffffffffffffffffffffffffffffffffffff1673ffffffffffffffffffffffffffffffffffffffff163373ffffffffffffffffffffffffffffffffffffffff16141515610c1f57600080fd5b60018060040160016101000a81548160ff021916908315150217905550565b6000809054906101000a900473ffffffffffffffffffffffffffffffffffffffff1681565b6000600173__VotingLib_____________________________63cd511bce90916040518263ffffffff167c01000000000000000000000000000000000000000000000000000000000281526004018082815260200191505060206040518083038186803b158015610cd357600080fd5b505af4158015610ce7573d6000803e3d6000fd5b505050506040513d6020811015610cfd57600080fd5b8101908080519060200190929190505050905090565b600173__VotingLib_____________________________63c80e0eea9091600160020160009054906101000a900473ffffffffffffffffffffffffffffffffffffffff1660016040518463ffffffff167c0100000000000000000000000000000000000000000000000000000000028152600401808481526020018373ffffffffffffffffffffffffffffffffffffffff1673ffffffffffffffffffffffffffffffffffffffff16815260200182151515158152602001935050505060006040518083038186803b158015610de757600080fd5b505af4158015610dfb573d6000803e3d6000fd5b50505050565b600173__VotingLib_____________________________633914bef090916040518263ffffffff167c01000000000000000000000000000000000000000000000000000000000281526004018082815260200191505060006040518083038186803b158015610e6f57600080fd5b505af4158015610e83573d6000803e3d6000fd5b50505050565b6000600173__VotingLib_____________________________63d06fb6b29091846040518363ffffffff167c0100000000000000000000000000000000000000000000000000000000028152600401808381526020018273ffffffffffffffffffffffffffffffffffffffff1673ffffffffffffffffffffffffffffffffffffffff1681526020019250505060206040518083038186803b158015610f2d57600080fd5b505af4158015610f41573d6000803e3d6000fd5b505050506040513d6020811015610f5757600080fd5b81019080805190602001909291905050509050919050565b600173__VotingLib_____________________________634464a3559091836040518363ffffffff167c0100000000000000000000000000000000000000000000000000000000028152600401808381526020018273ffffffffffffffffffffffffffffffffffffffff1673ffffffffffffffffffffffffffffffffffffffff1681526020019250505060006040518083038186803b15801561101157600080fd5b505af4158015611025573d6000803e3d6000fd5b5050505050565b6000809054906101000a900473ffffffffffffffffffffffffffffffffffffffff1673ffffffffffffffffffffffffffffffffffffffff163373ffffffffffffffffffffffffffffffffffffffff1614151561108757600080fd5b61109081611186565b50565b6000600160060154905090565b6000600173__VotingLib_____________________________636648bedf9091846040518363ffffffff167c0100000000000000000000000000000000000000000000000000000000028152600401808381526020018273ffffffffffffffffffffffffffffffffffffffff1673ffffffffffffffffffffffffffffffffffffffff1681526020019250505060206040518083038186803b15801561114457600080fd5b505af4158015611158573d6000803e3d6000fd5b505050506040513d602081101561116e57600080fd5b81019080805190602001909291905050509050919050565b600073ffffffffffffffffffffffffffffffffffffffff168173ffffffffffffffffffffffffffffffffffffffff16141515156111c257600080fd5b8073ffffffffffffffffffffffffffffffffffffffff166000809054906101000a900473ffffffffffffffffffffffffffffffffffffffff1673ffffffffffffffffffffffffffffffffffffffff167f8be0079c531659141344cd1fd0a4f28419497f9722a3daafe3b4186f6b6457e060405160405180910390a3806000806101000a81548173ffffffffffffffffffffffffffffffffffffffff021916908373ffffffffffffffffffffffffffffffffffffffff160217905550505600a165627a7a72305820a9e22b32cde845fbeef04ee8fe2ffca6a682f3a0ca2ea7a3046b513951314a020029",
  "source": "pragma solidity ^0.4.22;\n\nimport \"../IDaoBase.sol\";\nimport \"./IVoting.sol\";\nimport \"./IProposal.sol\";\nimport \"./VotingLib.sol\";\nimport \"../tokens/StdDaoToken.sol\";\nimport \"zeppelin-solidity/contracts/ownership/Ownable.sol\";\n\n\n// TODO Stacked voting:\n// 1 - client transfers N tokens for D days\n// 2 - client calls vote(_yes, _tokenAmount) \n// 3 - the result is calculated\n\ncontract Voting is IVoting, Ownable {\n\tusing VotingLib for VotingLib.VotingStorage;\n\tVotingLib.VotingStorage store;\n\tevent Voted(address _who, bool _yes);\n\tevent CallAction();\n\tevent DelegatedTo(address _sender, uint _tokensAmount);\n\tevent DelegationRemoved(address _from, address _to);\n\t\n\t/*\n\t * @param _daoBase – DAO where proposal was created.\n\t * @param _proposal – proposal, which create vote.\n\t * @param _origin – who create voting (group member).\n\t * @param _minutesToVote - if is zero -> voting until quorum reached, else voting finish after minutesToVote minutes\n\t * @param _quorumPercent - percent of group members to make quorum reached. If minutesToVote==0 and quorum reached -> voting is finished\n\t * @param _consensusPercent - percent of voters (not of group members!) to make consensus reached. If consensus reached -> voting is finished with YES result\n\t * @param _votingType – one of the voting type, see enum votingType\n\t * @param _groupName – for votings that for daoBase group members only\n\t * @param _tokenAddress – for votings that uses token amount of voter\n\t*/\n\tconstructor(IDaoBase _daoBase, IProposal _proposal, \n\t\taddress _origin, VotingLib.VotingType _votingType, \n\t\tuint _minutesToVote, string _groupName, \n\t\tuint _quorumPercent, uint _consensusPercent, \n\t\taddress _tokenAddress) public \n\t{\n\t\tstore.generalConstructor(\n\t\t\t_daoBase,\n\t\t\t_proposal, \n\t\t\t_origin, \n\t\t\t_votingType, \n\t\t\t_minutesToVote, \n\t\t\t_groupName, \n\t\t\t_quorumPercent, \n\t\t\t_consensusPercent, \n\t\t\t_tokenAddress\n\t\t);\n\t}\n\n\t/**\n\t* @return percent of group members to make quorum reached.\n\t* @dev If minutesToVote==0 and quorum reached -> voting is finished\n\t*/\n\tfunction quorumPercent() public view returns(uint) {\n\t\treturn store.quorumPercent;\n\t}\n\n\t/**\n\t* @return percent of voters to make consensus reached\n\t* @dev If consensus reached -> voting is finished with YES result\n\t*/\n\tfunction consensusPercent() public view returns(uint) {\n\t\treturn store.consensusPercent;\n\t}\t\n\n\t/**\n\t* @return name of group\n\t* @dev for votings that for daoBase group members only\n\t*/\n\tfunction groupName() public view returns(string) {\n\t\treturn store.groupName;\n\t}\t\t\n\n\t/**\n\t* @return number of total voters\n\t*/\n\tfunction getVotersTotal() public view returns(uint) {\n\t\treturn store.getVotersTotal();\n\t}\n\n\t/**\n\t* @param _voter address of voter\n\t* @return power of voter\n\t*/\n\tfunction getPowerOf(address _voter) public view returns(uint) {\n\t\treturn store.getPowerOf(_voter);\n\t}\n\n\t/**\n\t* @dev vote positive from the originator of the voting\n\t*/\n\tfunction voteFromOriginPositive() public {\n\t\tstore.libVote(store.votingCreator, true);\n\t}\n\n\t/**\n\t* @param _isYes vote\n\t* @dev vote function\n\t*/\n\tfunction vote(bool _isYes) public {\n\t\tstore.libVote(msg.sender, _isYes);\n\t}\n\n\t/**\n\t* @dev call action when voting finished with yes\n\t*/\n\tfunction callActionIfEnded() public {\n\t\tstore.callActionIfEnded();\n\t}\n\n\t/**\n\t* @return true if voting finished\n\t*/\n\tfunction isFinished() public view returns(bool) {\n\t\treturn store.isFinished();\n\t}\n\n\t/**\n\t* @return true if voting finished with yes\n\t*/\n\tfunction isYes() public view returns(bool) {\n\t\treturn store.isYes();\n\t}\n\n\t/**\n\t* @return amount of yes, no and voters total\n\t*/\n\tfunction getVotingStats() public view returns(uint yesResults, uint noResults, uint votersTotal) {\n\t\treturn store.getVotingStats();\n\t}\n\n\t/**\n\t* @notice This function should be called only by owner\n\t* @return cancel voting\n\t*/\n\tfunction cancelVoting() public onlyOwner {\n\t\tstore.canceled = true;\n\t}\n\n\t// ------------------ LIQUID ------------------\n\t/**\n\t* @param _of address\n\t* @return delegated power for account _of\n\t*/\n\tfunction getDelegatedPowerOf(address _of) public view returns(uint) {\n\t\treturn store.getDelegatedPowerOf(_of);\n\t}\n\n\t/**\n\t* @param _to address\n\t* @return delegated power to account _to by msg.sender\n\t*/\n\tfunction getDelegatedPowerByMe(address _to) public view returns(uint) {\n\t\treturn store.getDelegatedPowerByMe(_to);\n\t}\n\n\t/**\n\t* @param _to address\n\t* @param _tokenAmount amount of tokens which will be delegated\n\t* @dev delegate power to account _to by msg.sender\n\t*/\n\tfunction delegateMyVoiceTo(address _to, uint _tokenAmount) public {\n\t\tstore.delegateMyVoiceTo(_to, _tokenAmount);\n\t}\n\n\t/**\n\t* @param _to address\n\t* @dev remove delegation for account _to\n\t*/\n\tfunction removeDelegation(address _to) public {\n\t\tstore.removeDelegation(_to);\n\t}\n}\n",
  "sourcePath": "@thetta/core/contracts/governance/Voting.sol",
  "compiler": {
    "name": "solc",
    "version": "0.4.24+commit.e67f0147.Emscripten.clang"
  },
  "schemaVersion": "2.0.1",
  "updatedAt": "2018-10-17T13:14:11.863Z"
}